:020000040800F2
:10000000C809002001010008AF1C000815130008F2
:10001000AD1C000879070008CD2000080000000092
:10002000000000000000000000000000311D00087A
:100030007B070008000000008D010008351D000846
:100040001B0100081B0100081B0100081B01000820
:100050001B0100081B010008A50700081B01000880
:100060001B0100081B0100081B0100081B01000800
:100070001B0100081B0100081B0100081B010008F0
:100080001B0100081B0100081B0100081B010008E0
:100090001B0100081B0100081B010008AB0700083A
:1000A0001B0100081B0100081B0100081B010008C0
:1000B0001B0100081B0100081B0100081B010008B0
:1000C0001B0100081B0100081B0100081B010008A0
:1000D0001B010008F91F00081B0100081B01000894
:1000E0001B0100081B0100081B010008DFF80CD0F1
:1000F00000F01EFB00480047392A0008C80900200C
:100100000648804706480047FEE7FEE7FEE7FEE7B1
:10011000FEE7FEE7FEE7FEE7FEE7FEE7B11D0008AB
:10012000ED00000872B62C482C49026841EA020131
:1001300001602B484FF0010101602A4841680160CD
:1001400001688A884FF0100342EA03028A80D1F8DE
:1001500000C00CF1240CBCE8FF008CF309884FF0C0
:10016000020C8CF31488AE4662B63047EFF3108071
:1001700072B67047EFF3108062B6704780F3108854
:10018000704719484FF0805101607047EFF3108CB1
:1001900072B6164A126822B12DE900509047BDE8A8
:1001A0000050EFF3098020E9F01F0E4D4FF01008CA
:1001B0002E683060B78827EA0807B780686828602B
:1001C000878847EA080787800168B1E8F01F81F354
:1001D00009888CF31088704720ED00E00000FFFFD5
:1001E000580000205C00002004ED00E040000020EA
:1001F0002DE9F05F0546002092469B46884606465C
:10020000814640241BE0284641464746224600F0EE
:1002100020F853465A46C01A914110D31146184649
:10022000224600F0E7F82D1A67EB01084F462246F8
:100230000120002100F0DEF817EB00094E41201EDE
:10024000A4F10104DFDC484631462A464346BDE8B6
:10025000F09F202A04DB203A21FA02F000217047A7
:1002600021FA02F3D040C2F120029140084319461E
:10027000704740EA01039B0703D009E008C9121F39
:1002800008C0042AFAD203E011F8013B00F8013B50
:10029000521EF9D27047D2B201E000F8012B491E7C
:1002A000FBD270470022F6E710B513460A46044613
:1002B0001946FFF7F0FF204610BD2DE9F04D81EA09
:1002C000030404F0004B21F0004514464FF0000AEF
:1002D00023F0004150EA050220D054EA01021DD06B
:1002E000C5F30A570246C5F31303C1F31300C1F364
:1002F0000A5640F4801543F48013A7EB0608101B40
:10030000D64608F2FD3873EB050002D308F1010868
:1003100001E092185B41B8F1000F03DA00200146BA
:10032000BDE8F08D00204FF48011064684460EE0B3
:10033000171B73EB050705D3121B63EB050306437D
:100340004CEA010C49084FEA300092185B4150EA30
:100350000107EDD152EA030012D082EA040083EAD9
:100360000501084305D0101BAB4106D20122002332
:1003700006E000224FF0004302E06FF0010253104C
:100380001AEB06004CEB085110EB0A0041EB0B0195
:10039000BDE8F04D00F03DB8C1F30A52C1F31301BE
:1003A00040F2FF3341F480119A4202DA0020014604
:1003B000704740F233439A42A2F2334202DC524287
:1003C000FFF747BF00F016B830B50B4601460020D6
:1003D0002022012409E021FA02F59D4205D303FA07
:1003E00002F5491B04FA02F52844151EA2F1010288
:1003F000F1DC30BD202A04DB203A00FA02F10020B3
:1004000070479140C2F1200320FA03F31943904052
:10041000704710B5141E73F1000408DA401C41F156
:10042000000192185B411A4301D120F0010010BD78
:100430002DE9F04D92469B4611B1B1FA81F202E0EE
:10044000B0FA80F220329046FFF7D4FF04460F4600
:1004500040EA0A0041EA0B0153465A46084313D0CA
:10046000114653EA010019D0C8F140025046FFF787
:10047000F0FE05460E46504659464246FFF7BAFF83
:10048000084305D0012004E020463946BDE8F08D40
:100490000020054346EAE0762C4337430A9863057B
:1004A000E40AA0EB08000022FD0A44EA47540A309F
:1004B00002D500200146E9E7010510196941DDE98F
:1004C000084500196941BDE8F04DA2E72DE9FE4F4E
:1004D000804681EA0300C00F0C46009021F00041E5
:1004E00023F00045B8EB0200A94105D24046214661
:1004F00090461C460B46024623F00040104347D06E
:10050000270DC7F30A00C3F30A510290401A019065
:1005100040286BDAC3F3130040F4801B0098924626
:1005200020B10023D2EB030A63EB0B0B0198594671
:10053000C0F140025046FFF75DFF06460D465046AB
:100540005946019A00F006F910EB080061410024B9
:1005500087EA115284EAE7731A4340D0009A62B3E3
:10056000019A012A4FEA075215DC001B61EB0201D8
:100570004FF0004202EA0752CDE90042001C41F56B
:10058000801132462B46FFF753FF03B0BDE8F08FD2
:1005900040462146F9E7001B61EB0201001C41F5D2
:1005A000801300185B412018A2F5001747EB0301E8
:1005B00040EAD570B6196D4111E06D084FEA360674
:1005C00045EAC0754FEA0752001B61EB0201001CAF
:1005D00041F5801149084FEA300000195141324677
:1005E0002B4603B0BDE8F04FFFF713BF0098012280
:1005F00040000023D0EB020263EBE0730098214639
:100600004FEAE074B8EB000061EB0401E9E783F026
:1006100000435BE781F0004158E72DE9FE4F81EA96
:10062000030404F0004421F0004100944FF0000B5B
:1006300023F0004350EA01045ED052EA03045BD089
:10064000C3F30A54C1F30A552C44A4F2F3340194C1
:10065000A0FB0254C1F3130141F48011C3F313034F
:1006600043F4801301FB024400FB034E840A970A03
:1006700044EA815447EA8357A4FB076802958D0A30
:1006800005FB07854FEA932C04FB0C542705029DBC
:100690004FEA065847EA1637B5EB08056EEB070C2C
:1006A000870E920E47EA811742EA8312A7FB0201E6
:1006B000B6EB0B0164EB00042B0D43EA0C335E1820
:1006C00044EB1C50DA465146E7FB0201C5F3130424
:1006D0004FEA0B3343EA14534FEA0432019C43EAD6
:1006E0000603A4F10C040294009CCDE900B4FFF7CA
:1006F0009FFE03B0BDE8F08F00200146F9E700003F
:1007000030B5041E71F1000404DB4FF00044404298
:1007100064EB0101141E73F1000405DB1C464FF06D
:100720000043524263EB0403994208BF904230BD3C
:10073000064C074D06E0E06840F0010394E807002E
:1007400098471034AC42F6D3FFF7D4FC743F00084E
:10075000943F0008202A06DBCB17203A41FA02F02A
:1007600043EAE07306E041FA02F3D040C2F120020E
:100770009140084319467047FEE770470FB4084898
:1007800010B503AA029901F0A3FC0246FA2800D989
:10079000FA220349012001F07FFC10BC5DF814FB34
:1007A000C8040020012000F055B810B54FF4807047
:1007B00000F050F8BDE810404FF4007000F04AB867
:1007C0007047000070B5044600F058F90546601CFB
:1007D00002D004480078044400F050F9401BA042C5
:1007E000FAD370BD0400002070B504460A20FFF75C
:1007F000E9FF164D012C10D0A9158C4219D04900E3
:100800008C4221D1284600F027F900281CD1284627
:10081000BDE87040042100F026B901210C4800F029
:100820001BF9012810D12846BDE87040012100F0D5
:100830001AB9284600F010F9002805D12846BDE86D
:100840007040022100F00FB970BD0000001001409F
:100850000008014010B504490A68024202D008604D
:10086000FFF7C2FF10BD0000140401402DE9F84F4E
:1008700000230024DFF8C0914FF00F0809F1040AAB
:100880000AF1040B0BF1040E0127A7400A683A4055
:10089000BA4275D1DFF8A4C14D68A5EB0C066545D9
:1008A0002BD00DDC032D34D005DC35B3012D19D050
:1008B000022D2FD11BE0112D16D0122D2AD119E0B7
:1008C000B6F5881F19D006DCB6F5803F15D0B6F511
:1008D000801F1FD111E0B6F5001F0ED0B6F5041F22
:1008E00018D10AE0CB6815E0CB681B1D12E0CB687D
:1008F00008330FE0CB680C330CE08B6823B1012B7D
:1009000004D00823476105E0042303E008230761BE
:1009100000E00023FF2A01D8054601E000F10405AC
:1009200002D84FEA840603E0A4F108064FEA8606DF
:100930002F6808FA06FC27EA0C0703FA06F647EACE
:1009400006072F604D68ED0070D53D4DAE6946F04D
:100950000106AE61AD6905F001050095394D24F041
:1009600003067719BE68A5072D0F08FA05FC26EACD
:100970000C06DFF8D4C0604503D14FF0000C17E03F
:1009800054E0DFF8C8C0604502D14FF0010C0FE021
:10099000DFF8BCC0604502D14FF0020C08E0DFF880
:1009A000B4C0604502D14FF0030C01E04FF0040CDD
:1009B0000CFA05FC4CEA060CC7F808C04D68ED03BC
:1009C00005D5D9F800501543C9F8005004E0D9F80E
:1009D00000509543C9F800504D68AD0305D5DAF8CD
:1009E00000501543CAF8005004E0DAF8005095436F
:1009F000CAF800504D68ED0205D5DBF800501543EC
:100A0000CBF8005004E0DBF800509543CBF80050E1
:100A10004D68AD0205D5DEF800501543CEF8005004
:100A200004E0DEF800509543CEF80050641C102C12
:100A3000FFF42AAFBDE8F88F000401400000111058
:100A4000001002400000014000080140000C01407D
:100A500000100140001401408068084201D00120CC
:100A6000704700207047C2684A40C2607047002A41
:100A700001D0016170470904016170470148806835
:100A8000704700000400002010B50748016841F0DD
:100A900010010160032000F075F8002000F006F856
:100AA00000F026F8002010BD0020024070B504467A
:100AB0000D4D4FF47A712878B1FBF0F00B490968BD
:100AC000B1FBF0F000F03AFB08B1012070BD102C32
:100AD00007D200222146501E00F034F86C6000203E
:100AE00070BD012070BD0000040000201000002037
:100AF00008B50C48816941F001018161816901F00B
:100B000001010091C16941F08051C161C06900F0EB
:100B1000805000900449486820F0E06040F0806018
:100B2000486008BD001002400000014000F01F02B4
:100B3000012191404009800000F1E020C0F800113F
:100B400070470000F0B40D460D4B1B68C3F3022341
:100B5000C3F10704042C00D90424191D072901D26C
:100B6000002300E0DB1E012606FA04F1491E29409D
:100B700099409E40761E16403143F0BC01F098B873
:100B80000CED00E000F00701054A10684FF6FF0386
:100B9000184040EA012003490843106070470000F4
:100BA0000CED00E00000FA052DE9F04704460E4682
:100BB000DFF86081D8F8000000F00700B0420FD2E3
:100BC000D8F8000020F007003043C8F80000D8F83B
:100BD000000000F00700B04202D00120BDE8F0871D
:100BE00020684D4F810712D5400703D5786840F43F
:100BF000E06078602078000703D5786840F46050A2
:100C000078607868A16820F0F00008437860207868
:100C1000C00748D06068012806D0022809D039688A
:100C200089070BD40120D9E73968890306D401204C
:100C3000D4E73968890101D40120CFE7796821F030
:100C4000030101437960FFF719FF0546606841F22F
:100C50008839012809D0022814D020E0FFF70EFFC0
:100C6000401B484501D90320B8E77868C0F38100EC
:100C70000128F3D117E0FFF701FF401B484501D9D8
:100C80000320ABE77868C0F381000228F3D10AE0C3
:100C9000FFF7F4FE401B484501D903209EE7786822
:100CA00010F00C0FF4D1D8F8000000F00700B042AB
:100CB0000ED9D8F8000020F007003043C8F8000033
:100CC000D8F8000000F00700B04201D0012085E70D
:100CD0002078400705D57868E16820F4E060084393
:100CE00078602078000706D57868216920F4605084
:100CF00040EAC100786000F03BF87968074AC1F328
:100D00000311515CC840064908600020FFF7CEFE81
:100D1000002063E700200240001002405C3F000812
:100D200010000020014800687047000010000020FB
:100D300000B5FFF7F7FF04494968044AC1F30221EF
:100D4000515CC84000BD0000001002406C3F00082C
:100D500000B5FFF7E7FF04494968044AC1F3C2211F
:100D6000515CC84000BD0000001002406C3F00080C
:100D700085B014A090E80E00C068CDE9022301916F
:100D8000049014A000680090134B5968134801F0B8
:100D90000C02042A10D0082A0ED101A8C1F3834204
:100DA000805CC9030AD55968C1F340411DF80110A0
:100DB0000A4A5043B0FBF1F005B070470849484378
:100DC000FAE7000002030405060708090A0B0C0DE8
:100DD0000E0F1010010200000010024000127A00F5
:100DE00000093D002DE9F84F0446D04D2078C0079A
:100DF0005BD06868C0F38100012807D06868C0F341
:100E0000810002280AD16868C00307D528688003DA
:100E10004BD5606878BB0120BDE8F88F6068B0F5FD
:100E2000803F11D0A8B1B0F5A02F1BD0286820F4C6
:100E300080302860286820F480202860606830B303
:100E4000FFF71CFE06461EE0286840F4803028604C
:100E5000F4E7286820F480302860286820F4802097
:100E60002860EBE7286840F480202860286840F478
:100E700080302860E2E718E0FFF700FE801B64285E
:100E800001D90320C8E728688003F5D50DE0FFF7F6
:100E9000F5FD064606E0FFF7F1FD801B642801D949
:100EA0000320B9E728688003F5D42078DFF8808232
:100EB00080074FF0010A4FF0000945D5686810F02F
:100EC0000C0F07D06868C0F38100022812D168684F
:100ED000C0030FD42868800704D52069012801D0F9
:100EE000012099E72868616920F0F80040EAC10014
:100EF000286029E02069B8B1C8F800A0FFF7BEFD5E
:100F0000064606E0FFF7BAFD801B022801D9032040
:100F100082E728688007F5D52868616920F0F80025
:100F200040EAC10028600FE0C8F80090FFF7A6FD76
:100F3000064606E0FFF7A2FD801B022801D9032028
:100F40006AE728688007F5D42078000726D5794815
:100F5000A16999B1C0F800A0FFF790FD064606E030
:100F6000FFF78CFD801B022801D9032054E7686A33
:100F70008007F5D5012000F0C9FE0FE0C0F8009011
:100F8000FFF77CFD064606E0FFF778FD801B022890
:100F900001D9032040E7686A8007F5D4207840072C
:100FA00073D50026E869C00008D4E86940F0805095
:100FB000E861E86900F0805000900126DFF878B120
:100FC000DBF80000C00514D4DBF8000040F48070AA
:100FD000CBF80000FFF752FD074606E0FFF74EFD95
:100FE000C01B642801D9032016E7DBF80000C00508
:100FF000F4D5E068012812D0B0B105281DD0286AC8
:1010000020F001002862286A20F004002862E068CD
:1010100041F2883B28B3FFF731FD07461DE0286AFF
:1010200040F001002862F2E7286A20F001002862FF
:10103000286A20F004002862E9E7286A40F00400EA
:101040002862286A40F001002862E0E7FFF716FDF9
:10105000C01B584501D90320DEE6286A8007F5D574
:101060000DE0FFF70BFD074606E0FFF707FDC01B8D
:10107000584501D90320CFE6286A8007F5D4012E10
:1010800003D1E86920F08050E861E069A0B36968A5
:10109000C1F38101022947D0022805D0C8F8609029
:1010A000FFF7ECFC04463AE0C8F86090FFF7E6FC76
:1010B000064606E0FFF7E2FC801B022801D9032068
:1010C000AAE628688001F5D4206AB0F5803F05D1F2
:1010D0006868A16820F4003008436860D4E908011A
:1010E0000843696821F4741108436860C8F860A077
:1010F000FFF7C4FC044607E014E0FFF7BFFC001B49
:10110000022801D9032087E628688001F5D509E087
:10111000FFF7B4FC001B022801D903207CE62868F5
:101120008001F5D4002077E6012075E6001002402A
:1011300000004242800442420070004010B5401E50
:10114000B0F1807F01D3012010BD4FF0E024606139
:101150000F21601700F0ACFD0020A0610720206186
:10116000002010BD70B50446002C04D094F839005E
:10117000002510B106E0012070BD84F838502046EB
:1011800000F022F8242084F839002068C16821F496
:101190000051C160204600F02FFE2068016921F453
:1011A000904101612068416921F02A014161206874
:1011B000C16841F40051C160E563202084F8390022
:1011C00084F83A00002070BD30B585B00024019449
:1011D0000294039404940068184988422CD118485A
:1011E000816941F480418161816901F4804100910C
:1011F000816941F004018161806900F00400009080
:101200004FF40070019002200290032004900D4DD5
:1012100001A92846FFF72AFB29150191029403949E
:1012200001A92846FFF722FB002211462520FFF7DF
:1012300089FC2520FFF77AFC05B030BD003801405D
:1012400000100240000801402DE9F84304460D4615
:1012500091461E4694F83900202802D00220BDE8AD
:10126000F883B5B1B9F1000F13D094F83800012814
:1012700011D0012084F838000027E763212084F88A
:101280003900FFF7FBFB8046A4F82490A4F82690D1
:101290002DE00120E3E70220E1E7E08C401EE0843E
:1012A000A068B0F5805F09D0434600228021204627
:1012B000009600F06FFEB0B10320D0E74346002255
:1012C00080212046009600F065FE08B10320C6E7A5
:1012D00028882168C0F308004860206908B16D1CA7
:1012E00005E0AD1C03E0216815F8010B4860E08CB7
:1012F0000028D2D14346002240212046009600F02B
:1013000049FE08B10320AAE7202038346070277016
:101310000020A4E7FEE74218521E491E824202D96D
:1013200022EA0100704788437047000010B502F0C0
:101330001DF823492148086001F0ECFD044644B142
:1013400020A0FFF71BFA214620A0FFF717FA20463E
:1013500010BD02F025FB04463CB11AA0FFF70EFABF
:1013600021A0FFF70BFA204610BD02F089FB02F026
:1013700005F80028F8D101F0D7FD0028F4D101F0DC
:10138000E3FE04463CB10FA0FFF7F8F91BA0FFF7FE
:10139000F5F9204610BD02F009F904463CB109A058
:1013A000FFF7ECF91AA0FFF7E9F9204610BD02F0AB
:1013B00047FD01F089FD0028F8D110BDC8090020C3
:1013C000140000205B4552525D2000006F734D6594
:1013D0006D53797374656D496E6974206572726FAF
:1013E000722025640A0000006F735461736B496EAC
:1013F0006974206572726F720A0000006F73517514
:10140000657565496E6974206572726F720A0000B5
:101410006F735377546D72496E6974206572726F81
:10142000720A000042684A600860426811604160C8
:10143000704742684A6008604268116041607047C6
:1014400042684A60086042681160416070474268C3
:101450004A6008604268116041607047D0E900123C
:101460001160D0E9002151600021416001607047A6
:101470004168814201D101207047002070474168D6
:10148000814201D1012070470020704741688142AC
:1014900001D101207047002070470068FFF7C2BFEC
:1014A00070B504460D460020002C0DD0002D0BD049
:1014B0002946204601F0E5FF002805D129462046AF
:1014C000BDE8704001F078BB70BD01F007BC70B59D
:1014D00005460C46002D0ED06CB12146284602F080
:1014E0000AF8012803D02146284601F017FC0128FC
:1014F00003D0012070BD012070BD002070BD000030
:101500002DE9F84F05468846DFF8B0A0DAF800402C
:101510002746002D02D0B8F1500F02D80120BDE8B7
:10152000F88FA80701D00120F9E7FEF71FFE8146DA
:1015300005EB08061CE0A0682044A54201D8A6429D
:1015400003D8854212D2864210D31DA0FFF716F9A8
:10155000A068324620440090234629461AA0FFF78F
:101560000DF94846FEF70AFE0120D8E72746E46851
:10157000002CE0D14146284601F052FC88B1B8F574
:10158000805F03D3284601F0E6FF78B1DAF8000067
:1015900088B1FD600020E8604846FEF7EFFD0020BE
:1015A000BDE74846FEF7EAFD0120B8E74846FEF7EA
:1015B000E5FD0120B3E7CAF80050EBE7D8000020B2
:1015C0005B4552525D200000706F6F6C205B257090
:1015D0002C20307825782920636F6E666C696374DF
:1015E000207769746820706F6F6C205B25702C20E9
:1015F00030782578290A00002DE9F0470D46089833
:101600009046011D8FB2B8F1000F06D04FF6FB7166
:10161000884205D92648BDE8F08725480930FAE711
:10162000D5B1C8B1234C05FB07F12068FFF738FF9F
:101630000646300013D0FEF799FD81461E48FFF79D
:1016400025FF78B14846FEF799FD31462068FFF73F
:101650003EFF1748401CDEE715480A30DBE7144818
:10166000401ED8E714484468D4E900010860D4E972
:101670000010486000201C3CE58027812660012185
:10168000A18020826582A081E08104F1140149607B
:1016900009600831496009600831496009604846BD
:1016A000FEF76CFD6089C8F800000020B3E7000079
:1016B0000306000214000020B4000020F8B507461D
:1016C0000D4616461C46234632462946384601F04A
:1016D00019FE002806D1002133462A4638460094D8
:1016E00001F060FDF8BD7FB582B006460D461C4690
:1016F000234604AA2946304601F01EFE002806D1E2
:10170000032104AB2A463046009401F04BFD06B09D
:1017100070BD000010B5FEF729FD044601F098FCED
:101720000A49283848600968814202D00848008880
:1017300020B12046BDE81040FEF720BD2046FEF750
:101740001DFDBDE81040FEF71CBD00005C00002040
:101750003C00002010B502F001FB04463CB106A09D
:10176000FFF70CF806A0FFF709F8204610BDFEF7BA
:10177000D9FC204610BD00005B4552525D200000A0
:101780006F735469636B5374617274206572726F06
:10179000720A000070B50446204600F035F80028B3
:1017A00029D1184D2068C0EBC000E96800EB40006B
:1017B00001EB8004FEF7DAFC0646A08820F0020068
:1017C00040F00400A080E18804F1280001F0F8FB5B
:1017D00001F03EFC05F1200128384860EA695AB161
:1017E0002A884AB90968814206D03046FEF7C6FC0D
:1017F00001F0C2FD002070BD3046FEF7BFFC0020A6
:1018000070BD00003C0000202DE9F04707460D4662
:101810004FF0FF38002F0BD065B1286960B1286800
:1018200060B1A988494A1F290AD91046BDE8F08746
:101830004748FBE74748F9E74748F7E74748F5E7F0
:1018400004D14749884201D01046EFE74549464A4E
:10185000E868511A884202D93D481930E6E710B9C4
:101860004FF43470E8600821E868FFF754FDE86041
:10187000B0F5987F02D23648401ED7E7FEF776FCD7
:1018800081460026DFF8E4A010E0DAF80400A0F1B9
:101890002804FFF7E3FD354804F128010838FFF775
:1018A000C1FD3048E168FFF712FEE6602F48FFF700
:1018B000E6FD0028E9D02D480838FFF7E0FD10B11B
:1018C000234C0A343CE0294808384068A0F1280439
:1018D000FFF7C4FD4846FEF751FCD4F810A00822DB
:1018E0002048E968FFF7F1FD81465FEA09001DD055
:1018F0004A465046E96802F0ABFA2060A8682062C8
:10190000C4F80C90E868A060A661E6610220A0809F
:10191000A888E08028686061C4F83C80A6642869D3
:1019200060622665C7F800A000207FE7FEF71EFC76
:1019300081460E4804F128010838FFF773FD0C4C6E
:101940004846FEF71BFC204670E700000302000239
:101950000702000201020002050200020402000266
:10196000C52E0008C8090020005000207400002087
:101970000002000370B5064601F0C8FA08B1154828
:1019800070BD1548008808B1144870BDEEB1FEF76F
:10199000EDFB0546104C20342068283001F0F0FAA9
:1019A0002068818821F0040181803146206801F09F
:1019B00099FF2068818841F0200181802846FEF748
:1019C000DDFBFFF7A7FE002070BDBDE8704000F012
:1019D000B1B800000D0200033C0000200E0200021E
:1019E0002DE9F04706464FF0FF39DFF83C81D8F883
:1019F0001400864202D14D48BDE8F087D8F818009F
:101A0000864202D149480D30F6E7D8F810008642E8
:101A100002D346480D38EFE7FEF7A8FB0746C6EBB2
:101A2000C600D8F80C1000EB400001EB8004A5883C
:101A3000E80706D03D4C0A3C3846FEF79FFB20469F
:101A4000DAE7E8064FF0000A04D5B8F8000008B15C
:101A5000A8F800A0680708D504F1280001F090FA62
:101A6000A08820F00400A08009E005F0080005F43B
:101A70000051084303D004F12800FFF7EFFC15F0F4
:101A8000600F02D0204602F0A5F9A08820F00200E5
:101A900040F00100A080C4F83C90C4F848A001F0D8
:101AA000D7FADFF88490283809F12009C9F8040032
:101AB00020794FF00105C00624D504F1280109F171
:101AC0001800FFF7EAFCD8F81000D8F80C10C0EBAB
:101AD000C00000EB400001EB8000C9F80000066187
:101AE000D9F80010A0888880D9F80000E168C160AA
:101AF000616A4162A5803846FEF740FB01F03CFC7C
:101B0000002079E7A580084804F128013030FFF76C
:101B100089FC0748E168FFF7DAFCC4F80CA03846F6
:101B2000FEF72CFB002067E73C00002014020002B7
:101B3000C809002070B5194CA4F120022068126970
:101B40000169914201D3164870BD0079400701D464
:101B5000002070BDFEF70AFB05462068C08801F032
:101B600067FA012814D920682830FFF777FC20682D
:101B7000818841F0040181802068C188283001F00B
:101B80001FFA2846FEF7FAFAFFF7C4FD002070BDE1
:101B90002846FEF7F3FA0248093070BD5C000020C9
:101BA00007020002014903C97047000090000020AD
:101BB000F0B585B0002603963748816941F02001D1
:101BC0008161816901F020010091816941F010017A
:101BD0008161816901F010010091816941F0040186
:101BE0008161816901F004010091816941F008017E
:101BF0008161806900F00800009001240194029442
:101C000002250495254F01A93846FEF72FFE0195C0
:101C100002940396049501A93846FEF727FE042096
:101C2000019002940396049501A93846FEF71EFE22
:101C3000012211463846FEF71AFF012202213846DA
:101C4000FEF715FF012204213846FEF710FF01942C
:101C500013480290039501A91248FEF707FE4FF4BE
:101C60004070019010480290039401A93846FEF795
:101C7000FDFD002202210620FEF764FF0620FEF78C
:101C800055FF002202211720FEF75CFF1720FEF708
:101C90004DFF05B0F0BD00000010024000100140F3
:101CA000000011100008014000002110FEE77047FD
:101CB0000907090E002806DA00F00F0000F1E02005
:101CC00080F8141D704700F1E02080F80014704780
:101CD0000260C160416081600020704770B50024DF
:101CE00083680FE0C56806685B1C35449D4200D8D8
:101CF000C36845689D4207D011F8015B866835705E
:101D00008360641C9442EDD3204670BD08B507493A
:101D10004FF4FA520968B1FBF2F14143009100BF60
:101D20000098411E0091FAD208BD0000100000206A
:101D30007047000006480068002801D001F0FABF93
:101D40000448D0E90012491C42F1000206C0704765
:101D5000840000209000002030B58FB0282105A815
:101D6000FEF7A0FA14216846FEF79CFA01210591BE
:101D70000804069000240794099102250C950D9003
:101D8000C0000E9005A8FFF72DF808B1FEF718FD6A
:101D90000F20009001950294039404940121684659
:101DA000FEF702FF002801D0FEF70AFD0FB030BD9C
:101DB0000D48016841F00101016041680B4A114082
:101DC000416001680A4A11400160016821F48021E4
:101DD0000160416821F4FE0141604FF41F01816000
:101DE0000449C00308607047001002400000FFF87B
:101DF000FFFFF6FE08ED00E02DE9F0410446206803
:101E00000169E26821F4405111430161A168206930
:101E10000143606901432068C26841F20C639A4340
:101E20000A43C26020684169A26921F440711143EC
:101E300041615749206864253226884254D1FEF713
:101E400087FF00EBC00101EB001061688900B0FB67
:101E5000F1F7FEF77DFF00EBC00101EB00106168B8
:101E60008900B0FBF1F0B0FBF5F06FF018014843CA
:101E700007EB800006EB0010B0FBF5F000F0F00778
:101E8000FEF766FF00EBC00101EB001061688900FE
:101E9000B0FBF1F0B0FBF5F007EB0017FEF758FFD1
:101EA00000EBC00101EB001061688900B0FBF1F8A4
:101EB000FEF74EFF00EBC00101EB001061688900E6
:101EC000B0FBF1F0B0FBF5F06FF01801484308EB00
:101ED000800006EB0010B0FBF5F0216800F00F0069
:101EE00038448860BDE8F081FEF722FF00EBC001B6
:101EF00001EB001061688900B0FBF1F7FEF718FFF5
:101F000000EBC00101EB001061688900B0FBF1F04B
:101F1000B0FBF5F06FF01801484307EB800006EBCB
:101F20000010B0FBF5F000F0F007FEF701FF00EB4A
:101F3000C00101EB001061688900B0FBF1F0B0FB5B
:101F4000F5F007EB0017FEF7F3FE00EBC00101EB25
:101F5000001061688900B0FBF1F8FEF7E9FE00EBC4
:101F6000C00101EB001061688900B0FBF1F0B0FB2B
:101F7000F5F06FF01801484308EB800006EB001005
:101F8000B0FBF5F0216800F00F0038448860A9E745
:101F9000003801402DE9F04104460E4617469846A8
:101FA000069D1DE0681C1BD02DB1FEF767FDA0EB60
:101FB0000800A84214D92068C16821F4D071C1601A
:101FC0002068416921F001014161202084F8390035
:101FD00084F83A00002084F838000320BDE8F0813E
:101FE0002068006836EA000004D00020B842D9D04A
:101FF0000020F3E70120F9E77CB50F4C206800686A
:102000000E4DC043800607D428680190012201A923
:10201000A4F50470FFF762FE20680168C943090750
:1020200004D4296801916FF00801016020680168FB
:10203000406800907CBD0000880400200438014006
:1020400010B501281ED110494202A1F11000FFF77E
:102050003FFE0F4C0D4820604FF4E13060600020DF
:10206000A060E0602061A0610C216161E061204618
:10207000FFF778F82068C16841F02001C160054988
:102080000120087010BD00008802002000380140C7
:1020900088040020DC00002010B5002401280FD1A6
:1020A0000848007800B1144654B192B2642306483F
:1020B000FFF7CAF8044801680B68DB435B06FBD4F2
:1020C000204610BDDC00002088040020FEE7000050
:1020D00037B514460846064B6A46214600F0DCF840
:1020E00004466946002000F06EFC20463EBD00001C
:1020F000C729000802E008C8121F08C1002AFAD147
:1021000070477047002001E001C1121F002AFBD177
:10211000704700002DE9FF5F82B00021DDE9043047
:10212000020DDDF840B0034318D044F61050A2F27F
:10213000FF3242431514119801281FD0A5EB0B0064
:10214000401C5FEA000A4FF000064E4FDFF838915E
:10215000B046504615D5CAF1000413E01198012489
:102160004AA3012801D16FEA0B010298119AC0E934
:102170000031C0E9024206B0BDE8F09FCBF100009B
:10218000DFE704460021404A491842EB0450CDE9FC
:10219000001012E0E00707D032463B464046494671
:1021A000FEF73BFA8046894632463B4610461946C2
:1021B000FEF733FA06460F466410002CEAD1DDE93B
:1021C0000401DDE90023BAF1000F06DAFEF725FA73
:1021D00042464B46FEF721FA05E0FEF76EF842460E
:1021E0004B46FEF76AF804460E460022284BFEF7DF
:1021F00087FA03D84FF0FF30014607E00022254B55
:1022000020463146FEF762F9FEF7C6F8102409E0D1
:10221000002C0ADB0A220023FDF7EAFF039B303281
:102220001A55641E50EA0102F2D1641C039AC4F1EB
:1022300011031444119A012A03D0012208430DD13D
:102240000AE0084304D000204FF0110B119072E710
:10225000A3EB0B056D1E0DE05B4504DD4FF00002A6
:1022600005F1010504E003DA4FF00002A5F10105D4
:10227000002AECD002981199C0E90231C0E900456A
:1022800079E70000000014400000F03F300000003B
:102290000000F0430000E03F2DE9FF4F95B09B4662
:1022A0008946064600250FE2252877D100242746D7
:1022B000F84A0121059400E0044316F8013F203B51
:1022C00001FA03F01042F7D130782A2811D06FF0CC
:1022D0002F033078A0F13002092A16D8059A44F06D
:1022E000020402EB820203EB42021044761C0590CA
:1022F000EFE759F8042B0592002A03DA504244F420
:102300000054059044F00204761C30782E2816D133
:1023100016F8010F44F004042A280DD06FF02F02A4
:102320003078A0F13003092B09D807EB870302EBC3
:102330004303C718761CF3E759F8047B761C307802
:102340006C280FD006DC4C2817D068280DD06A28DE
:1023500014D104E0742810D07A280FD10DE044F491
:1023600000140AE044F4801401E044F4401472784C
:10237000824202D104F58014761C761C30786628DF
:102380000BD013DC582877D009DC002875D04528FD
:10239000F6D04628F4D047281AD19DE118E06328EA
:1023A00035D0642879D0652812D195E1702873D092
:1023B00008DC6728F1D069286FD06E280DD06F280F
:1023C00006D1B5E073282CD0752875D0782874D044
:1023D0005A46179990476D1C75E1C4F302500228C4
:1023E00009D003280DD0D9F8001004280DD00D60B5
:1023F00009F1040967E1D9F80010EA17C1E90052B0
:10240000F6E7D9F800100D80F2E70D70F0E719F843
:10241000041B8DF8001000208DF80100EA46012011
:1024200003E059F804AB4FF0FF3061074FF00001B3
:1024300002D40DE008F101018846B9420FDA804567
:10244000F8DB1AF808100029F4D108E008F10101BE
:1024500088468142FADB1AF808100029F6D105985F
:102460005B46A0EB080721463846179A00F094FA1D
:10247000284400EB080507E04DE029E10DE01AF8DB
:10248000010B5A4617999047B8F10108F7D25B46FD
:1024900021463846179A13E142E00A220092C4F31B
:1024A00002524FF0000A022A08D059F804CB032A3E
:1024B0004FEAEC710AD00DE029E02AE009F10701AA
:1024C00021F00702F2E802C1914609E00FFA8CFC04
:1024D0004FEAEC71042A03D14FFA8CFC4FEAEC71FD
:1024E000002907DA0A460021DCF1000C61EB020149
:1024F0002D2202E0220504D52B228DF80420012292
:1025000003E0E20701D02022F7E7904659E00A21D4
:1025100002E010220DE010214FF0000A00910BE0C4
:1025200010224FF0000A44F004040827009203E050
:1025300008224FF0000A0092C4F30252022A05D08A
:1025400059F804CB0021032A08D009E009F107015A
:1025500021F00702F2E802C1914605E01FFA8CFC67
:10256000042A01D10CF0FF0C4FF00008220728D5F7
:10257000702806D0009B83F0100353EA0A0305D0AD
:102580000EE040228DF80420012208E05CEA0102FE
:1025900006D030228DF804208DF8050002229046E6
:1025A000009B83F0080353EA0A030AD15CEA0102A4
:1025B00001D1620705D530228DF804204FF00108C3
:1025C0007F1E582804D034A003900EA802900DE07E
:1025D00036A0F9E753466046009AFDF709FE8446A7
:1025E0000398825C0298401E029002705CEA01002F
:1025F000F0D1029806A9081A00F1200A600702D556
:1026000024F4803400E00127574502DDA7EB0A00DF
:1026100000E0002000EB0A01009005984144401AB8
:102620000590E00306D45B462146179A059800F012
:10263000B3F90544002706E001A85A46C05D179982
:1026400090476D1C7F1C4745F6DBE0030CD55B46CD
:102650002146179A059800F09FF9054404E03020C0
:102660005A46179990476D1C0099481E0090002902
:10267000F5DC08E0029802995A460078491C02915C
:10268000179990476D1CBAF10001AAF1010AF1DC1B
:1026900065E1000009280100303132333435363726
:1026A000383961626364656600000000303132339E
:1026B000343536373839414243444546000000003E
:1026C00000F058F90544761C307800287FF4ECAD12
:1026D00019B02846BDE8F08F620700D4062709F13B
:1026E000070222F0070CFCE80223E14603F0004851
:1026F0005FEA080C02D00FF2702C0DE05FEA045C78
:1027000002D50FF2682C07E05FEAC47C02D00FF21A
:10271000602C01E0AFF2700C4FF0FF3823F0004363
:10272000CDF850C065280CD006DC452809D04628D5
:102730001DD047283DD13DE0662818D067287ED1BE
:1027400038E00021112F01DB112000E0781CCDE9D9
:10275000000106A90EA8FFF7DDFCDDE90F010E9AC6
:1027600003910021009207F1010A04914DE04FF01E
:1027700000400097CDE9011006A90EA8FFF7CAFC9A
:10278000DDE90F0203920E9B11990022DDF80CA0E7
:102790000093049211B9791C00EB010AB7EB0A000F
:1027A00004D4C0F1FF3007F1010A0490AAEB07003E
:1027B000019044E0012F00DA01270021112F01DDF3
:1027C000112000E03846CDE9000106A90EA8FFF768
:1027D000A1FCDDE90F010E9A039100210491009202
:1027E000BA4621070CD40399514500DA8A46BAF15A
:1027F000010F05DD009AAAF10101515C302908D0D2
:10280000B84202DA10F1040F06DA0121CDE9011015
:1028100015E0AAF10101E9E7002805DC049901446B
:102820000491AAEB000102E0411C514500DD8A46FB
:102830000499401A401C01904FF00040029020077C
:1028400004D40198504501DBCDF8048000208DF8B8
:102850004F0002980DF14F07B0F1004F25D02B200B
:102860000E9002984FF0020800280CDA40420290C5
:102870002D200E9007E00A210298FDF7A5FD3031CA
:10288000029007F8011DB8F10001A8F10108F2DC7F
:1028900002980028EFD1791E0E980870307800F069
:1028A000200040F0450007F8020D12A8C01B00F1FF
:1028B00007081498007800B1012000EB0A01019884
:1028C00001EBE07105984144401A401E0590E00379
:1028D00006D45B462146179A059800F05DF805443A
:1028E0001498007818B15A46179990476D1CE00368
:1028F00024D55B462146179A059800F04DF805440B
:102900001CE00498002807DBDDE90301884203DDB1
:102910000098405C179901E0179930205A4690477B
:10292000049805F10105401C04900198401E019097
:1029300004D12E205A46179990476D1CBAF1000118
:10294000AAF1010ADDDC05E017F8010B5A461799D8
:1029500090476D1CB8F10001A8F10108F4DC5B465A
:102960002146179A0598ABE62D0000002B000000C9
:10297000200000002DE9F041044600251E461746C0
:10298000880404D405E039462020B0476D1C641E3D
:10299000F9D52846BDE8F0812DE9F041044600252F
:1029A0001E469046C80301D5302700E02027880442
:1029B00004D505E041463846B0476D1C641EF9D584
:1029C0002846BDE8F0810A68531C0B601070704700
:1029D00000B587B00020ADF8080006A005900748B4
:1029E00001904FF40070049001A90548FEF7D2FE53
:1029F00007B000BD7461736B31000000D53E000864
:102A00000000002000B587B00120ADF8080006A046
:102A10000590074801904FF40070049001A9054803
:102A2000FEF7B8FE07B000BD7461736B32000000A2
:102A3000193F0008000000201CB5FEF725F8FFF73D
:102A40008BF9FFF7B5F8002000900346024601908D
:102A50004FF4E1310120FFF7F3FA0FA0FDF78EFEEE
:102A6000FEF764FC08B101201CBD12A0FDF786FE34
:102A7000FFF7AEFF08B101201CBD13A0FDF77EFEDD
:102A8000FFF7C0FF08B101201CBD14A0FDF776FEC2
:102A9000FEF760FE00201CBDBBB6D3ADBDF8C8EB91
:102AA0002D4C6974654F53CAB5D1E9C6BDCCA8A3F6
:102AB000A10D0A004C4F535F4B65726E656C496EF9
:102AC0006974A3A10D0A000063726561745F74618B
:102AD000736B312829A3A10D0A00000063726561A0
:102AE000745F7461736B322829A3A10D0A00000082
:102AF00010B586B00446142101A8FDF7D3FB01A947
:102B0000204600F0B7F906B010BD4A0900EB82027A
:102B1000121D0068884206D901F01F0301211068C8
:102B2000994088431060704730B502C81F314B0987
:102B30000022002107E00468641C02D00468E3431B
:102B400008E0491C001D9942F5D34FF0FF3030BD1D
:102B50005B08521C002BFBD1531E01259D402C43CA
:102B6000046002EB4110401E30BD02688A4201D869
:102B7000002070474A0900EB820001F01F02406804
:102B8000012191400840F4D00120704770B50546FE
:102B90000C462C6004F11F00C108281DFDF782FBC4
:102BA000E00608D004F01F014FF0FF3088406109B3
:102BB00005EB8101486070BD2DE9F04106460D46E8
:102BC0000024A046002E07D0FDF7D0FA0746ED1CE2
:102BD00025F00305706813E00020BDE8F08141682E
:102BE0004A000CD421F04041A94208D324B16268C4
:102BF00022F040428A4202D90446A94220D000680D
:102C00000028ECD1F4B3606820F04040401B082855
:102C100016D962190832506820F08040506061680F
:102C2000491B083961F31D0050601460214630468D
:102C300000F015F938B30260606865F31D0060604C
:102C4000606820F0004040F08040606004F10808B7
:102C500013498868284408308860CA68904200D9BF
:102C6000C8600868401C08607068406820F04040F8
:102C7000B0F5806F02D23046FFF73AFF3846FDF7D5
:102C80007DFA01E002E009E04046A6E705A0FDF775
:102C900075FD294605A0FDF771FDE5E77260CBE7FC
:102CA000C80000205B4552525D20000074686572C8
:102CB000652773206E6F7420656E6F756768207767
:102CC000686F6C6520746F20616C6C6F6320257871
:102CD000204279746573210A0000000070B5144623
:102CE000002806D029B1042C03D3621E15461442D5
:102CF00001D0002070BD2144091FFFF75DFF0028AF
:102D0000F8D00119491EA9438842F3D0081A40F0AF
:102D1000004041F8040C084670BD00002DE9F04168
:102D200004460D460126002C18D0BDB155F8040C00
:102D3000002802DA20F000402D1A2068A84203D8AB
:102D400060680830A8420BD22DA0FDF717FD294678
:102D50002DA0FDF713FD0020BDE8F0810120FBE769
:102D6000FDF704FA0746A5F10802506840000ED5A9
:102D7000206890420DD01168814208D36068083005
:102D8000814204D8204600F06AF8904201D0002623
:102D900031E0506820F080405060204D20F04040ED
:102DA00000F10803A9688B4204D8081A0838A86003
:102DB00000E00246106868B141684900F9D509E0B1
:102DC00051680B44083363F31D015160616881420F
:102DD00000D162601146204600F041F810B143680E
:102DE0005900EDD51146204600F039F800B10260D7
:102DF0006868401C68603846FDF7C0F93046ABE7AC
:102E00005B4552525D20000030782578206F757444
:102E1000206F662072616E6765210A00C80000207D
:102E200070B504460E462546002D01D0582E01D817
:102E3000002070BD31462046FDF734FAAE605034B4
:102E40002C606C60606820F0804060600020206032
:102E50006068583E66F31D006060012070BD4068E8
:102E6000884201D100207047486820F04040084463
:102E70000830704730B50023002802D019B14268ED
:102E80000BE0012030BD012030BD5468650003D542
:102E900024F04044234408331268002AF5D18268A4
:102EA0009A4201D2012030BD4B6080680860C01A90
:102EB000886003480268CA6040680861002030BD2D
:102EC000C8000020FEE7000000B587B0182101A867
:102ED000FDF7E8F9084801904FF4A060049007A0BE
:102EE00005901F20ADF8080001A90748FEF752FC25
:102EF0000028FFD107B000BDC52E000849646C65ED
:102F0000436F72653030300050000020EFF30580D1
:102F10007047000002480349091AFEF7F1BA0000A1
:102F2000C8090020005000202DE9F0411148406000
:102F3000006011484FF4B4710068FEF7B1FA0D4D0E
:102F40002D1F286098B1002400262F1D296804EB4E
:102F5000440001EBC0014C6001F8086B3868FEF7D3
:102F600068FA641C0F2CF1D30020BDE8F0810348FF
:102F7000FBE70000A800002014000020001D000254
:102F800070B5D0E900121160D0E900215160002134
:102F900041600160A0F12804084DE088696801EBF8
:102FA000C000FEF765FA002806D0A1794FF0004076
:102FB000C84029688143296070BD000018000020C6
:102FC00070B504460D460C4E706800EBC500FEF768
:102FD0004FFA28B14FF000403168E84008433060B4
:102FE000706800EBC500016848686060216048684F
:102FF00004604C6070BD00001800002010B5002473
:103000004FF4807108480068FEF74AFA07494860A3
:10301000002807D0486800EBC40040600060641CD2
:10302000202CF7D310BD0000140000201800002051
:1030300001460020054A526802EBC102516801E0D6
:10304000401C49688A42FBD17047000018000020EC
:1030500006490868002806D0B0FA80F0496801EBFC
:10306000C000406870470020704700001800002032
:103070002DE9F041044616461F4611F003004FF0BB
:1030800000030BD0012812D003281AD024A0FDF78A
:1030900075FBBDE8F04124A0FDF770BBA089E58871
:1030A000421CAA4201D1A38113E0A28111E0A089B0
:1030B00018B1401EA081A0890BE0E088401EA081CD
:1030C000F9E7E089E588421CAA4201D1E38100E0EA
:1030D000E2812289236800FB0235480708D5C8072A
:1030E00003D030682860BDE8F08128683060FAE7D6
:1030F000C8070AD0314628463A68FDF7BAF8208951
:103100002D1F284439680160EDE7281F104404682A
:10311000294622463046FDF7ACF83C60E3E7000064
:103120005B4552525D200000696E76616C696420D7
:103130007175657565206F7065726174652074794D
:103140007065210A0000000070B513484FF4DC746C
:1031500021460068FEF7A4F9104D2860C8B1214649
:10316000FDF7A0F8281D406000600024064604EB2F
:103170004400296800EBC40001EB80014C811C3144
:103180003068FEF75DF9641CA4B20A2CEFD300206E
:1031900070BD034870BD000014000020B000002086
:1031A000010600022DE9FF5F0446DDF838A00F4656
:1031B0009946002507F00106FCF7D8FF80464D49E7
:1031C00004EB440000EBC400096801EB8004A08814
:1031D00010B1F80702D00AE0474D85E02089D9F800
:1031E0000010001F814202D2434D15357CE0F807E4
:1031F00008D02089D9F80010001F814202D93E4D25
:103200000B3571E004EB4601088AE8B1401E0882E4
:103210004B4639462046029AFFF72AFFEEB30020BC
:1032200004EBC0001430FEF731F9B8B3002E54D0CF
:103230004FF0000004EB4000008A00F1010081B271
:103240004ED14FF001004CE0BAF1000F05D02B48F1
:10325000008850B1284D2D1F46E0F80702D0264DBA
:103260000C3541E0244D13353EE02548D0F800B040
:1032700004EBC600143052464FF4005100F012FD2A
:103280004046FCF77BFFFEF745FAFCF76FFF8046F0
:10329000BBF804004106BBD501E007E008E020F0E0
:1032A0004000ABF80400144DED1E1DE00120B7E70F
:1032B0008EB1002004EBC000806928384FF4005123
:1032C00000F016FD4046FCF759FFFEF723FA0020F8
:1032D00004B0BDE8F09F0120ECE74FF00100A9E742
:1032E000002004EB400001824046FCF747FF2846DF
:1032F000EEE70000B00000200A0600023C000020BB
:103300005C00002010B50A2801D30A4810BD49B15D
:1033100042B1106848B15BB1FFF7F8FD40B1054814
:103320000A3010BD0348401C10BD0248801C10BD6F
:10333000002010BD0E06000210B50A2801D30A486D
:1033400010BD41B1106848B15BB1FFF7DFFD40B17E
:103350000548401F10BD0448001D10BD0248401D17
:1033600010BD002010BD00000E0600020149102013
:10337000086070474C000020FCF703BF2DE9F041C6
:1033800010484060006010484FF4A0710068FEF7DC
:1033900087F80C4D2D1F286090B1002400262F1DAA
:1033A000286800EB0411CC8021F8086B3868FEF720
:1033B0004EF8641CA4B2142CF2D30020BDE8F081B6
:1033C0000248FBE7C00000201400002000070002B4
:1033D00010B50446A068FFF7A7FB002801DA00201B
:1033E00010BDD4E9002102FB001010BD10B503464A
:1033F0005868081A1A68B0FBF2F4B0FBF2F102FB4D
:10340000110000280DD198680168A14209D9214610
:10341000FFF7ABFB28B121469868FFF776FB012048
:1034200010BD002010BD2DE9F0410D461F4607F1EB
:103430001F01042303EBD1018E18761E541EA643F0
:1034400015446D1EA54305FB07F131440C31FFF710
:10345000B3FB044644B1256004F10C00A06081195F
:1034600061603946FFF792FB2046BDE8F0814DF6DA
:10347000DE62028081700021C170001D7047103033
:10348000704770B50E46FFF7FAFF05460024802E00
:1034900001D9002070BD05EB04100068B04225D3AF
:1034A000FCF764FE064605EB0414D4E901108842DB
:1034B00004D33046FCF762FE002070BDE06880B1A6
:1034C000FFF786FF05463DB128462168FFF7CFFF8D
:1034D0000546A068401CA0603046FCF74FFE284619
:1034E00070BD3046FCF74AFE002070BD641C042C01
:1034F000D1D3002070BD2DE9F0410D46FFF7BFFF8D
:103500000646002700242D1F2888A0F55E41DE39DD
:1035100002D00020BDE8F081A87806EB041109680C
:10352000884213D8FCF722FE804606EB0414294695
:10353000E068FFF75BFF012803D10127A068401E68
:10354000A0604046FCF71AFE3846E3E7641C042CF2
:10355000E3D30020DEE72DE9F05F83465846FFF70E
:103560008EFF074600240025A1464FF010084FF4B7
:10357000007A08FA04F1BAFBF1F307EB04163160A4
:103580007360C6F80890F06808B16D1C05E004226D
:10359000091D5846FFF747FFF060641C042CE8D370
:1035A00015B10020BDE8F09F0120FBE7F8B54021F0
:1035B0001B48FCF777FE1B4D0027AF614FF4E0710D
:1035C0000E4619480068FDF76BFF0446ECB1314622
:1035D0002046FCF767FE2C616C61278121461C3474
:1035E000012020810C602146401C80B21C34102830
:1035F000F7D308200B4A002300900C321021184604
:10360000FDF7FAFF20B10948F8BD0848001FF8BDD2
:1036100000F0F0F810B10548401CF8BD0020F8BDDE
:10362000E000002020000020140000200B03000216
:103630002DE9F04F0024671EBC464FF01008C1462C
:1036400000260169C160017A01F00F05DFF860B161
:10365000584A4FF0030E5BF82510D2F818A0BEEBC5
:10366000517F62D141F000414BF8251021F07F429B
:1036700000234F4951F823B02BF07F4131B3AB42C7
:1036800024D0BEEB9B7F21D1914206D3B1FBF2FB4C
:1036900002FB1B1BBBF1000F09D0914216D2B2FBFB
:1036A000F1FB01FB1B2BBBF1000F08D00EE0B1FBBF
:1036B000F2FBBB450AD2B1FBF2F7984606E0B2FB3B
:1036C000F1FBE34502D2B2FBF1FC99465B1C9BB2D5
:1036D000102BCED33749B8F1100F0A6919D05146D3
:1036E000C8EBC80302EB830206E0CB681E440B89DB
:1036F0001589AB4202D009680029F6D1A9B309693E
:103700008A1B0169B2FBF1F301FB1322891AC16024
:1037100036E0B9F1100F33D00021C160C9EBC90107
:1037200002EB8104D4F800A02DE00222B2EB517F1D
:1037300026D141F000414BF8251051460CE00A69B2
:1037400003699A4207D10A7A02F00F025BF822203D
:10375000BEEB927F02D009680029F0D129B1002286
:10376000C2600C46D1F800A00DE009E0DAF80C10B8
:10377000C268914207D8511AC1605446DAF800A0D5
:10378000BAF1000FF2D1C0F800A0BAF1000F05D0D5
:10379000DAF80C10C268891ACAF80C1024B120603B
:1037A00002210171BDE8F08F02498861F8E700004D
:1037B000E0000020200000200EB5082000900C4DF5
:1037C0004FF0FF3633466A4601A9E868FDF776FFF9
:1037D0000028F7D100980828F4D101980028F1D0EA
:1037E000FEF7E0F9DDE901108847FEF7DBF9E9E7CC
:1037F0002000002000B587B0182101A8FCF752FD79
:10380000074801904FF48050049006A005900020D6
:10381000ADF8080001A90648FDF7BCFF07B000BDE0
:10382000B93700085377745F5461736B0000000070
:10383000540000207CB5194DAC6928E02068A861CF
:10384000A069009060690190002308226946E86839
:10385000FDF749FF607920B1012811D0022813D06B
:1038600014E0204600F01CF820894FF6E0718842F1
:1038700002D21030208109E000F00F00208105E025
:103880002046FFF7D5FE01E001202071AC69002C35
:1038900002D0E0680028D1D07CBD000020000020CC
:1038A00006494A690260486100210171007A044AB0
:1038B00000F00F0042F820107047000020000020A8
:1038C000E000002010B506488069002805D0C168D6
:1038D000491EC16001D1FFF7ADFF002010BD0000FF
:1038E00020000020F0B4024601F01F034809002B1D
:1038F00000D1401E916B01F0784101431B4C2079AF
:10390000184400F01F0060F3DF619163216801EB50
:10391000C00302F130015868984203D1F0BC184648
:10392000FDF7BBBD3038946B866B24F0784726F0EA
:103930007845BD420BD87D1B04F078442543956340
:10394000406B303800F130049C42ECD10AE0836BCC
:10395000926B23F0784322F078429A1A06F078436B
:103960001A438263F0BC3030FDF797BD7C00002025
:1039700070B5094DC0EBC00000EB4000E96801EBF9
:1039800080046169206A8847002028802069BDE89A
:103990007040FEF725B800003C00002072B6FEE73C
:1039A0002DE9F041334D54202C69641C4443324EC0
:1039B00021463068FDF774FDE860304F002854D090
:1039C0002146FCF76FFC05F12800406000600830DC
:1039D0004060006008304060006000244FF0010843
:1039E000C4EBC400E96800EB400001EB8001A1F8E2
:1039F00004800C611F4828313030FDF74EFD641CF7
:103A00000F2CEDD94FF00008C5F824802869E9682B
:103A1000C0EBC00000EB400001EB800015492031F5
:103A2000086004610A681120908009682020C8801D
:103A3000FFF7E4FA4FF480710D463068FDF730FD72
:103A40000446200013D02946FCF72CFC09484030DE
:103A50000460A0F80480002064602460401C0834E6
:103A60002028F9D30020BDE8F0813846FBE738462E
:103A7000F9E700003C0000201400002000020003D1
:103A800010B54FF4AB710648FCF70CFC04490A2052
:103A900048700548034941600021816010BD000065
:103AA00020010020693B00083C0000202DE9F04186
:103AB00000272C490879401C00F01F008880096805
:103AC00001EBC0067468B44249D0303C3DE0A588A3
:103AD000A06B400103D0A06B401EA06339E004F14D
:103AE0003000FDF7BBFC28070BD5A08820F00800AC
:103AF000A08004F12800FDF7B1FC0020A061E06186
:103B000015E0680504D5A08820F48060A0800EE050
:103B1000A80408D504F12800FDF7A0FCA08820F433
:103B20000050A08003E0A08820F02000A080A8071B
:103B300009D4A08840F00400A080E18804F12800A6
:103B4000FFF73EFA01277468303C04F13000B042C0
:103B5000BDD1002F03D0BDE8F041FDF7DBBDBDE8CE
:103B6000F08100007C00002010B52A4C2068C0685D
:103B70000068B0F1CC3F08D027A0FCF7FFFD20681B
:103B80000269416A26A0FCF7F9FD6068C268016815
:103B9000914203D980681044884211D21EA0FCF7DC
:103BA000EDFD60680269416A27A0FCF7E7FD1AA0F5
:103BB000FCF7E4FD6068C26801682CA0FCF7DEFD3C
:103BC0006068374C018A227804EB42025180416AD6
:103BD0002078202204EB40101630FCF74AFB2078B6
:103BE000002104EB401080F835102078401CC0B252
:103BF00020700A2804D12170607840F08000607045
:103C0000044820388068002802D0BDE810400047F2
:103C100010BD00005C0000205B4552525D2000009A
:103C200043555252454E54207461736B2049443AB7
:103C30002025733A256420737461636B206F766569
:103C400072666C6F77210A004849474845535420F3
:103C50007461736B2049443A2025733A25642053DC
:103C600050206572726F72210A000000484947486F
:103C7000455354207461736B20537461636B506FB0
:103C8000696E7465723A203078257820546F704FD1
:103C900066537461636B3A20307825780A0000001F
:103CA000200100202DE9F04107460E4615460F4839
:103CB000046804F128008046FFF762F9A08820F02C
:103CC000040041463043A0803846FDF7E6FB681CFF
:103CD00009D0A08840F04000A08029462046BDE8D9
:103CE000F041FFF7FFBDBDE8F08100005C0000205F
:103CF00070B504460D4604F128000646FDF7AEFBFC
:103D0000A088A843A080400606D5204600F062F8AF
:103D1000A08820F04000A080A088810708D440F04F
:103D20000400A080E1883046BDE87040FFF748B944
:103D300070BD000010B50848D0E902134A1C43F1D9
:103D40000001C0E9022100F05FF8FFF7AFFEBDE817
:103D50001040FFF7B7BD00008800002010B51748DD
:103D60000068002803D04FF47A72904201D21448C0
:103D700010BDB0FBF2F1134B1960134900240C6025
:103D80004C60B0FBF2F0401EB0F1807F01D3012007
:103D90000AE04FF0E02148610C4AF020107000204A
:103DA0008861072008610020012804D0084901200B
:103DB0000860002010BD0248801C10BD10000020CB
:103DC00000040002980000209000002023ED00E095
:103DD0008400002030B4826BD10E0A4B1B6803EBC9
:103DE000C103416B994209D08B6822F0784223F0DD
:103DF0007844224403F078431A438A6030BC303060
:103E0000FDF72CBB7C0000200B480A4A01680B48D8
:103E1000136800688B4204D01160D388411E194496
:103E20009180918880B2814203D100201060FDF71B
:103E300081BE70479C0000205C00002090000020A4
:103E40000248002101600A21C18070479C000020C7
:103E500070B506460D4614464FF0CA322946204634
:103E6000FCF719FA4FF0CC302060601944384FF05D
:103E7000043101604FF0053141604FF0063181603F
:103E80004FF00731C1604FF0083101614FF0093147
:103E900041614FF0103181614FF01131C16100215A
:103EA000016246624FF0013181624900C1624FF008
:103EB000033101634FF012314163044981630449C6
:103EC000C1634FF08071016470BD00009D3900082E
:103ED000713900080124084E4FF47A75214607A075
:103EE000FCF74CFC2846FDF745FD02213046FCF767
:103EF000BAFD641CF2E700000010014054686973C9
:103F0000206973207461736B312C636F756E74203C
:103F100069732025640D0A000124084E4FF4FA65E8
:103F2000214607A0FCF72AFC2846FDF723FD0121C6
:103F30003046FCF798FD641CF2E7000000100140D9
:103F400054686973206973207461736B322C636FDA
:103F5000756E742069732025640D0A00000000004E
:103F60000000000001020304060708090000000029
:103F700001020304943F000800000020E00000005C
:103F8000F420000874400008E0000020E808000069
:103F900004210008000000000100000010000000E3
:103FA0000000000000A24A04000000000000000021
:103FB0000000000000000000000000000000000001
:103FC00000000000000000000000000000000000F1
:103FD00000000000000000000000000000000000E1
:103FE00000000000000000000000000000000000D1
:103FF00000000000000000000000000000000000C1
:1040000000000000000000000000000000000000B0
:1040100000000000000000000000000000000000A0
:104020000000000000000000000000000000000090
:104030000000000000000000000000000000000080
:104040000000000000000000000000000000000070
:104050000000000000000000000000000000000060
:104060000000000000000000000000000000000050
:04407000000000004C
:04000005080000ED02
:00000001FF
