Component: ARM Compiler 5.06 update 5 (build 528) Tool: armlink [4d35e2]

==============================================================================

Section Cross References

    startup_stm32f103xb.o(RESET) refers to startup_stm32f103xb.o(STACK) for __initial_sp
    startup_stm32f103xb.o(RESET) refers to startup_stm32f103xb.o(.text) for Reset_Handler
    startup_stm32f103xb.o(RESET) refers to stm32f1xx_it.o(i.NMI_Handler) for NMI_Handler
    startup_stm32f103xb.o(RESET) refers to stm32f1xx_it.o(i.HardFault_Handler) for HardFault_Handler
    startup_stm32f103xb.o(RESET) refers to stm32f1xx_it.o(i.MemManage_Handler) for MemManage_Handler
    startup_stm32f103xb.o(RESET) refers to stm32f1xx_it.o(i.BusFault_Handler) for BusFault_Handler
    startup_stm32f103xb.o(RESET) refers to stm32f1xx_it.o(i.UsageFault_Handler) for UsageFault_Handler
    startup_stm32f103xb.o(RESET) refers to stm32f1xx_it.o(i.SVC_Handler) for SVC_Handler
    startup_stm32f103xb.o(RESET) refers to stm32f1xx_it.o(i.DebugMon_Handler) for DebugMon_Handler
    startup_stm32f103xb.o(RESET) refers to los_dispatch_keil.o(.text) for PendSV_Handler
    startup_stm32f103xb.o(RESET) refers to los_hwi.o(i.SysTick_Handler) for SysTick_Handler
    startup_stm32f103xb.o(RESET) refers to stm32f1xx_it.o(i.EXTI0_IRQHandler) for EXTI0_IRQHandler
    startup_stm32f103xb.o(RESET) refers to stm32f1xx_it.o(i.EXTI9_5_IRQHandler) for EXTI9_5_IRQHandler
    startup_stm32f103xb.o(RESET) refers to uart_msp.o(i.USART1_IRQHandler) for USART1_IRQHandler
    startup_stm32f103xb.o(.text) refers to system_stm32f1xx.o(i.SystemInit) for SystemInit
    startup_stm32f103xb.o(.text) refers to entry.o(.ARM.Collect$$$$00000000) for __main
    main.o(i.HAL_GPIO_EXTI_Callback) refers to stm32f1xx_hal.o(i.HAL_Delay) for HAL_Delay
    main.o(i.HAL_GPIO_EXTI_Callback) refers to stm32f1xx_hal_gpio.o(i.HAL_GPIO_ReadPin) for HAL_GPIO_ReadPin
==============================================================================

Removing Unused input sections from the image.

    Removing startup_stm32f103xb.o(HEAP), (512 bytes).
    Removing main.o(.rev16_text), (4 bytes).
    Removing main.o(.revsh_text), (4 bytes).
    Removing main.o(.rrx_text), (6 bytes).
    Removing stm32f1xx_it.o(.rev16_text), (4 bytes).
    Removing stm32f1xx_it.o(.revsh_text), (4 bytes).
    Removing stm32f1xx_it.o(.rrx_text), (6 bytes).
    Removing stm32f1xx_it.o(i.PendSV_Handler), (2 bytes).
    Removing stm32f1xx_it.o(i.SysTick_Handler), (4 bytes).
    Removing stm32f1xx_hal_msp.o(.rev16_text), (4 bytes).
    Removing stm32f1xx_hal_msp.o(.revsh_text), (4 bytes).
    Removing stm32f1xx_hal_msp.o(.rrx_text), (6 bytes).
    Removing stm32f1xx_hal_gpio_ex.o(.rev16_text), (4 bytes).
    Removing stm32f1xx_hal_gpio_ex.o(.revsh_text), (4 bytes).
    Removing stm32f1xx_hal_gpio_ex.o(.rrx_text), (6 bytes).
    Removing stm32f1xx_hal_gpio_ex.o(i.HAL_GPIOEx_ConfigEventout), (20 bytes).
    Removing stm32f1xx_hal_gpio_ex.o(i.HAL_GPIOEx_DisableEventout), (16 bytes).
    Removing stm32f1xx_hal_gpio_ex.o(i.HAL_GPIOEx_EnableEventout), (16 bytes).
==============================================================================

Image Symbol Table

    Local Symbols

    Symbol Name                              Value     Ov Type        Size  Object(Section)

    ../Drivers/STM32F1xx_HAL_Driver/Src/stm32f1xx_hal.c 0x00000000   Number         0  stm32f1xx_hal.o ABSOLUTE
    ../Drivers/STM32F1xx_HAL_Driver/Src/stm32f1xx_hal_cortex.c 0x00000000   Number         0  stm32f1xx_hal_cortex.o ABSOLUTE
    ../Drivers/STM32F1xx_HAL_Driver/Src/stm32f1xx_hal_dma.c 0x00000000   Number         0  stm32f1xx_hal_dma.o ABSOLUTE
    ../Drivers/STM32F1xx_HAL_Driver/Src/stm32f1xx_hal_flash.c 0x00000000   Number         0  stm32f1xx_hal_flash.o ABSOLUTE
    ../Drivers/STM32F1xx_HAL_Driver/Src/stm32f1xx_hal_flash_ex.c 0x00000000   Number         0  stm32f1xx_hal_flash_ex.o ABSOLUTE
    ../Drivers/STM32F1xx_HAL_Driver/Src/stm32f1xx_hal_gpio.c 0x00000000   Number         0  stm32f1xx_hal_gpio.o ABSOLUTE
    ../Drivers/STM32F1xx_HAL_Driver/Src/stm32f1xx_hal_gpio_ex.c 0x00000000   Number         0  stm32f1xx_hal_gpio_ex.o ABSOLUTE
    ../Drivers/STM32F1xx_HAL_Driver/Src/stm32f1xx_hal_pwr.c 0x00000000   Number         0  stm32f1xx_hal_pwr.o ABSOLUTE
    ../Drivers/STM32F1xx_HAL_Driver/Src/stm32f1xx_hal_rcc.c 0x00000000   Number         0  stm32f1xx_hal_rcc.o ABSOLUTE
    ../Drivers/STM32F1xx_HAL_Driver/Src/stm32f1xx_hal_rcc_ex.c 0x00000000   Number         0  stm32f1xx_hal_rcc_ex.o ABSOLUTE
    ../Drivers/STM32F1xx_HAL_Driver/Src/stm32f1xx_hal_tim.c 0x00000000   Number         0  stm32f1xx_hal_tim.o ABSOLUTE
    ../Drivers/STM32F1xx_HAL_Driver/Src/stm32f1xx_hal_tim_ex.c 0x00000000   Number         0  stm32f1xx_hal_tim_ex.o ABSOLUTE
    ../Src/main.c                            0x00000000   Number         0  main.o ABSOLUTE
    ../Src/stm32f1xx_hal_msp.c               0x00000000   Number         0  stm32f1xx_hal_msp.o ABSOLUTE
    ../Src/stm32f1xx_it.c                    0x00000000   Number         0  stm32f1xx_it.o ABSOLUTE
    ../Src/system_stm32f1xx.c                0x00000000   Number         0  system_stm32f1xx.o ABSOLUTE
    ../clib/microlib/division.c              0x00000000   Number         0  uldiv.o ABSOLUTE
    ../clib/microlib/division.c              0x00000000   Number         0  uidiv.o ABSOLUTE
    ../clib/microlib/init/entry.s            0x00000000   Number         0  entry8b.o ABSOLUTE
    ../clib/microlib/init/entry.s            0x00000000   Number         0  entry7a.o ABSOLUTE
    ../clib/microlib/init/entry.s            0x00000000   Number         0  entry11b.o ABSOLUTE
    ../clib/microlib/init/entry.s            0x00000000   Number         0  entry11a.o ABSOLUTE
    ../clib/microlib/init/entry.s            0x00000000   Number         0  entry7b.o ABSOLUTE
    ../clib/microlib/init/entry.s            0x00000000   Number         0  entry10b.o ABSOLUTE
    ../clib/microlib/init/entry.s            0x00000000   Number         0  entry5.o ABSOLUTE
    ../clib/microlib/init/entry.s            0x00000000   Number         0  entry10a.o ABSOLUTE
    ../clib/microlib/init/entry.s            0x00000000   Number         0  entry.o ABSOLUTE
    ../clib/microlib/init/entry.s            0x00000000   Number         0  entry9b.o ABSOLUTE
    ../clib/microlib/init/entry.s            0x00000000   Number         0  entry9a.o ABSOLUTE
    ../clib/microlib/init/entry.s            0x00000000   Number         0  entry2.o ABSOLUTE
    ../clib/microlib/init/entry.s            0x00000000   Number         0  entry8a.o ABSOLUTE
    ../clib/microlib/longlong.c              0x00000000   Number         0  llsshr.o ABSOLUTE
    ../clib/microlib/longlong.c              0x00000000   Number         0  llshl.o ABSOLUTE
    ../clib/microlib/longlong.c              0x00000000   Number         0  llushr.o ABSOLUTE
    ../clib/microlib/printf/printf.c         0x00000000   Number         0  printfa.o ABSOLUTE
    ../clib/microlib/stdio/fputc.c           0x00000000   Number         0  fputc.o ABSOLUTE
    ../clib/microlib/stdio/semi.s            0x00000000   Number         0  semi.o ABSOLUTE
    ../clib/microlib/stdio/streams.c         0x00000000   Number         0  stdout.o ABSOLUTE
    ../clib/microlib/string/memcpy.c         0x00000000   Number         0  memcpyb.o ABSOLUTE
    ../clib/microlib/string/memcpy.c         0x00000000   Number         0  memcpya.o ABSOLUTE
    ../clib/microlib/string/memset.c         0x00000000   Number         0  memseta.o ABSOLUTE
    ../clib/microlib/string/strncpy.c        0x00000000   Number         0  strncpy.o ABSOLUTE
    ../clib/microlib/stubs.s                 0x00000000   Number         0  iusesemip.o ABSOLUTE
    ../clib/microlib/stubs.s                 0x00000000   Number         0  iusefp.o ABSOLUTE
    ../fplib/microlib/fpadd.c                0x00000000   Number         0  dadd.o ABSOLUTE
    ../fplib/microlib/fpdiv.c                0x00000000   Number         0  ddiv.o ABSOLUTE
    ../fplib/microlib/fpepilogue.c           0x00000000   Number         0  depilogue.o ABSOLUTE
    ../fplib/microlib/fpfix.c                0x00000000   Number         0  dfixul.o ABSOLUTE
    ../fplib/microlib/fpflt.c                0x00000000   Number         0  dfltul.o ABSOLUTE
    ../fplib/microlib/fpflt.c                0x00000000   Number         0  dfltui.o ABSOLUTE
    ../fplib/microlib/fpmul.c                0x00000000   Number         0  dmul.o ABSOLUTE
    ..\Drivers\STM32F1xx_HAL_Driver\Src\stm32f1xx_hal.c 0x00000000   Number         0  stm32f1xx_hal.o ABSOLUTE
    ..\Drivers\STM32F1xx_HAL_Driver\Src\stm32f1xx_hal_cortex.c 0x00000000   Number         0  stm32f1xx_hal_cortex.o ABSOLUTE
    ..\Drivers\STM32F1xx_HAL_Driver\Src\stm32f1xx_hal_dma.c 0x00000000   Number         0  stm32f1xx_hal_dma.o ABSOLUTE
    ..\Drivers\STM32F1xx_HAL_Driver\Src\stm32f1xx_hal_flash.c 0x00000000   Number         0  stm32f1xx_hal_flash.o ABSOLUTE
    ..\Drivers\STM32F1xx_HAL_Driver\Src\stm32f1xx_hal_flash_ex.c 0x00000000   Number         0  stm32f1xx_hal_flash_ex.o ABSOLUTE
    ..\Drivers\STM32F1xx_HAL_Driver\Src\stm32f1xx_hal_gpio.c 0x00000000   Number         0  stm32f1xx_hal_gpio.o ABSOLUTE
    ..\Drivers\STM32F1xx_HAL_Driver\Src\stm32f1xx_hal_gpio_ex.c 0x00000000   Number         0  stm32f1xx_hal_gpio_ex.o ABSOLUTE
    ..\Drivers\STM32F1xx_HAL_Driver\Src\stm32f1xx_hal_pwr.c 0x00000000   Number         0  stm32f1xx_hal_pwr.o ABSOLUTE
    ..\Drivers\STM32F1xx_HAL_Driver\Src\stm32f1xx_hal_rcc.c 0x00000000   Number         0  stm32f1xx_hal_rcc.o ABSOLUTE
    ..\Drivers\STM32F1xx_HAL_Driver\Src\stm32f1xx_hal_rcc_ex.c 0x00000000   Number         0  stm32f1xx_hal_rcc_ex.o ABSOLUTE
    ..\Drivers\STM32F1xx_HAL_Driver\Src\stm32f1xx_hal_tim.c 0x00000000   Number         0  stm32f1xx_hal_tim.o ABSOLUTE
    ..\Drivers\STM32F1xx_HAL_Driver\Src\stm32f1xx_hal_tim_ex.c 0x00000000   Number         0  stm32f1xx_hal_tim_ex.o ABSOLUTE
    ..\Drivers\STM32F1xx_HAL_Driver\Src\stm32f1xx_hal_uart.c 0x00000000   Number         0  stm32f1xx_hal_uart.o ABSOLUTE
    ..\Drivers\STM32F1xx_HAL_Driver\Src\stm32f1xx_ll_usart.c 0x00000000   Number         0  stm32f1xx_ll_usart.o ABSOLUTE
    ..\Middlewares\arch\arm\arm-m\cortex-m3\keil\los_dispatch_keil.S 0x00000000   Number         0  los_dispatch_keil.o ABSOLUTE
    ..\Middlewares\arch\arm\arm-m\src\los_hw.c 0x00000000   Number         0  los_hw.o ABSOLUTE
    ..\Middlewares\arch\arm\arm-m\src\los_hw_tick.c 0x00000000   Number         0  los_hw_tick.o ABSOLUTE
    ..\Middlewares\arch\arm\arm-m\src\los_hwi.c 0x00000000   Number         0  los_hwi.o ABSOLUTE
    ..\Middlewares\kernel\base\core\los_priqueue.c 0x00000000   Number         0  los_priqueue.o ABSOLUTE
    ..\Middlewares\kernel\base\core\los_swtmr.c 0x00000000   Number         0  los_swtmr.o ABSOLUTE
    ..\Middlewares\kernel\base\core\los_sys.c 0x00000000   Number         0  los_sys.o ABSOLUTE
    ..\Middlewares\kernel\base\core\los_task.c 0x00000000   Number         0  los_task.o ABSOLUTE
    ..\Middlewares\kernel\base\core\los_tick.c 0x00000000   Number         0  los_tick.o ABSOLUTE
    ..\Middlewares\kernel\base\core\los_timeslice.c 0x00000000   Number         0  los_timeslice.o ABSOLUTE
    ..\Middlewares\kernel\base\ipc\los_event.c 0x00000000   Number         0  los_event.o ABSOLUTE
    ..\Middlewares\kernel\base\ipc\los_mux.c 0x00000000   Number         0  los_mux.o ABSOLUTE
    ..\Middlewares\kernel\base\ipc\los_queue.c 0x00000000   Number         0  los_queue.o ABSOLUTE
    ..\Middlewares\kernel\base\ipc\los_sem.c 0x00000000   Number         0  los_sem.o ABSOLUTE
    ..\Middlewares\kernel\base\mem\bestfit_little\los_heap.c 0x00000000   Number         0  los_heap.o ABSOLUTE
    ..\Middlewares\kernel\base\mem\bestfit_little\los_memory.c 0x00000000   Number         0  los_memory.o ABSOLUTE
    ..\Middlewares\kernel\base\mem\common\los_memcheck.c 0x00000000   Number         0  los_memcheck.o ABSOLUTE
    ..\Middlewares\kernel\base\mem\common\los_memstat.c 0x00000000   Number         0  los_memstat.o ABSOLUTE
    ..\Middlewares\kernel\base\mem\common\los_slab.c 0x00000000   Number         0  los_slab.o ABSOLUTE
    ..\Middlewares\kernel\base\mem\common\los_slabmem.c 0x00000000   Number         0  los_slabmem.o ABSOLUTE
    ..\Middlewares\kernel\base\mem\membox\los_membox.c 0x00000000   Number         0  los_membox.o ABSOLUTE
    ..\Middlewares\kernel\base\misc\los_misc.c 0x00000000   Number         0  los_misc.o ABSOLUTE
    ..\Middlewares\kernel\base\om\los_err.c  0x00000000   Number         0  los_err.o ABSOLUTE
    ..\Middlewares\kernel\extended\tickless\los_tickless.c 0x00000000   Number         0  los_tickless.o ABSOLUTE
    ..\Middlewares\kernel\los_init.c         0x00000000   Number         0  los_init.o ABSOLUTE
    ..\Src\Debug.c                           0x00000000   Number         0  debug.o ABSOLUTE
    ..\Src\Queue.c                           0x00000000   Number         0  queue.o ABSOLUTE
    ..\Src\Uart_msp.c                        0x00000000   Number         0  uart_msp.o ABSOLUTE
    ..\Src\main.c                            0x00000000   Number         0  main.o ABSOLUTE
    ..\Src\stm32f1xx_hal_msp.c               0x00000000   Number         0  stm32f1xx_hal_msp.o ABSOLUTE
    ..\Src\stm32f1xx_it.c                    0x00000000   Number         0  stm32f1xx_it.o ABSOLUTE
    ..\Src\system_stm32f1xx.c                0x00000000   Number         0  system_stm32f1xx.o ABSOLUTE
    ..\\Drivers\\STM32F1xx_HAL_Driver\\Src\\stm32f1xx_hal_uart.c 0x00000000   Number         0  stm32f1xx_hal_uart.o ABSOLUTE
    ..\\Middlewares\\arch\\arm\\arm-m\\src\\los_hw.c 0x00000000   Number         0  los_hw.o ABSOLUTE
    ..\\Middlewares\\arch\\arm\\arm-m\\src\\los_hw_tick.c 0x00000000   Number         0  los_hw_tick.o ABSOLUTE
    ..\\Middlewares\\arch\\arm\\arm-m\\src\\los_hwi.c 0x00000000   Number         0  los_hwi.o ABSOLUTE
    ..\\Middlewares\\kernel\\base\\core\\los_priqueue.c 0x00000000   Number         0  los_priqueue.o ABSOLUTE
    ..\\Middlewares\\kernel\\base\\core\\los_swtmr.c 0x00000000   Number         0  los_swtmr.o ABSOLUTE
    ..\\Middlewares\\kernel\\base\\core\\los_sys.c 0x00000000   Number         0  los_sys.o ABSOLUTE
    ..\\Middlewares\\kernel\\base\\core\\los_task.c 0x00000000   Number         0  los_task.o ABSOLUTE
    ..\\Middlewares\\kernel\\base\\core\\los_tick.c 0x00000000   Number         0  los_tick.o ABSOLUTE
    ..\\Middlewares\\kernel\\base\\core\\los_timeslice.c 0x00000000   Number         0  los_timeslice.o ABSOLUTE
    ..\\Middlewares\\kernel\\base\\ipc\\los_event.c 0x00000000   Number         0  los_event.o ABSOLUTE
    ..\\Middlewares\\kernel\\base\\ipc\\los_mux.c 0x00000000   Number         0  los_mux.o ABSOLUTE
    ..\\Middlewares\\kernel\\base\\ipc\\los_queue.c 0x00000000   Number         0  los_queue.o ABSOLUTE
    ..\\Middlewares\\kernel\\base\\ipc\\los_sem.c 0x00000000   Number         0  los_sem.o ABSOLUTE
    ..\\Middlewares\\kernel\\base\\mem\\bestfit_little\\los_heap.c 0x00000000   Number         0  los_heap.o ABSOLUTE
    ..\\Middlewares\\kernel\\base\\mem\\bestfit_little\\los_memory.c 0x00000000   Number         0  los_memory.o ABSOLUTE
    ..\\Middlewares\\kernel\\base\\mem\\common\\los_memcheck.c 0x00000000   Number         0  los_memcheck.o ABSOLUTE
    ..\\Middlewares\\kernel\\base\\mem\\common\\los_memstat.c 0x00000000   Number         0  los_memstat.o ABSOLUTE
    ..\\Middlewares\\kernel\\base\\mem\\common\\los_slab.c 0x00000000   Number         0  los_slab.o ABSOLUTE
    ..\\Middlewares\\kernel\\base\\mem\\common\\los_slabmem.c 0x00000000   Number         0  los_slabmem.o ABSOLUTE
    ..\\Middlewares\\kernel\\base\\mem\\membox\\los_membox.c 0x00000000   Number         0  los_membox.o ABSOLUTE
    ..\\Middlewares\\kernel\\base\\misc\\los_misc.c 0x00000000   Number         0  los_misc.o ABSOLUTE
    ..\\Middlewares\\kernel\\base\\om\\los_err.c 0x00000000   Number         0  los_err.o ABSOLUTE
    ..\\Middlewares\\kernel\\extended\\tickless\\los_tickless.c 0x00000000   Number         0  los_tickless.o ABSOLUTE
    ..\\Middlewares\\kernel\\los_init.c      0x00000000   Number         0  los_init.o ABSOLUTE
    ..\\Src\\Debug.c                         0x00000000   Number         0  debug.o ABSOLUTE
    ..\\Src\\Uart_msp.c                      0x00000000   Number         0  uart_msp.o ABSOLUTE
    cdrcmple.s                               0x00000000   Number         0  cdrcmple.o ABSOLUTE
    dc.s                                     0x00000000   Number         0  dc.o ABSOLUTE
    handlers.s                               0x00000000   Number         0  handlers.o ABSOLUTE
    init.s                                   0x00000000   Number         0  init.o ABSOLUTE
    startup_stm32f103xb.s                    0x00000000   Number         0  startup_stm32f103xb.o ABSOLUTE
    RESET                                    0x08000000   Section      236  startup_stm32f103xb.o(RESET)
    .ARM.Collect$$$$00000000                 0x080000ec   Section        0  entry.o(.ARM.Collect$$$$00000000)
    .ARM.Collect$$$$00000001                 0x080000ec   Section        4  entry2.o(.ARM.Collect$$$$00000001)
    .ARM.Collect$$$$00000004                 0x080000f0   Section        4  entry5.o(.ARM.Collect$$$$00000004)
    .ARM.Collect$$$$00000008                 0x080000f4   Section        0  entry7b.o(.ARM.Collect$$$$00000008)
    .ARM.Collect$$$$0000000A                 0x080000f4   Section        0  entry8b.o(.ARM.Collect$$$$0000000A)
    .ARM.Collect$$$$0000000B                 0x080000f4   Section        8  entry9a.o(.ARM.Collect$$$$0000000B)
    .ARM.Collect$$$$0000000D                 0x080000fc   Section        0  entry10a.o(.ARM.Collect$$$$0000000D)
    .ARM.Collect$$$$0000000F                 0x080000fc   Section        0  entry11a.o(.ARM.Collect$$$$0000000F)
    .ARM.Collect$$$$00002712                 0x080000fc   Section        4  entry2.o(.ARM.Collect$$$$00002712)
    __lit__00000000                          0x080000fc   Data           4  entry2.o(.ARM.Collect$$$$00002712)
    .text                                    0x08000100   Section       36  startup_stm32f103xb.o(.text)
    .text                                    0x08000124   Section      204  los_dispatch_keil.o(.text)
    .text                                    0x080001f0   Section        0  uldiv.o(.text)
    .text                                    0x08000252   Section        0  llushr.o(.text)
    .text                                    0x08000272   Section        0  memcpya.o(.text)
    .text                                    0x08000296   Section        0  memseta.o(.text)
    .text                                    0x080002ba   Section        0  ddiv.o(.text)
    .text                                    0x08000398   Section        0  dfixul.o(.text)
    .text                                    0x080003c8   Section        0  uidiv.o(.text)
    .text                                    0x080003f4   Section        0  llshl.o(.text)
    .text                                    0x08000412   Section        0  iusefp.o(.text)
    .text                                    0x08000412   Section        0  depilogue.o(.text)
    .text                                    0x080004cc   Section        0  dadd.o(.text)
    .text                                    0x0800061a   Section        0  dmul.o(.text)
    .text                                    0x08000700   Section       48  cdrcmple.o(.text)
    .text                                    0x08000730   Section       36  init.o(.text)
    .text                                    0x08000754   Section        0  llsshr.o(.text)
    i.BusFault_Handler                       0x08000778   Section        0  stm32f1xx_it.o(i.BusFault_Handler)
    i.DebugMon_Handler                       0x0800077a   Section        0  stm32f1xx_it.o(i.DebugMon_Handler)
    i.Debug_Printf                           0x0800077c   Section        0  debug.o(i.Debug_Printf)
    i.EXTI0_IRQHandler                       0x080007a4   Section        0  stm32f1xx_it.o(i.EXTI0_IRQHandler)
    i.EXTI9_5_IRQHandler                     0x080007aa   Section        0  stm32f1xx_it.o(i.EXTI9_5_IRQHandler)
    i.Error_Handler                          0x080007c0   Section        0  main.o(i.Error_Handler)
    i.HAL_Delay                              0x080007c4   Section        0  stm32f1xx_hal.o(i.HAL_Delay)
    i.HAL_GPIO_EXTI_Callback                 0x080007e8   Section        0  main.o(i.HAL_GPIO_EXTI_Callback)
    i.HAL_GPIO_EXTI_IRQHandler               0x08000854   Section        0  stm32f1xx_hal_gpio.o(i.HAL_GPIO_EXTI_IRQHandler)
    i.HAL_GPIO_Init                          0x0800086c   Section        0  stm32f1xx_hal_gpio.o(i.HAL_GPIO_Init)
    i.HAL_GPIO_ReadPin                       0x08000a58   Section        0  stm32f1xx_hal_gpio.o(i.HAL_GPIO_ReadPin)
    i.HAL_GPIO_TogglePin                     0x08000a66   Section        0  stm32f1xx_hal_gpio.o(i.HAL_GPIO_TogglePin)
    i.HAL_GPIO_WritePin                      0x08000a6e   Section        0  stm32f1xx_hal_gpio.o(i.HAL_GPIO_WritePin)
    i.HAL_GetTick                            0x08000a7c   Section        0  stm32f1xx_hal.o(i.HAL_GetTick)
    i.HAL_Init                               0x08000a88   Section        0  stm32f1xx_hal.o(i.HAL_Init)
    i.HAL_InitTick                           0x08000aac   Section        0  stm32f1xx_hal.o(i.HAL_InitTick)
    i.HAL_MspInit                            0x08000af0   Section        0  stm32f1xx_hal_msp.o(i.HAL_MspInit)
    i.HAL_NVIC_EnableIRQ                     0x08000b2c   Section        0  stm32f1xx_hal_cortex.o(i.HAL_NVIC_EnableIRQ)
    i.HAL_NVIC_SetPriority                   0x08000b44   Section        0  stm32f1xx_hal_cortex.o(i.HAL_NVIC_SetPriority)
    i.HAL_NVIC_SetPriorityGrouping           0x08000b84   Section        0  stm32f1xx_hal_cortex.o(i.HAL_NVIC_SetPriorityGrouping)
    i.HAL_RCC_ClockConfig                    0x08000ba8   Section        0  stm32f1xx_hal_rcc.o(i.HAL_RCC_ClockConfig)
    i.HAL_RCC_GetHCLKFreq                    0x08000d24   Section        0  stm32f1xx_hal_rcc.o(i.HAL_RCC_GetHCLKFreq)
    i.HAL_RCC_GetPCLK1Freq                   0x08000d30   Section        0  stm32f1xx_hal_rcc.o(i.HAL_RCC_GetPCLK1Freq)
    i.HAL_RCC_GetPCLK2Freq                   0x08000d50   Section        0  stm32f1xx_hal_rcc.o(i.HAL_RCC_GetPCLK2Freq)
    i.HAL_RCC_GetSysClockFreq                0x08000d70   Section        0  stm32f1xx_hal_rcc.o(i.HAL_RCC_GetSysClockFreq)
    i.HAL_RCC_OscConfig                      0x08000de4   Section        0  stm32f1xx_hal_rcc.o(i.HAL_RCC_OscConfig)
    i.HAL_SYSTICK_Config                     0x0800113c   Section        0  stm32f1xx_hal_cortex.o(i.HAL_SYSTICK_Config)
    i.HAL_UART_Init                          0x08001164   Section        0  stm32f1xx_hal_uart.o(i.HAL_UART_Init)
    i.HAL_UART_MspInit                       0x080011c8   Section        0  uart_msp.o(i.HAL_UART_MspInit)
    i.HAL_UART_Transmit                      0x08001248   Section        0  stm32f1xx_hal_uart.o(i.HAL_UART_Transmit)
    i.HardFault_Handler                      0x08001314   Section        0  stm32f1xx_it.o(i.HardFault_Handler)
    i.LOS_Align                              0x08001316   Section        0  los_misc.o(i.LOS_Align)
    i.LOS_KernelInit                         0x0800132c   Section        0  los_init.o(i.LOS_KernelInit)
    i.LOS_ListAdd                            0x08001424   Section        0  los_task.o(i.LOS_ListAdd)
    LOS_ListAdd                              0x08001425   Thumb Code    14  los_task.o(i.LOS_ListAdd)
    i.LOS_ListAdd                            0x08001432   Section        0  los_mux.o(i.LOS_ListAdd)
    LOS_ListAdd                              0x08001433   Thumb Code    14  los_mux.o(i.LOS_ListAdd)
    i.LOS_ListAdd                            0x08001440   Section        0  los_queue.o(i.LOS_ListAdd)
    LOS_ListAdd                              0x08001441   Thumb Code    14  los_queue.o(i.LOS_ListAdd)
    i.LOS_ListAdd                            0x0800144e   Section        0  los_sem.o(i.LOS_ListAdd)
    LOS_ListAdd                              0x0800144f   Thumb Code    14  los_sem.o(i.LOS_ListAdd)
    i.LOS_ListDelete                         0x0800145c   Section        0  los_task.o(i.LOS_ListDelete)
    LOS_ListDelete                           0x0800145d   Thumb Code    20  los_task.o(i.LOS_ListDelete)
    i.LOS_ListEmpty                          0x08001470   Section        0  los_priqueue.o(i.LOS_ListEmpty)
    LOS_ListEmpty                            0x08001471   Thumb Code    14  los_priqueue.o(i.LOS_ListEmpty)
    i.LOS_ListEmpty                          0x0800147e   Section        0  los_task.o(i.LOS_ListEmpty)
    LOS_ListEmpty                            0x0800147f   Thumb Code    14  los_task.o(i.LOS_ListEmpty)
    i.LOS_ListEmpty                          0x0800148c   Section        0  los_queue.o(i.LOS_ListEmpty)
    LOS_ListEmpty                            0x0800148d   Thumb Code    14  los_queue.o(i.LOS_ListEmpty)
    i.LOS_ListTailInsert                     0x0800149a   Section        0  los_task.o(i.LOS_ListTailInsert)
    LOS_ListTailInsert                       0x0800149b   Thumb Code     6  los_task.o(i.LOS_ListTailInsert)
    i.LOS_MemAlloc                           0x080014a0   Section        0  los_memory.o(i.LOS_MemAlloc)
    i.LOS_MemAllocAlign                      0x080014ca   Section        0  los_memory.o(i.LOS_MemAllocAlign)
    i.LOS_MemFree                            0x080014ce   Section        0  los_memory.o(i.LOS_MemFree)
    i.LOS_MemInit                            0x08001500   Section        0  los_memory.o(i.LOS_MemInit)
    i.LOS_QueueCreate                        0x080015f8   Section        0  los_queue.o(i.LOS_QueueCreate)
    i.LOS_QueueReadCopy                      0x080016bc   Section        0  los_queue.o(i.LOS_QueueReadCopy)
    i.LOS_QueueWriteCopy                     0x080016e6   Section        0  los_queue.o(i.LOS_QueueWriteCopy)
    i.LOS_Schedule                           0x08001714   Section        0  los_hw.o(i.LOS_Schedule)
    i.LOS_Start                              0x08001754   Section        0  los_init.o(i.LOS_Start)
    i.LOS_TaskCreate                         0x08001794   Section        0  los_task.o(i.LOS_TaskCreate)
    i.LOS_TaskCreateOnly                     0x08001808   Section        0  los_task.o(i.LOS_TaskCreateOnly)
    i.LOS_TaskDelay                          0x08001974   Section        0  los_task.o(i.LOS_TaskDelay)
    i.LOS_TaskDelete                         0x080019e0   Section        0  los_task.o(i.LOS_TaskDelete)
    i.LOS_TaskYield                          0x08001b34   Section        0  los_task.o(i.LOS_TaskYield)
    i.LOS_TickCountGet                       0x08001ba4   Section        0  los_sys.o(i.LOS_TickCountGet)
    i.MX_GPIO_Init                           0x08001bb0   Section        0  main.o(i.MX_GPIO_Init)
    MX_GPIO_Init                             0x08001bb1   Thumb Code   230  main.o(i.MX_GPIO_Init)
    i.MemManage_Handler                      0x08001cac   Section        0  stm32f1xx_it.o(i.MemManage_Handler)
    i.NMI_Handler                            0x08001cae   Section        0  stm32f1xx_it.o(i.NMI_Handler)
    i.NVIC_SetPriority                       0x08001cb0   Section        0  stm32f1xx_hal_cortex.o(i.NVIC_SetPriority)
    NVIC_SetPriority                         0x08001cb1   Thumb Code    32  stm32f1xx_hal_cortex.o(i.NVIC_SetPriority)
    i.QUEUE_PacketCreate                     0x08001cd0   Section        0  queue.o(i.QUEUE_PacketCreate)
    i.QUEUE_PacketIn                         0x08001cdc   Section        0  queue.o(i.QUEUE_PacketIn)
    i.RCC_Delay                              0x08001d0c   Section        0  stm32f1xx_hal_rcc.o(i.RCC_Delay)
    RCC_Delay                                0x08001d0d   Thumb Code    30  stm32f1xx_hal_rcc.o(i.RCC_Delay)
    i.SVC_Handler                            0x08001d30   Section        0  stm32f1xx_it.o(i.SVC_Handler)
    i.SysTick_Handler                        0x08001d34   Section        0  los_hwi.o(i.SysTick_Handler)
    i.SystemClock_Config                     0x08001d58   Section        0  main.o(i.SystemClock_Config)
    i.SystemInit                             0x08001db0   Section        0  system_stm32f1xx.o(i.SystemInit)
    i.UART_SetConfig                         0x08001df8   Section        0  stm32f1xx_hal_uart.o(i.UART_SetConfig)
    UART_SetConfig                           0x08001df9   Thumb Code   408  stm32f1xx_hal_uart.o(i.UART_SetConfig)
    i.UART_WaitOnFlagUntilTimeout            0x08001f94   Section        0  stm32f1xx_hal_uart.o(i.UART_WaitOnFlagUntilTimeout)
    UART_WaitOnFlagUntilTimeout              0x08001f95   Thumb Code   100  stm32f1xx_hal_uart.o(i.UART_WaitOnFlagUntilTimeout)
    i.USART1_IRQHandler                      0x08001ff8   Section        0  uart_msp.o(i.USART1_IRQHandler)
    i.Uart_Init                              0x08002040   Section        0  uart_msp.o(i.Uart_Init)
    i.Uart_Write                             0x08002098   Section        0  uart_msp.o(i.Uart_Write)
    i.UsageFault_Handler                     0x080020cc   Section        0  stm32f1xx_it.o(i.UsageFault_Handler)
    i.__0vsprintf                            0x080020d0   Section        0  printfa.o(i.__0vsprintf)
    i.__scatterload_copy                     0x080020f4   Section       14  handlers.o(i.__scatterload_copy)
    i.__scatterload_null                     0x08002102   Section        2  handlers.o(i.__scatterload_null)
    i.__scatterload_zeroinit                 0x08002104   Section       14  handlers.o(i.__scatterload_zeroinit)
    i._fp_digits                             0x08002114   Section        0  printfa.o(i._fp_digits)
    _fp_digits                               0x08002115   Thumb Code   366  printfa.o(i._fp_digits)
    i._printf_core                           0x08002298   Section        0  printfa.o(i._printf_core)
    _printf_core                             0x08002299   Thumb Code  1744  printfa.o(i._printf_core)
    i._printf_post_padding                   0x08002974   Section        0  printfa.o(i._printf_post_padding)
    _printf_post_padding                     0x08002975   Thumb Code    36  printfa.o(i._printf_post_padding)
    i._printf_pre_padding                    0x08002998   Section        0  printfa.o(i._printf_pre_padding)
    _printf_pre_padding                      0x08002999   Thumb Code    46  printfa.o(i._printf_pre_padding)
    i._sputc                                 0x080029c6   Section        0  printfa.o(i._sputc)
    _sputc                                   0x080029c7   Thumb Code    10  printfa.o(i._sputc)
    i.creat_task1                            0x080029d0   Section        0  main.o(i.creat_task1)
    i.creat_task2                            0x08002a04   Section        0  main.o(i.creat_task2)
    i.main                                   0x08002a38   Section        0  main.o(i.main)
    i.osAlarmHeapInfo                        0x08002af0   Section        0  los_heap.o(i.osAlarmHeapInfo)
    i.osAtomicBitsetClearBit                 0x08002b0a   Section        0  los_slab.o(i.osAtomicBitsetClearBit)
    i.osAtomicBitsetFindClearAndSet          0x08002b28   Section        0  los_slab.o(i.osAtomicBitsetFindClearAndSet)
    i.osAtomicBitsetGetBit                   0x08002b6a   Section        0  los_slab.o(i.osAtomicBitsetGetBit)
    i.osAtomicBitsetInit                     0x08002b8c   Section        0  los_slab.o(i.osAtomicBitsetInit)
    i.osHeapAlloc                            0x08002bb8   Section        0  los_heap.o(i.osHeapAlloc)
    i.osHeapAllocAlign                       0x08002cdc   Section        0  los_heap.o(i.osHeapAllocAlign)
    i.osHeapFree                             0x08002d1c   Section        0  los_heap.o(i.osHeapFree)
    i.osHeapInit                             0x08002e20   Section        0  los_heap.o(i.osHeapInit)
    i.osHeapPrvGetNext                       0x08002e5e   Section        0  los_heap.o(i.osHeapPrvGetNext)
    i.osHeapStatisticsGet                    0x08002e74   Section        0  los_heap.o(i.osHeapStatisticsGet)
    i.osIdleTask                             0x08002ec4   Section        0  los_task.o(i.osIdleTask)
    i.osIdleTaskCreate                       0x08002ec8   Section        0  los_task.o(i.osIdleTaskCreate)
    i.osIntNumGet                            0x08002f0c   Section        0  los_hwi.o(i.osIntNumGet)
    i.osMemSystemInit                        0x08002f14   Section        0  los_memory.o(i.osMemSystemInit)
    i.osMuxInit                              0x08002f28   Section        0  los_mux.o(i.osMuxInit)
    i.osPriqueueDequeue                      0x08002f80   Section        0  los_priqueue.o(i.osPriqueueDequeue)
    i.osPriqueueEnqueue                      0x08002fc0   Section        0  los_priqueue.o(i.osPriqueueEnqueue)
    i.osPriqueueInit                         0x08002ffc   Section        0  los_priqueue.o(i.osPriqueueInit)
    i.osPriqueueSize                         0x08003030   Section        0  los_priqueue.o(i.osPriqueueSize)
    i.osPriqueueTop                          0x08003050   Section        0  los_priqueue.o(i.osPriqueueTop)
    i.osQueueBufferOperate                   0x08003070   Section        0  los_queue.o(i.osQueueBufferOperate)
    osQueueBufferOperate                     0x08003071   Thumb Code   174  los_queue.o(i.osQueueBufferOperate)
    i.osQueueInit                            0x08003148   Section        0  los_queue.o(i.osQueueInit)
    i.osQueueOperate                         0x080031a4   Section        0  los_queue.o(i.osQueueOperate)
    i.osQueueReadParameterCheck              0x08003304   Section        0  los_queue.o(i.osQueueReadParameterCheck)
    osQueueReadParameterCheck                0x08003305   Thumb Code    48  los_queue.o(i.osQueueReadParameterCheck)
    i.osQueueWriteParameterCheck             0x08003338   Section        0  los_queue.o(i.osQueueWriteParameterCheck)
    osQueueWriteParameterCheck               0x08003339   Thumb Code    46  los_queue.o(i.osQueueWriteParameterCheck)
    i.osRegister                             0x0800336c   Section        0  los_init.o(i.osRegister)
    osRegister                               0x0800336d   Thumb Code     8  los_init.o(i.osRegister)
    i.osSchedule                             0x08003378   Section        0  los_hw.o(i.osSchedule)
    i.osSemInit                              0x0800337c   Section        0  los_sem.o(i.osSemInit)
    i.osSlabAllocatorAlloc                   0x080033d0   Section        0  los_slab.o(i.osSlabAllocatorAlloc)
    i.osSlabAllocatorFree                    0x080033ec   Section        0  los_slab.o(i.osSlabAllocatorFree)
    i.osSlabAllocatorNew                     0x08003426   Section        0  los_slab.o(i.osSlabAllocatorNew)
    i.osSlabBlockHeadFill                    0x0800346e   Section        0  los_slabmem.o(i.osSlabBlockHeadFill)
    i.osSlabCtrlHdrGet                       0x0800347e   Section        0  los_memory.o(i.osSlabCtrlHdrGet)
    i.osSlabMemAlloc                         0x08003482   Section        0  los_slabmem.o(i.osSlabMemAlloc)
    i.osSlabMemFree                          0x080034f6   Section        0  los_slabmem.o(i.osSlabMemFree)
    i.osSlabMemInit                          0x08003556   Section        0  los_slabmem.o(i.osSlabMemInit)
    i.osSwTmrInit                            0x080035ac   Section        0  los_swtmr.o(i.osSwTmrInit)
    i.osSwTmrStart                           0x08003630   Section        0  los_swtmr.o(i.osSwTmrStart)
    i.osSwTmrTask                            0x080037b8   Section        0  los_swtmr.o(i.osSwTmrTask)
    i.osSwTmrTaskCreate                      0x080037f4   Section        0  los_swtmr.o(i.osSwTmrTaskCreate)
    i.osSwTmrTimeoutHandle                   0x08003834   Section        0  los_swtmr.o(i.osSwTmrTimeoutHandle)
    osSwTmrTimeoutHandle                     0x08003835   Thumb Code   102  los_swtmr.o(i.osSwTmrTimeoutHandle)
    i.osSwtmrDelete                          0x080038a0   Section        0  los_swtmr.o(i.osSwtmrDelete)
    osSwtmrDelete                            0x080038a1   Thumb Code    26  los_swtmr.o(i.osSwtmrDelete)
    i.osSwtmrScan                            0x080038c4   Section        0  los_swtmr.o(i.osSwtmrScan)
    i.osTaskAdd2TimerList                    0x080038e4   Section        0  los_task.o(i.osTaskAdd2TimerList)
    i.osTaskEntry                            0x08003970   Section        0  los_task.o(i.osTaskEntry)
    i.osTaskExit                             0x0800399c   Section        0  los_hw.o(i.osTaskExit)
    i.osTaskInit                             0x080039a0   Section        0  los_task.o(i.osTaskInit)
    i.osTaskMonInit                          0x08003a80   Section        0  los_task.o(i.osTaskMonInit)
    i.osTaskScan                             0x08003aac   Section        0  los_task.o(i.osTaskScan)
    i.osTaskSwitchCheck                      0x08003b68   Section        0  los_task.o(i.osTaskSwitchCheck)
    i.osTaskWait                             0x08003ca4   Section        0  los_task.o(i.osTaskWait)
    i.osTaskWake                             0x08003cf0   Section        0  los_task.o(i.osTaskWake)
    i.osTickHandler                          0x08003d34   Section        0  los_tick.o(i.osTickHandler)
    i.osTickStart                            0x08003d5c   Section        0  los_hw_tick.o(i.osTickStart)
    i.osTimerListDelete                      0x08003dd4   Section        0  los_task.o(i.osTimerListDelete)
    i.osTimesliceCheck                       0x08003e08   Section        0  los_timeslice.o(i.osTimesliceCheck)
    i.osTimesliceInit                        0x08003e40   Section        0  los_timeslice.o(i.osTimesliceInit)
    i.osTskStackInit                         0x08003e50   Section        0  los_hw.o(i.osTskStackInit)
    i.task1                                  0x08003ed4   Section        0  main.o(i.task1)
    i.task2                                  0x08003f18   Section        0  main.o(i.task2)
    .constdata                               0x08003f5c   Section       16  system_stm32f1xx.o(.constdata)
    .constdata                               0x08003f6c   Section        8  system_stm32f1xx.o(.constdata)
    .data                                    0x20000000   Section        4  main.o(.data)
    .data                                    0x20000004   Section       12  stm32f1xx_hal.o(.data)
    .data                                    0x20000010   Section        4  system_stm32f1xx.o(.data)
    .data                                    0x20000014   Section        4  los_init.o(.data)
    .data                                    0x20000018   Section        8  los_priqueue.o(.data)
    g_uwPriQueueBitmap                       0x20000018   Data           4  los_priqueue.o(.data)
    .data                                    0x20000020   Section       28  los_swtmr.o(.data)
    m_uwSwtimerRousesTime                    0x20000020   Data           4  los_swtmr.o(.data)
    m_pstRouses                              0x20000024   Data           4  los_swtmr.o(.data)
    m_pstRousesPrev                          0x20000028   Data           4  los_swtmr.o(.data)
    .data                                    0x2000003c   Section       72  los_task.o(.data)
    .data                                    0x20000084   Section        4  los_tick.o(.data)
    .data                                    0x20000088   Section       16  los_tick.o(.data)
    .data                                    0x20000098   Section        4  los_tick.o(.data)
    .data                                    0x2000009c   Section        8  los_timeslice.o(.data)
    .data                                    0x200000a4   Section       12  los_mux.o(.data)
    .data                                    0x200000b0   Section       12  los_queue.o(.data)
    .data                                    0x200000bc   Section       12  los_sem.o(.data)
    .data                                    0x200000c8   Section       16  los_heap.o(.data)
    g_uwAllocCount                           0x200000c8   Data           4  los_heap.o(.data)
    g_uwFreeCount                            0x200000cc   Data           4  los_heap.o(.data)
    g_uwCurHeapUsed                          0x200000d0   Data           4  los_heap.o(.data)
    g_uwMaxHeapUsed                          0x200000d4   Data           4  los_heap.o(.data)
    .data                                    0x200000d8   Section        4  los_memory.o(.data)
    .data                                    0x200000dc   Section        1  uart_msp.o(.data)
    .bss                                     0x200000e0   Section       64  los_swtmr.o(.bss)
    .bss                                     0x20000120   Section      342  los_task.o(.bss)
    .bss                                     0x20000278   Section      592  uart_msp.o(.bss)
    m_QueueCom1Rx                            0x20000278   Data          16  uart_msp.o(.bss)
    m_Com1RxBuf                              0x20000288   Data         512  uart_msp.o(.bss)
    .bss                                     0x200004c8   Section      251  debug.o(.bss)
    buffer                                   0x200004c8   Data         251  debug.o(.bss)
    STACK                                    0x200005c8   Section     1024  startup_stm32f103xb.o(STACK)

    Global Symbols

    Symbol Name                              Value     Ov Type        Size  Object(Section)

    BuildAttributes$$THM_ISAv4$P$D$K$B$S$PE$A:L22UL41UL21$X:L11$S22US41US21$IEEE1$IW$USESV6$~STKCKD$USESV7$~SHL$OSPACE$ROPI$EBA8$MICROLIB$REQ8$PRES8$EABIv2 0x00000000   Number         0  anon$$obj.o ABSOLUTE
    __ARM_use_no_argv                        0x00000000   Number         0  main.o ABSOLUTE
    __cpp_initialize__aeabi_                  - Undefined Weak Reference
    __cxa_finalize                            - Undefined Weak Reference
    __decompress                              - Undefined Weak Reference
    _clock_init                               - Undefined Weak Reference
    _microlib_exit                            - Undefined Weak Reference
    __Vectors_Size                           0x000000ec   Number         0  startup_stm32f103xb.o ABSOLUTE
    __Vectors                                0x08000000   Data           4  startup_stm32f103xb.o(RESET)
    __Vectors_End                            0x080000ec   Data           0  startup_stm32f103xb.o(RESET)
    __main                                   0x080000ed   Thumb Code     0  entry.o(.ARM.Collect$$$$00000000)
    _main_stk                                0x080000ed   Thumb Code     0  entry2.o(.ARM.Collect$$$$00000001)
    _main_scatterload                        0x080000f1   Thumb Code     0  entry5.o(.ARM.Collect$$$$00000004)
    __main_after_scatterload                 0x080000f5   Thumb Code     0  entry5.o(.ARM.Collect$$$$00000004)
    _main_clock                              0x080000f5   Thumb Code     0  entry7b.o(.ARM.Collect$$$$00000008)
    _main_cpp_init                           0x080000f5   Thumb Code     0  entry8b.o(.ARM.Collect$$$$0000000A)
    _main_init                               0x080000f5   Thumb Code     0  entry9a.o(.ARM.Collect$$$$0000000B)
    __rt_final_cpp                           0x080000fd   Thumb Code     0  entry10a.o(.ARM.Collect$$$$0000000D)
    __rt_final_exit                          0x080000fd   Thumb Code     0  entry11a.o(.ARM.Collect$$$$0000000F)
    Reset_Handler                            0x08000101   Thumb Code     8  startup_stm32f103xb.o(.text)
    ADC1_2_IRQHandler                        0x0800011b   Thumb Code     0  startup_stm32f103xb.o(.text)
    CAN1_RX1_IRQHandler                      0x0800011b   Thumb Code     0  startup_stm32f103xb.o(.text)
    CAN1_SCE_IRQHandler                      0x0800011b   Thumb Code     0  startup_stm32f103xb.o(.text)
    DMA1_Channel1_IRQHandler                 0x0800011b   Thumb Code     0  startup_stm32f103xb.o(.text)
    DMA1_Channel2_IRQHandler                 0x0800011b   Thumb Code     0  startup_stm32f103xb.o(.text)
    DMA1_Channel3_IRQHandler                 0x0800011b   Thumb Code     0  startup_stm32f103xb.o(.text)
    DMA1_Channel4_IRQHandler                 0x0800011b   Thumb Code     0  startup_stm32f103xb.o(.text)
    DMA1_Channel5_IRQHandler                 0x0800011b   Thumb Code     0  startup_stm32f103xb.o(.text)
    DMA1_Channel6_IRQHandler                 0x0800011b   Thumb Code     0  startup_stm32f103xb.o(.text)
    DMA1_Channel7_IRQHandler                 0x0800011b   Thumb Code     0  startup_stm32f103xb.o(.text)
    EXTI15_10_IRQHandler                     0x0800011b   Thumb Code     0  startup_stm32f103xb.o(.text)
    EXTI1_IRQHandler                         0x0800011b   Thumb Code     0  startup_stm32f103xb.o(.text)
    EXTI2_IRQHandler                         0x0800011b   Thumb Code     0  startup_stm32f103xb.o(.text)
    EXTI3_IRQHandler                         0x0800011b   Thumb Code     0  startup_stm32f103xb.o(.text)
    EXTI4_IRQHandler                         0x0800011b   Thumb Code     0  startup_stm32f103xb.o(.text)
    FLASH_IRQHandler                         0x0800011b   Thumb Code     0  startup_stm32f103xb.o(.text)
    I2C1_ER_IRQHandler                       0x0800011b   Thumb Code     0  startup_stm32f103xb.o(.text)
    I2C1_EV_IRQHandler                       0x0800011b   Thumb Code     0  startup_stm32f103xb.o(.text)
    I2C2_ER_IRQHandler                       0x0800011b   Thumb Code     0  startup_stm32f103xb.o(.text)
    I2C2_EV_IRQHandler                       0x0800011b   Thumb Code     0  startup_stm32f103xb.o(.text)
    PVD_IRQHandler                           0x0800011b   Thumb Code     0  startup_stm32f103xb.o(.text)
    RCC_IRQHandler                           0x0800011b   Thumb Code     0  startup_stm32f103xb.o(.text)
    RTC_Alarm_IRQHandler                     0x0800011b   Thumb Code     0  startup_stm32f103xb.o(.text)
    RTC_IRQHandler                           0x0800011b   Thumb Code     0  startup_stm32f103xb.o(.text)
    SPI1_IRQHandler                          0x0800011b   Thumb Code     0  startup_stm32f103xb.o(.text)
    SPI2_IRQHandler                          0x0800011b   Thumb Code     0  startup_stm32f103xb.o(.text)
    TAMPER_IRQHandler                        0x0800011b   Thumb Code     0  startup_stm32f103xb.o(.text)
    TIM1_BRK_IRQHandler                      0x0800011b   Thumb Code     0  startup_stm32f103xb.o(.text)
    TIM1_CC_IRQHandler                       0x0800011b   Thumb Code     0  startup_stm32f103xb.o(.text)
    TIM1_TRG_COM_IRQHandler                  0x0800011b   Thumb Code     0  startup_stm32f103xb.o(.text)
    TIM1_UP_IRQHandler                       0x0800011b   Thumb Code     0  startup_stm32f103xb.o(.text)
    TIM2_IRQHandler                          0x0800011b   Thumb Code     0  startup_stm32f103xb.o(.text)
    TIM3_IRQHandler                          0x0800011b   Thumb Code     0  startup_stm32f103xb.o(.text)
    TIM4_IRQHandler                          0x0800011b   Thumb Code     0  startup_stm32f103xb.o(.text)
    USART2_IRQHandler                        0x0800011b   Thumb Code     0  startup_stm32f103xb.o(.text)
    USART3_IRQHandler                        0x0800011b   Thumb Code     0  startup_stm32f103xb.o(.text)
    USBWakeUp_IRQHandler                     0x0800011b   Thumb Code     0  startup_stm32f103xb.o(.text)
    USB_HP_CAN1_TX_IRQHandler                0x0800011b   Thumb Code     0  startup_stm32f103xb.o(.text)
    USB_LP_CAN1_RX0_IRQHandler               0x0800011b   Thumb Code     0  startup_stm32f103xb.o(.text)
    WWDG_IRQHandler                          0x0800011b   Thumb Code     0  startup_stm32f103xb.o(.text)
    LOS_StartToRun                           0x08000125   Thumb Code     0  los_dispatch_keil.o(.text)
    LOS_IntLock                              0x0800016d   Thumb Code     0  los_dispatch_keil.o(.text)
    LOS_IntUnLock                            0x08000175   Thumb Code     0  los_dispatch_keil.o(.text)
    LOS_IntRestore                           0x0800017d   Thumb Code     0  los_dispatch_keil.o(.text)
    osTaskSchedule                           0x08000183   Thumb Code     0  los_dispatch_keil.o(.text)
    PendSV_Handler                           0x0800018d   Thumb Code     0  los_dispatch_keil.o(.text)
    __aeabi_uldivmod                         0x080001f1   Thumb Code    98  uldiv.o(.text)
    __aeabi_llsr                             0x08000253   Thumb Code    32  llushr.o(.text)
    _ll_ushift_r                             0x08000253   Thumb Code     0  llushr.o(.text)
    __aeabi_memcpy                           0x08000273   Thumb Code    36  memcpya.o(.text)
    __aeabi_memcpy4                          0x08000273   Thumb Code     0  memcpya.o(.text)
    __aeabi_memcpy8                          0x08000273   Thumb Code     0  memcpya.o(.text)
    __aeabi_memset                           0x08000297   Thumb Code    14  memseta.o(.text)
    __aeabi_memset4                          0x08000297   Thumb Code     0  memseta.o(.text)
    __aeabi_memset8                          0x08000297   Thumb Code     0  memseta.o(.text)
    __aeabi_memclr                           0x080002a5   Thumb Code     4  memseta.o(.text)
    __aeabi_memclr4                          0x080002a5   Thumb Code     0  memseta.o(.text)
    __aeabi_memclr8                          0x080002a5   Thumb Code     0  memseta.o(.text)
    _memset$wrapper                          0x080002a9   Thumb Code    18  memseta.o(.text)
    __aeabi_ddiv                             0x080002bb   Thumb Code   222  ddiv.o(.text)
    __aeabi_d2ulz                            0x08000399   Thumb Code    48  dfixul.o(.text)
    __aeabi_uidiv                            0x080003c9   Thumb Code     0  uidiv.o(.text)
    __aeabi_uidivmod                         0x080003c9   Thumb Code    44  uidiv.o(.text)
    __aeabi_llsl                             0x080003f5   Thumb Code    30  llshl.o(.text)
    _ll_shift_l                              0x080003f5   Thumb Code     0  llshl.o(.text)
    __I$use$fp                               0x08000413   Thumb Code     0  iusefp.o(.text)
    _double_round                            0x08000413   Thumb Code    30  depilogue.o(.text)
    _double_epilogue                         0x08000431   Thumb Code   156  depilogue.o(.text)
    __aeabi_dadd                             0x080004cd   Thumb Code   322  dadd.o(.text)
    __aeabi_dsub                             0x0800060f   Thumb Code     6  dadd.o(.text)
    __aeabi_drsub                            0x08000615   Thumb Code     6  dadd.o(.text)
    __aeabi_dmul                             0x0800061b   Thumb Code   228  dmul.o(.text)
    __aeabi_cdrcmple                         0x08000701   Thumb Code    48  cdrcmple.o(.text)
    __scatterload                            0x08000731   Thumb Code    28  init.o(.text)
    __scatterload_rt2                        0x08000731   Thumb Code     0  init.o(.text)
    __aeabi_lasr                             0x08000755   Thumb Code    36  llsshr.o(.text)
    _ll_sshift_r                             0x08000755   Thumb Code     0  llsshr.o(.text)
    BusFault_Handler                         0x08000779   Thumb Code     2  stm32f1xx_it.o(i.BusFault_Handler)
    DebugMon_Handler                         0x0800077b   Thumb Code     2  stm32f1xx_it.o(i.DebugMon_Handler)
    Debug_Printf                             0x0800077d   Thumb Code    36  debug.o(i.Debug_Printf)
    EXTI0_IRQHandler                         0x080007a5   Thumb Code     6  stm32f1xx_it.o(i.EXTI0_IRQHandler)
    EXTI9_5_IRQHandler                       0x080007ab   Thumb Code    22  stm32f1xx_it.o(i.EXTI9_5_IRQHandler)
    Error_Handler                            0x080007c1   Thumb Code     2  main.o(i.Error_Handler)
    HAL_Delay                                0x080007c5   Thumb Code    32  stm32f1xx_hal.o(i.HAL_Delay)
    HAL_GPIO_EXTI_Callback                   0x080007e9   Thumb Code    98  main.o(i.HAL_GPIO_EXTI_Callback)
    HAL_GPIO_EXTI_IRQHandler                 0x08000855   Thumb Code    18  stm32f1xx_hal_gpio.o(i.HAL_GPIO_EXTI_IRQHandler)
    HAL_GPIO_Init                            0x0800086d   Thumb Code   460  stm32f1xx_hal_gpio.o(i.HAL_GPIO_Init)
    HAL_GPIO_ReadPin                         0x08000a59   Thumb Code    14  stm32f1xx_hal_gpio.o(i.HAL_GPIO_ReadPin)
    HAL_GPIO_TogglePin                       0x08000a67   Thumb Code     8  stm32f1xx_hal_gpio.o(i.HAL_GPIO_TogglePin)
    HAL_GPIO_WritePin                        0x08000a6f   Thumb Code    14  stm32f1xx_hal_gpio.o(i.HAL_GPIO_WritePin)
    HAL_GetTick                              0x08000a7d   Thumb Code     6  stm32f1xx_hal.o(i.HAL_GetTick)
    HAL_Init                                 0x08000a89   Thumb Code    32  stm32f1xx_hal.o(i.HAL_Init)
    HAL_InitTick                             0x08000aad   Thumb Code    58  stm32f1xx_hal.o(i.HAL_InitTick)
    HAL_MspInit                              0x08000af1   Thumb Code    52  stm32f1xx_hal_msp.o(i.HAL_MspInit)
    HAL_NVIC_EnableIRQ                       0x08000b2d   Thumb Code    22  stm32f1xx_hal_cortex.o(i.HAL_NVIC_EnableIRQ)
    HAL_NVIC_SetPriority                     0x08000b45   Thumb Code    60  stm32f1xx_hal_cortex.o(i.HAL_NVIC_SetPriority)
    HAL_NVIC_SetPriorityGrouping             0x08000b85   Thumb Code    26  stm32f1xx_hal_cortex.o(i.HAL_NVIC_SetPriorityGrouping)
    HAL_RCC_ClockConfig                      0x08000ba9   Thumb Code   364  stm32f1xx_hal_rcc.o(i.HAL_RCC_ClockConfig)
    HAL_RCC_GetHCLKFreq                      0x08000d25   Thumb Code     6  stm32f1xx_hal_rcc.o(i.HAL_RCC_GetHCLKFreq)
    HAL_RCC_GetPCLK1Freq                     0x08000d31   Thumb Code    22  stm32f1xx_hal_rcc.o(i.HAL_RCC_GetPCLK1Freq)
    HAL_RCC_GetPCLK2Freq                     0x08000d51   Thumb Code    22  stm32f1xx_hal_rcc.o(i.HAL_RCC_GetPCLK2Freq)
    HAL_RCC_GetSysClockFreq                  0x08000d71   Thumb Code    82  stm32f1xx_hal_rcc.o(i.HAL_RCC_GetSysClockFreq)
    HAL_RCC_OscConfig                        0x08000de5   Thumb Code   840  stm32f1xx_hal_rcc.o(i.HAL_RCC_OscConfig)
    HAL_SYSTICK_Config                       0x0800113d   Thumb Code    40  stm32f1xx_hal_cortex.o(i.HAL_SYSTICK_Config)
    HAL_UART_Init                            0x08001165   Thumb Code   100  stm32f1xx_hal_uart.o(i.HAL_UART_Init)
    HAL_UART_MspInit                         0x080011c9   Thumb Code   116  uart_msp.o(i.HAL_UART_MspInit)
    HAL_UART_Transmit                        0x08001249   Thumb Code   204  stm32f1xx_hal_uart.o(i.HAL_UART_Transmit)
    HardFault_Handler                        0x08001315   Thumb Code     2  stm32f1xx_it.o(i.HardFault_Handler)
    LOS_Align                                0x08001317   Thumb Code    20  los_misc.o(i.LOS_Align)
    LOS_KernelInit                           0x0800132d   Thumb Code   144  los_init.o(i.LOS_KernelInit)
    LOS_MemAlloc                             0x080014a1   Thumb Code    42  los_memory.o(i.LOS_MemAlloc)
    LOS_MemAllocAlign                        0x080014cb   Thumb Code     4  los_memory.o(i.LOS_MemAllocAlign)
    LOS_MemFree                              0x080014cf   Thumb Code    48  los_memory.o(i.LOS_MemFree)
    LOS_MemInit                              0x08001501   Thumb Code   188  los_memory.o(i.LOS_MemInit)
    LOS_QueueCreate                          0x080015f9   Thumb Code   182  los_queue.o(i.LOS_QueueCreate)
    LOS_QueueReadCopy                        0x080016bd   Thumb Code    42  los_queue.o(i.LOS_QueueReadCopy)
    LOS_QueueWriteCopy                       0x080016e7   Thumb Code    44  los_queue.o(i.LOS_QueueWriteCopy)
    LOS_Schedule                             0x08001715   Thumb Code    54  los_hw.o(i.LOS_Schedule)
    LOS_Start                                0x08001755   Thumb Code    34  los_init.o(i.LOS_Start)
    LOS_TaskCreate                           0x08001795   Thumb Code   110  los_task.o(i.LOS_TaskCreate)
    LOS_TaskCreateOnly                       0x08001809   Thumb Code   322  los_task.o(i.LOS_TaskCreateOnly)
    LOS_TaskDelay                            0x08001975   Thumb Code    94  los_task.o(i.LOS_TaskDelay)
    LOS_TaskDelete                           0x080019e1   Thumb Code   328  los_task.o(i.LOS_TaskDelete)
    LOS_TaskYield                            0x08001b35   Thumb Code   104  los_task.o(i.LOS_TaskYield)
    LOS_TickCountGet                         0x08001ba5   Thumb Code     6  los_sys.o(i.LOS_TickCountGet)
    MemManage_Handler                        0x08001cad   Thumb Code     2  stm32f1xx_it.o(i.MemManage_Handler)
    NMI_Handler                              0x08001caf   Thumb Code     2  stm32f1xx_it.o(i.NMI_Handler)
    QUEUE_PacketCreate                       0x08001cd1   Thumb Code    12  queue.o(i.QUEUE_PacketCreate)
    QUEUE_PacketIn                           0x08001cdd   Thumb Code    48  queue.o(i.QUEUE_PacketIn)
    SVC_Handler                              0x08001d31   Thumb Code     2  stm32f1xx_it.o(i.SVC_Handler)
    SysTick_Handler                          0x08001d35   Thumb Code    28  los_hwi.o(i.SysTick_Handler)
    SystemClock_Config                       0x08001d59   Thumb Code    88  main.o(i.SystemClock_Config)
    SystemInit                               0x08001db1   Thumb Code    56  system_stm32f1xx.o(i.SystemInit)
    USART1_IRQHandler                        0x08001ff9   Thumb Code    62  uart_msp.o(i.USART1_IRQHandler)
    Uart_Init                                0x08002041   Thumb Code    70  uart_msp.o(i.Uart_Init)
    Uart_Write                               0x08002099   Thumb Code    44  uart_msp.o(i.Uart_Write)
    UsageFault_Handler                       0x080020cd   Thumb Code     2  stm32f1xx_it.o(i.UsageFault_Handler)
    __0vsprintf                              0x080020d1   Thumb Code    30  printfa.o(i.__0vsprintf)
    __1vsprintf                              0x080020d1   Thumb Code     0  printfa.o(i.__0vsprintf)
    __2vsprintf                              0x080020d1   Thumb Code     0  printfa.o(i.__0vsprintf)
    __c89vsprintf                            0x080020d1   Thumb Code     0  printfa.o(i.__0vsprintf)
    vsprintf                                 0x080020d1   Thumb Code     0  printfa.o(i.__0vsprintf)
    __scatterload_copy                       0x080020f5   Thumb Code    14  handlers.o(i.__scatterload_copy)
    __scatterload_null                       0x08002103   Thumb Code     2  handlers.o(i.__scatterload_null)
    __scatterload_zeroinit                   0x08002105   Thumb Code    14  handlers.o(i.__scatterload_zeroinit)
    creat_task1                              0x080029d1   Thumb Code    36  main.o(i.creat_task1)
    creat_task2                              0x08002a05   Thumb Code    36  main.o(i.creat_task2)
    main                                     0x08002a39   Thumb Code    96  main.o(i.main)
    osAlarmHeapInfo                          0x08002af1   Thumb Code    26  los_heap.o(i.osAlarmHeapInfo)
    osAtomicBitsetClearBit                   0x08002b0b   Thumb Code    30  los_slab.o(i.osAtomicBitsetClearBit)
    osAtomicBitsetFindClearAndSet            0x08002b29   Thumb Code    66  los_slab.o(i.osAtomicBitsetFindClearAndSet)
    osAtomicBitsetGetBit                     0x08002b6b   Thumb Code    34  los_slab.o(i.osAtomicBitsetGetBit)
    osAtomicBitsetInit                       0x08002b8d   Thumb Code    44  los_slab.o(i.osAtomicBitsetInit)
    osHeapAlloc                              0x08002bb9   Thumb Code   232  los_heap.o(i.osHeapAlloc)
    osHeapAllocAlign                         0x08002cdd   Thumb Code    62  los_heap.o(i.osHeapAllocAlign)
    osHeapFree                               0x08002d1d   Thumb Code   228  los_heap.o(i.osHeapFree)
    osHeapInit                               0x08002e21   Thumb Code    62  los_heap.o(i.osHeapInit)
    osHeapPrvGetNext                         0x08002e5f   Thumb Code    22  los_heap.o(i.osHeapPrvGetNext)
    osHeapStatisticsGet                      0x08002e75   Thumb Code    76  los_heap.o(i.osHeapStatisticsGet)
    osIdleTask                               0x08002ec5   Thumb Code     2  los_task.o(i.osIdleTask)
    osIdleTaskCreate                         0x08002ec9   Thumb Code    48  los_task.o(i.osIdleTaskCreate)
    osIntNumGet                              0x08002f0d   Thumb Code     6  los_hwi.o(i.osIntNumGet)
    osMemSystemInit                          0x08002f15   Thumb Code    10  los_memory.o(i.osMemSystemInit)
    osMuxInit                                0x08002f29   Thumb Code    74  los_mux.o(i.osMuxInit)
    osPriqueueDequeue                        0x08002f81   Thumb Code    58  los_priqueue.o(i.osPriqueueDequeue)
    osPriqueueEnqueue                        0x08002fc1   Thumb Code    54  los_priqueue.o(i.osPriqueueEnqueue)
    osPriqueueInit                           0x08002ffd   Thumb Code    42  los_priqueue.o(i.osPriqueueInit)
    osPriqueueSize                           0x08003031   Thumb Code    26  los_priqueue.o(i.osPriqueueSize)
    osPriqueueTop                            0x08003051   Thumb Code    26  los_priqueue.o(i.osPriqueueTop)
    osQueueInit                              0x08003149   Thumb Code    78  los_queue.o(i.osQueueInit)
    osQueueOperate                           0x080031a5   Thumb Code   334  los_queue.o(i.osQueueOperate)
    osSchedule                               0x08003379   Thumb Code     4  los_hw.o(i.osSchedule)
    osSemInit                                0x0800337d   Thumb Code    72  los_sem.o(i.osSemInit)
    osSlabAllocatorAlloc                     0x080033d1   Thumb Code    28  los_slab.o(i.osSlabAllocatorAlloc)
    osSlabAllocatorFree                      0x080033ed   Thumb Code    58  los_slab.o(i.osSlabAllocatorFree)
    osSlabAllocatorNew                       0x08003427   Thumb Code    72  los_slab.o(i.osSlabAllocatorNew)
    osSlabBlockHeadFill                      0x0800346f   Thumb Code    16  los_slabmem.o(i.osSlabBlockHeadFill)
    osSlabCtrlHdrGet                         0x0800347f   Thumb Code     4  los_memory.o(i.osSlabCtrlHdrGet)
    osSlabMemAlloc                           0x08003483   Thumb Code   116  los_slabmem.o(i.osSlabMemAlloc)
    osSlabMemFree                            0x080034f7   Thumb Code    96  los_slabmem.o(i.osSlabMemFree)
    osSlabMemInit                            0x08003557   Thumb Code    86  los_slabmem.o(i.osSlabMemInit)
    osSwTmrInit                              0x080035ad   Thumb Code   116  los_swtmr.o(i.osSwTmrInit)
    osSwTmrStart                             0x08003631   Thumb Code   382  los_swtmr.o(i.osSwTmrStart)
    osSwTmrTask                              0x080037b9   Thumb Code    56  los_swtmr.o(i.osSwTmrTask)
    osSwTmrTaskCreate                        0x080037f5   Thumb Code    44  los_swtmr.o(i.osSwTmrTaskCreate)
    osSwtmrScan                              0x080038c5   Thumb Code    26  los_swtmr.o(i.osSwtmrScan)
    osTaskAdd2TimerList                      0x080038e5   Thumb Code   136  los_task.o(i.osTaskAdd2TimerList)
    osTaskEntry                              0x08003971   Thumb Code    38  los_task.o(i.osTaskEntry)
    osTaskExit                               0x0800399d   Thumb Code     4  los_hw.o(i.osTaskExit)
    osTaskInit                               0x080039a1   Thumb Code   210  los_task.o(i.osTaskInit)
    osTaskMonInit                            0x08003a81   Thumb Code    30  los_task.o(i.osTaskMonInit)
    osTaskScan                               0x08003aad   Thumb Code   182  los_task.o(i.osTaskScan)
    osTaskSwitchCheck                        0x08003b69   Thumb Code   170  los_task.o(i.osTaskSwitchCheck)
    osTaskWait                               0x08003ca5   Thumb Code    70  los_task.o(i.osTaskWait)
    osTaskWake                               0x08003cf1   Thumb Code    66  los_task.o(i.osTaskWake)
    osTickHandler                            0x08003d35   Thumb Code    34  los_tick.o(i.osTickHandler)
    osTickStart                              0x08003d5d   Thumb Code    96  los_hw_tick.o(i.osTickStart)
    osTimerListDelete                        0x08003dd5   Thumb Code    48  los_task.o(i.osTimerListDelete)
    osTimesliceCheck                         0x08003e09   Thumb Code    44  los_timeslice.o(i.osTimesliceCheck)
    osTimesliceInit                          0x08003e41   Thumb Code    12  los_timeslice.o(i.osTimesliceInit)
    osTskStackInit                           0x08003e51   Thumb Code   122  los_hw.o(i.osTskStackInit)
    task1                                    0x08003ed5   Thumb Code    34  main.o(i.task1)
    task2                                    0x08003f19   Thumb Code    34  main.o(i.task2)
    AHBPrescTable                            0x08003f5c   Data          16  system_stm32f1xx.o(.constdata)
    APBPrescTable                            0x08003f6c   Data           8  system_stm32f1xx.o(.constdata)
    Region$$Table$$Base                      0x08003f74   Number         0  anon$$obj.o(Region$$Table)
    Region$$Table$$Limit                     0x08003f94   Number         0  anon$$obj.o(Region$$Table)
    g_TskHandle                              0x20000000   Data           4  main.o(.data)
    uwTickFreq                               0x20000004   Data           1  stm32f1xx_hal.o(.data)
    uwTickPrio                               0x20000008   Data           4  stm32f1xx_hal.o(.data)
    uwTick                                   0x2000000c   Data           4  stm32f1xx_hal.o(.data)
    SystemCoreClock                          0x20000010   Data           4  system_stm32f1xx.o(.data)
    m_aucSysMem0                             0x20000014   Data           4  los_init.o(.data)
    g_pstLosPriorityQueueList                0x2000001c   Data           4  los_priqueue.o(.data)
    m_uwSwTmrHandlerQueue                    0x2000002c   Data           4  los_swtmr.o(.data)
    m_pstSwtmrCBArray                        0x20000030   Data           4  los_swtmr.o(.data)
    m_pstSwtmrFreeList                       0x20000034   Data           4  los_swtmr.o(.data)
    m_pstSwtmrSortList                       0x20000038   Data           4  los_swtmr.o(.data)
    g_usLosTaskLock                          0x2000003c   Data           2  los_task.o(.data)
    g_pfnTskSwitchHook                       0x20000040   Data           4  los_task.o(.data)
    g_pfnUsrTskSwitchHook                    0x20000044   Data           4  los_task.o(.data)
    g_pstTaskCBArray                         0x20000048   Data           4  los_task.o(.data)
    g_uwTskMaxNum                            0x2000004c   Data           4  los_task.o(.data)
    g_uwIdleTaskID                           0x20000050   Data           4  los_task.o(.data)
    g_uwSwtmrTaskID                          0x20000054   Data           4  los_task.o(.data)
    g_bTaskScheduled                         0x20000058   Data           4  los_task.o(.data)
    g_stLosTask                              0x2000005c   Data           8  los_task.o(.data)
    g_stTaskTimerList                        0x20000064   Data           8  los_task.o(.data)
    g_stLosFreeTask                          0x2000006c   Data           8  los_task.o(.data)
    g_stTskRecyleList                        0x20000074   Data           8  los_task.o(.data)
    g_stTskSortLink                          0x2000007c   Data           8  los_task.o(.data)
    g_bSysTickStart                          0x20000084   Data           4  los_tick.o(.data)
    g_uwSysClock                             0x20000088   Data           4  los_tick.o(.data)
    g_ullTickCount                           0x20000090   Data           8  los_tick.o(.data)
    g_uwCyclesPerTick                        0x20000098   Data           4  los_tick.o(.data)
    g_stTaskTimeSlice                        0x2000009c   Data           8  los_timeslice.o(.data)
    g_pstAllMux                              0x200000a4   Data           4  los_mux.o(.data)
    g_stUnusedMuxList                        0x200000a8   Data           8  los_mux.o(.data)
    g_pstAllQueue                            0x200000b0   Data           4  los_queue.o(.data)
    g_stFreeQueueList                        0x200000b4   Data           8  los_queue.o(.data)
    g_pstAllSem                              0x200000bc   Data           4  los_sem.o(.data)
    g_stUnusedSemList                        0x200000c0   Data           8  los_sem.o(.data)
    g_pPoolHead                              0x200000d8   Data           4  los_memory.o(.data)
    bCom1                                    0x200000dc   Data           1  uart_msp.o(.data)
    m_uwSwTmrAlignID                         0x200000e0   Data          64  los_swtmr.o(.bss)
    g_astTskSwitchInfo                       0x20000120   Data         342  los_task.o(.bss)
    UART1_Handler                            0x20000488   Data          64  uart_msp.o(.bss)
    Image$$RW_IRAM1$$ZI$$Limit               0x200009c8   Number         0  anon$$obj.o ABSOLUTE
    __initial_sp                             0x200009c8   Data           0  startup_stm32f103xb.o(STACK)



==============================================================================

Memory Map of the image

  Image Entry point : 0x080000ed

  Load Region LR_IROM1 (Base: 0x08000000, Size: 0x00004074, Max: 0x00020000, ABSOLUTE)

    Execution Region ER_IROM1 (Exec base: 0x08000000, Load base: 0x08000000, Size: 0x00003f94, Max: 0x00020000, ABSOLUTE)

    Exec Addr    Load Addr    Size         Type   Attr      Idx    E Section Name        Object

    0x08000000   0x08000000   0x000000ec   Data   RO            3    RESET               startup_stm32f103xb.o
    0x080000ec   0x080000ec   0x00000000   Code   RO         3760  * .ARM.Collect$$$$00000000  mc_w.l(entry.o)
    0x080000ec   0x080000ec   0x00000004   Code   RO         3811    .ARM.Collect$$$$00000001  mc_w.l(entry2.o)
    0x080000f0   0x080000f0   0x00000004   Code   RO         3814    .ARM.Collect$$$$00000004  mc_w.l(entry5.o)
    0x080000f4   0x080000f4   0x00000000   Code   RO         3816    .ARM.Collect$$$$00000008  mc_w.l(entry7b.o)
    0x080000f4   0x080000f4   0x00000000   Code   RO         3818    .ARM.Collect$$$$0000000A  mc_w.l(entry8b.o)
    0x080000f4   0x080000f4   0x00000008   Code   RO         3819    .ARM.Collect$$$$0000000B  mc_w.l(entry9a.o)
    0x080000fc   0x080000fc   0x00000000   Code   RO         3821    .ARM.Collect$$$$0000000D  mc_w.l(entry10a.o)
    0x080000fc   0x080000fc   0x00000000   Code   RO         3823    .ARM.Collect$$$$0000000F  mc_w.l(entry11a.o)
    0x080000fc   0x080000fc   0x00000004   Code   RO         3812    .ARM.Collect$$$$00002712  mc_w.l(entry2.o)
    0x08000100   0x08000100   0x00000024   Code   RO            4    .text               startup_stm32f103xb.o
    0x08000124   0x08000124   0x000000cc   Code   RO         1710    .text               los_dispatch_keil.o
    0x080001f0   0x080001f0   0x00000062   Code   RO         3763    .text               mc_w.l(uldiv.o)
    0x08000252   0x08000252   0x00000020   Code   RO         3765    .text               mc_w.l(llushr.o)
    0x08000272   0x08000272   0x00000024   Code   RO         3767    .text               mc_w.l(memcpya.o)
    0x08000296   0x08000296   0x00000024   Code   RO         3769    .text               mc_w.l(memseta.o)
    0x080002ba   0x080002ba   0x000000de   Code   RO         3803    .text               mf_w.l(ddiv.o)
    0x08000398   0x08000398   0x00000030   Code   RO         3809    .text               mf_w.l(dfixul.o)
    0x080003c8   0x080003c8   0x0000002c   Code   RO         3828    .text               mc_w.l(uidiv.o)
    0x080003f4   0x080003f4   0x0000001e   Code   RO         3830    .text               mc_w.l(llshl.o)
    0x08000412   0x08000412   0x00000000   Code   RO         3832    .text               mc_w.l(iusefp.o)
    0x08000412   0x08000412   0x000000ba   Code   RO         3833    .text               mf_w.l(depilogue.o)
    0x080004cc   0x080004cc   0x0000014e   Code   RO         3835    .text               mf_w.l(dadd.o)
    0x0800061a   0x0800061a   0x000000e4   Code   RO         3837    .text               mf_w.l(dmul.o)
    0x080006fe   0x080006fe   0x00000002   PAD
    0x08000700   0x08000700   0x00000030   Code   RO         3839    .text               mf_w.l(cdrcmple.o)
    0x08000730   0x08000730   0x00000024   Code   RO         3841    .text               mc_w.l(init.o)
    0x08000754   0x08000754   0x00000024   Code   RO         3844    .text               mc_w.l(llsshr.o)
    0x08000778   0x08000778   0x00000002   Code   RO          237    i.BusFault_Handler  stm32f1xx_it.o
    0x0800077a   0x0800077a   0x00000002   Code   RO          238    i.DebugMon_Handler  stm32f1xx_it.o
    0x0800077c   0x0800077c   0x00000028   Code   RO         3725    i.Debug_Printf      debug.o
    0x080007a4   0x080007a4   0x00000006   Code   RO          239    i.EXTI0_IRQHandler  stm32f1xx_it.o
    0x080007aa   0x080007aa   0x00000016   Code   RO          240    i.EXTI9_5_IRQHandler  stm32f1xx_it.o
    0x080007c0   0x080007c0   0x00000002   Code   RO           13    i.Error_Handler     main.o
    0x080007c2   0x080007c2   0x00000002   PAD
    0x080007c4   0x080007c4   0x00000024   Code   RO          431    i.HAL_Delay         stm32f1xx_hal.o
    0x080007e8   0x080007e8   0x0000006c   Code   RO           14    i.HAL_GPIO_EXTI_Callback  main.o
    0x08000854   0x08000854   0x00000018   Code   RO          731    i.HAL_GPIO_EXTI_IRQHandler  stm32f1xx_hal_gpio.o
    0x0800086c   0x0800086c   0x000001ec   Code   RO          732    i.HAL_GPIO_Init     stm32f1xx_hal_gpio.o
    0x08000a58   0x08000a58   0x0000000e   Code   RO          734    i.HAL_GPIO_ReadPin  stm32f1xx_hal_gpio.o
    0x08000a66   0x08000a66   0x00000008   Code   RO          735    i.HAL_GPIO_TogglePin  stm32f1xx_hal_gpio.o
    0x08000a6e   0x08000a6e   0x0000000e   Code   RO          736    i.HAL_GPIO_WritePin  stm32f1xx_hal_gpio.o
    0x08000a7c   0x08000a7c   0x0000000c   Code   RO          435    i.HAL_GetTick       stm32f1xx_hal.o
    0x08000a88   0x08000a88   0x00000024   Code   RO          440    i.HAL_Init          stm32f1xx_hal.o
    0x08000aac   0x08000aac   0x00000044   Code   RO          441    i.HAL_InitTick      stm32f1xx_hal.o
    0x08000af0   0x08000af0   0x0000003c   Code   RO          328    i.HAL_MspInit       stm32f1xx_hal_msp.o
    0x08000b2c   0x08000b2c   0x00000016   Code   RO          892    i.HAL_NVIC_EnableIRQ  stm32f1xx_hal_cortex.o
    0x08000b42   0x08000b42   0x00000002   PAD
    0x08000b44   0x08000b44   0x00000040   Code   RO          898    i.HAL_NVIC_SetPriority  stm32f1xx_hal_cortex.o
    0x08000b84   0x08000b84   0x00000024   Code   RO          899    i.HAL_NVIC_SetPriorityGrouping  stm32f1xx_hal_cortex.o
    0x08000ba8   0x08000ba8   0x0000017c   Code   RO          587    i.HAL_RCC_ClockConfig  stm32f1xx_hal_rcc.o
    0x08000d24   0x08000d24   0x0000000c   Code   RO          592    i.HAL_RCC_GetHCLKFreq  stm32f1xx_hal_rcc.o
    0x08000d30   0x08000d30   0x00000020   Code   RO          594    i.HAL_RCC_GetPCLK1Freq  stm32f1xx_hal_rcc.o
    0x08000d50   0x08000d50   0x00000020   Code   RO          595    i.HAL_RCC_GetPCLK2Freq  stm32f1xx_hal_rcc.o
    0x08000d70   0x08000d70   0x00000074   Code   RO          596    i.HAL_RCC_GetSysClockFreq  stm32f1xx_hal_rcc.o
    0x08000de4   0x08000de4   0x00000358   Code   RO          599    i.HAL_RCC_OscConfig  stm32f1xx_hal_rcc.o
    0x0800113c   0x0800113c   0x00000028   Code   RO          903    i.HAL_SYSTICK_Config  stm32f1xx_hal_cortex.o
    0x08001164   0x08001164   0x00000064   Code   RO         1369    i.HAL_UART_Init     stm32f1xx_hal_uart.o
    0x080011c8   0x080011c8   0x00000080   Code   RO         3658    i.HAL_UART_MspInit  uart_msp.o
    0x08001248   0x08001248   0x000000cc   Code   RO         1377    i.HAL_UART_Transmit  stm32f1xx_hal_uart.o
    0x08001314   0x08001314   0x00000002   Code   RO          241    i.HardFault_Handler  stm32f1xx_it.o
    0x08001316   0x08001316   0x00000014   Code   RO         3221    i.LOS_Align         los_misc.o
    0x0800132a   0x0800132a   0x00000002   PAD
    0x0800132c   0x0800132c   0x000000f8   Code   RO         1896    i.LOS_KernelInit    los_init.o
    0x08001424   0x08001424   0x0000000e   Code   RO         2275    i.LOS_ListAdd       los_task.o
    0x08001432   0x08001432   0x0000000e   Code   RO         2737    i.LOS_ListAdd       los_mux.o
    0x08001440   0x08001440   0x0000000e   Code   RO         2807    i.LOS_ListAdd       los_queue.o
    0x0800144e   0x0800144e   0x0000000e   Code   RO         2943    i.LOS_ListAdd       los_sem.o
    0x0800145c   0x0800145c   0x00000014   Code   RO         2276    i.LOS_ListDelete    los_task.o
    0x08001470   0x08001470   0x0000000e   Code   RO         1950    i.LOS_ListEmpty     los_priqueue.o
    0x0800147e   0x0800147e   0x0000000e   Code   RO         2277    i.LOS_ListEmpty     los_task.o
    0x0800148c   0x0800148c   0x0000000e   Code   RO         2808    i.LOS_ListEmpty     los_queue.o
    0x0800149a   0x0800149a   0x00000006   Code   RO         2278    i.LOS_ListTailInsert  los_task.o
    0x080014a0   0x080014a0   0x0000002a   Code   RO         3389    i.LOS_MemAlloc      los_memory.o
    0x080014ca   0x080014ca   0x00000004   Code   RO         3390    i.LOS_MemAllocAlign  los_memory.o
    0x080014ce   0x080014ce   0x00000030   Code   RO         3392    i.LOS_MemFree       los_memory.o
    0x080014fe   0x080014fe   0x00000002   PAD
    0x08001500   0x08001500   0x000000f8   Code   RO         3394    i.LOS_MemInit       los_memory.o
    0x080015f8   0x080015f8   0x000000c4   Code   RO         2809    i.LOS_QueueCreate   los_queue.o
    0x080016bc   0x080016bc   0x0000002a   Code   RO         2813    i.LOS_QueueReadCopy  los_queue.o
    0x080016e6   0x080016e6   0x0000002c   Code   RO         2815    i.LOS_QueueWriteCopy  los_queue.o
    0x08001712   0x08001712   0x00000002   PAD
    0x08001714   0x08001714   0x00000040   Code   RO         1716    i.LOS_Schedule      los_hw.o
    0x08001754   0x08001754   0x00000040   Code   RO         1898    i.LOS_Start         los_init.o
    0x08001794   0x08001794   0x00000074   Code   RO         2281    i.LOS_TaskCreate    los_task.o
    0x08001808   0x08001808   0x0000016c   Code   RO         2282    i.LOS_TaskCreateOnly  los_task.o
    0x08001974   0x08001974   0x0000006c   Code   RO         2283    i.LOS_TaskDelay     los_task.o
    0x080019e0   0x080019e0   0x00000154   Code   RO         2284    i.LOS_TaskDelete    los_task.o
    0x08001b34   0x08001b34   0x00000070   Code   RO         2297    i.LOS_TaskYield     los_task.o
    0x08001ba4   0x08001ba4   0x0000000c   Code   RO         2215    i.LOS_TickCountGet  los_sys.o
    0x08001bb0   0x08001bb0   0x000000fc   Code   RO           15    i.MX_GPIO_Init      main.o
    0x08001cac   0x08001cac   0x00000002   Code   RO          242    i.MemManage_Handler  stm32f1xx_it.o
    0x08001cae   0x08001cae   0x00000002   Code   RO          243    i.NMI_Handler       stm32f1xx_it.o
    0x08001cb0   0x08001cb0   0x00000020   Code   RO          905    i.NVIC_SetPriority  stm32f1xx_hal_cortex.o
    0x08001cd0   0x08001cd0   0x0000000c   Code   RO         3574    i.QUEUE_PacketCreate  queue.o
    0x08001cdc   0x08001cdc   0x00000030   Code   RO         3576    i.QUEUE_PacketIn    queue.o
    0x08001d0c   0x08001d0c   0x00000024   Code   RO          600    i.RCC_Delay         stm32f1xx_hal_rcc.o
    0x08001d30   0x08001d30   0x00000002   Code   RO          245    i.SVC_Handler       stm32f1xx_it.o
    0x08001d32   0x08001d32   0x00000002   PAD
    0x08001d34   0x08001d34   0x00000024   Code   RO         1863    i.SysTick_Handler   los_hwi.o
    0x08001d58   0x08001d58   0x00000058   Code   RO           16    i.SystemClock_Config  main.o
    0x08001db0   0x08001db0   0x00000048   Code   RO         1676    i.SystemInit        system_stm32f1xx.o
    0x08001df8   0x08001df8   0x0000019c   Code   RO         1396    i.UART_SetConfig    stm32f1xx_hal_uart.o
    0x08001f94   0x08001f94   0x00000064   Code   RO         1398    i.UART_WaitOnFlagUntilTimeout  stm32f1xx_hal_uart.o
    0x08001ff8   0x08001ff8   0x00000048   Code   RO         3660    i.USART1_IRQHandler  uart_msp.o
    0x08002040   0x08002040   0x00000058   Code   RO         3661    i.Uart_Init         uart_msp.o
    0x08002098   0x08002098   0x00000034   Code   RO         3662    i.Uart_Write        uart_msp.o
    0x080020cc   0x080020cc   0x00000002   Code   RO          247    i.UsageFault_Handler  stm32f1xx_it.o
    0x080020ce   0x080020ce   0x00000002   PAD
    0x080020d0   0x080020d0   0x00000024   Code   RO         3782    i.__0vsprintf       mc_w.l(printfa.o)
    0x080020f4   0x080020f4   0x0000000e   Code   RO         3849    i.__scatterload_copy  mc_w.l(handlers.o)
    0x08002102   0x08002102   0x00000002   Code   RO         3850    i.__scatterload_null  mc_w.l(handlers.o)
    0x08002104   0x08002104   0x0000000e   Code   RO         3851    i.__scatterload_zeroinit  mc_w.l(handlers.o)
    0x08002112   0x08002112   0x00000002   PAD
    0x08002114   0x08002114   0x00000184   Code   RO         3783    i._fp_digits        mc_w.l(printfa.o)
    0x08002298   0x08002298   0x000006dc   Code   RO         3784    i._printf_core      mc_w.l(printfa.o)
    0x08002974   0x08002974   0x00000024   Code   RO         3785    i._printf_post_padding  mc_w.l(printfa.o)
    0x08002998   0x08002998   0x0000002e   Code   RO         3786    i._printf_pre_padding  mc_w.l(printfa.o)
    0x080029c6   0x080029c6   0x0000000a   Code   RO         3788    i._sputc            mc_w.l(printfa.o)
    0x080029d0   0x080029d0   0x00000034   Code   RO           17    i.creat_task1       main.o
    0x08002a04   0x08002a04   0x00000034   Code   RO           18    i.creat_task2       main.o
    0x08002a38   0x08002a38   0x000000b8   Code   RO           19    i.main              main.o
    0x08002af0   0x08002af0   0x0000001a   Code   RO         3315    i.osAlarmHeapInfo   los_heap.o
    0x08002b0a   0x08002b0a   0x0000001e   Code   RO         3021    i.osAtomicBitsetClearBit  los_slab.o
    0x08002b28   0x08002b28   0x00000042   Code   RO         3023    i.osAtomicBitsetFindClearAndSet  los_slab.o
    0x08002b6a   0x08002b6a   0x00000022   Code   RO         3024    i.osAtomicBitsetGetBit  los_slab.o
    0x08002b8c   0x08002b8c   0x0000002c   Code   RO         3026    i.osAtomicBitsetInit  los_slab.o
    0x08002bb8   0x08002bb8   0x00000124   Code   RO         3316    i.osHeapAlloc       los_heap.o
    0x08002cdc   0x08002cdc   0x0000003e   Code   RO         3317    i.osHeapAllocAlign  los_heap.o
    0x08002d1a   0x08002d1a   0x00000002   PAD
    0x08002d1c   0x08002d1c   0x00000104   Code   RO         3318    i.osHeapFree        los_heap.o
    0x08002e20   0x08002e20   0x0000003e   Code   RO         3321    i.osHeapInit        los_heap.o
    0x08002e5e   0x08002e5e   0x00000016   Code   RO         3322    i.osHeapPrvGetNext  los_heap.o
    0x08002e74   0x08002e74   0x00000050   Code   RO         3323    i.osHeapStatisticsGet  los_heap.o
    0x08002ec4   0x08002ec4   0x00000002   Code   RO         2301    i.osIdleTask        los_task.o
    0x08002ec6   0x08002ec6   0x00000002   PAD
    0x08002ec8   0x08002ec8   0x00000044   Code   RO         2302    i.osIdleTaskCreate  los_task.o
    0x08002f0c   0x08002f0c   0x00000006   Code   RO         1864    i.osIntNumGet       los_hwi.o
    0x08002f12   0x08002f12   0x00000002   PAD
    0x08002f14   0x08002f14   0x00000014   Code   RO         3398    i.osMemSystemInit   los_memory.o
    0x08002f28   0x08002f28   0x00000058   Code   RO         2743    i.osMuxInit         los_mux.o
    0x08002f80   0x08002f80   0x00000040   Code   RO         1951    i.osPriqueueDequeue  los_priqueue.o
    0x08002fc0   0x08002fc0   0x0000003c   Code   RO         1952    i.osPriqueueEnqueue  los_priqueue.o
    0x08002ffc   0x08002ffc   0x00000034   Code   RO         1953    i.osPriqueueInit    los_priqueue.o
    0x08003030   0x08003030   0x00000020   Code   RO         1954    i.osPriqueueSize    los_priqueue.o
    0x08003050   0x08003050   0x00000020   Code   RO         1955    i.osPriqueueTop     los_priqueue.o
    0x08003070   0x08003070   0x000000d8   Code   RO         2818    i.osQueueBufferOperate  los_queue.o
    0x08003148   0x08003148   0x0000005c   Code   RO         2819    i.osQueueInit       los_queue.o
    0x080031a4   0x080031a4   0x00000160   Code   RO         2822    i.osQueueOperate    los_queue.o
    0x08003304   0x08003304   0x00000034   Code   RO         2823    i.osQueueReadParameterCheck  los_queue.o
    0x08003338   0x08003338   0x00000034   Code   RO         2824    i.osQueueWriteParameterCheck  los_queue.o
    0x0800336c   0x0800336c   0x0000000c   Code   RO         1900    i.osRegister        los_init.o
    0x08003378   0x08003378   0x00000004   Code   RO         1718    i.osSchedule        los_hw.o
    0x0800337c   0x0800337c   0x00000054   Code   RO         2950    i.osSemInit         los_sem.o
    0x080033d0   0x080033d0   0x0000001c   Code   RO         3027    i.osSlabAllocatorAlloc  los_slab.o
    0x080033ec   0x080033ec   0x0000003a   Code   RO         3031    i.osSlabAllocatorFree  los_slab.o
    0x08003426   0x08003426   0x00000048   Code   RO         3038    i.osSlabAllocatorNew  los_slab.o
    0x0800346e   0x0800346e   0x00000010   Code   RO         3155    i.osSlabBlockHeadFill  los_slabmem.o
    0x0800347e   0x0800347e   0x00000004   Code   RO         3399    i.osSlabCtrlHdrGet  los_memory.o
    0x08003482   0x08003482   0x00000074   Code   RO         3157    i.osSlabMemAlloc    los_slabmem.o
    0x080034f6   0x080034f6   0x00000060   Code   RO         3160    i.osSlabMemFree     los_slabmem.o
    0x08003556   0x08003556   0x00000056   Code   RO         3161    i.osSlabMemInit     los_slabmem.o
    0x080035ac   0x080035ac   0x00000084   Code   RO         2054    i.osSwTmrInit       los_swtmr.o
    0x08003630   0x08003630   0x00000188   Code   RO         2055    i.osSwTmrStart      los_swtmr.o
    0x080037b8   0x080037b8   0x0000003c   Code   RO         2056    i.osSwTmrTask       los_swtmr.o
    0x080037f4   0x080037f4   0x00000040   Code   RO         2057    i.osSwTmrTaskCreate  los_swtmr.o
    0x08003834   0x08003834   0x0000006c   Code   RO         2058    i.osSwTmrTimeoutHandle  los_swtmr.o
    0x080038a0   0x080038a0   0x00000024   Code   RO         2060    i.osSwtmrDelete     los_swtmr.o
    0x080038c4   0x080038c4   0x00000020   Code   RO         2061    i.osSwtmrScan       los_swtmr.o
    0x080038e4   0x080038e4   0x0000008c   Code   RO         2303    i.osTaskAdd2TimerList  los_task.o
    0x08003970   0x08003970   0x0000002c   Code   RO         2304    i.osTaskEntry       los_task.o
    0x0800399c   0x0800399c   0x00000004   Code   RO         1719    i.osTaskExit        los_hw.o
    0x080039a0   0x080039a0   0x000000e0   Code   RO         2305    i.osTaskInit        los_task.o
    0x08003a80   0x08003a80   0x0000002c   Code   RO         2306    i.osTaskMonInit     los_task.o
    0x08003aac   0x08003aac   0x000000bc   Code   RO         2308    i.osTaskScan        los_task.o
    0x08003b68   0x08003b68   0x0000013c   Code   RO         2309    i.osTaskSwitchCheck  los_task.o
    0x08003ca4   0x08003ca4   0x0000004c   Code   RO         2310    i.osTaskWait        los_task.o
    0x08003cf0   0x08003cf0   0x00000042   Code   RO         2311    i.osTaskWake        los_task.o
    0x08003d32   0x08003d32   0x00000002   PAD
    0x08003d34   0x08003d34   0x00000028   Code   RO         2570    i.osTickHandler     los_tick.o
    0x08003d5c   0x08003d5c   0x00000078   Code   RO         1813    i.osTickStart       los_hw_tick.o
    0x08003dd4   0x08003dd4   0x00000034   Code   RO         2312    i.osTimerListDelete  los_task.o
    0x08003e08   0x08003e08   0x00000038   Code   RO         2622    i.osTimesliceCheck  los_timeslice.o
    0x08003e40   0x08003e40   0x00000010   Code   RO         2623    i.osTimesliceInit   los_timeslice.o
    0x08003e50   0x08003e50   0x00000084   Code   RO         1720    i.osTskStackInit    los_hw.o
    0x08003ed4   0x08003ed4   0x00000044   Code   RO           20    i.task1             main.o
    0x08003f18   0x08003f18   0x00000044   Code   RO           21    i.task2             main.o
    0x08003f5c   0x08003f5c   0x00000010   Data   RO         1677    .constdata          system_stm32f1xx.o
    0x08003f6c   0x08003f6c   0x00000008   Data   RO         1678    .constdata          system_stm32f1xx.o
    0x08003f74   0x08003f74   0x00000020   Data   RO         3847    Region$$Table       anon$$obj.o


    Execution Region RW_IRAM1 (Exec base: 0x20000000, Load base: 0x08003f94, Size: 0x000009c8, Max: 0x00005000, ABSOLUTE)

    Exec Addr    Load Addr    Size         Type   Attr      Idx    E Section Name        Object

    0x20000000   0x08003f94   0x00000004   Data   RW           22    .data               main.o
    0x20000004   0x08003f98   0x0000000c   Data   RW          447    .data               stm32f1xx_hal.o
    0x20000010   0x08003fa4   0x00000004   Data   RW         1679    .data               system_stm32f1xx.o
    0x20000014   0x08003fa8   0x00000004   Data   RW         1901    .data               los_init.o
    0x20000018   0x08003fac   0x00000008   Data   RW         1957    .data               los_priqueue.o
    0x20000020   0x08003fb4   0x0000001c   Data   RW         2065    .data               los_swtmr.o
    0x2000003c   0x08003fd0   0x00000048   Data   RW         2315    .data               los_task.o
    0x20000084   0x08004018   0x00000004   Data   RW         2571    .data               los_tick.o
    0x20000088   0x0800401c   0x00000010   Data   RW         2572    .data               los_tick.o
    0x20000098   0x0800402c   0x00000004   Data   RW         2575    .data               los_tick.o
    0x2000009c   0x08004030   0x00000008   Data   RW         2624    .data               los_timeslice.o
    0x200000a4   0x08004038   0x0000000c   Data   RW         2744    .data               los_mux.o
    0x200000b0   0x08004044   0x0000000c   Data   RW         2825    .data               los_queue.o
    0x200000bc   0x08004050   0x0000000c   Data   RW         2951    .data               los_sem.o
    0x200000c8   0x0800405c   0x00000010   Data   RW         3324    .data               los_heap.o
    0x200000d8   0x0800406c   0x00000004   Data   RW         3400    .data               los_memory.o
    0x200000dc   0x08004070   0x00000001   Data   RW         3664    .data               uart_msp.o
    0x200000dd   0x08004071   0x00000003   PAD
    0x200000e0        -       0x00000040   Zero   RW         2064    .bss                los_swtmr.o
    0x20000120        -       0x00000156   Zero   RW         2313    .bss                los_task.o
    0x20000276   0x08004071   0x00000002   PAD
    0x20000278        -       0x00000250   Zero   RW         3663    .bss                uart_msp.o
    0x200004c8        -       0x000000fb   Zero   RW         3726    .bss                debug.o
    0x200005c3   0x08004071   0x00000005   PAD
    0x200005c8        -       0x00000400   Zero   RW            1    STACK               startup_stm32f103xb.o


==============================================================================

Image component sizes


      Code (inc. data)   RO Data    RW Data    ZI Data      Debug   Object Name

        40          4          0          0        251       1127   debug.o
       204         24          0          0          0        400   los_dispatch_keil.o
       804         96          0         16          0       6910   los_heap.o
       204         20          0          0          0      13154   los_hw.o
       120         24          0          0          0      22885   los_hw_tick.o
        42          8          0          0          0       3688   los_hwi.o
       324        138          0          4          0       2256   los_init.o
       366         70          0          4          0       4462   los_memory.o
        20          0          0          0          0        580   los_misc.o
       102         14          0         12          0       2588   los_mux.o
       254         34          0          8          0      15274   los_priqueue.o
      1074         98          0         12          0      17236   los_queue.o
        98         12          0         12          0       2668   los_sem.o
       332          0          0          0          0       5794   los_slab.o
       314          0          0          0          0       3883   los_slabmem.o
       824         72          0         28         64      16482   los_swtmr.o
        12          6          0          0          0        463   los_sys.o
      2314        302          0         72        342      25332   los_task.o
        40          6          0         24          0        952   los_tick.o
        72         16          0          8          0       1181   los_timeslice.o
       874        220          0          4          0     415887   main.o
        60          0          0          0          0       1978   queue.o
        36          8        236          0       1024        772   startup_stm32f103xb.o
       152         24          0         12          0       5203   stm32f1xx_hal.o
       194         14          0          0          0      25663   stm32f1xx_hal_cortex.o
       552         38          0          0          0       4451   stm32f1xx_hal_gpio.o
        60          8          0          0          0        802   stm32f1xx_hal_msp.o
      1464         98          0          0          0       6360   stm32f1xx_hal_rcc.o
       816          4          0          0          0       3576   stm32f1xx_hal_uart.o
        42          0          0          0          0       3559   stm32f1xx_it.o
        72         16         24          4          0       1067   system_stm32f1xx.o
       340         48          0          1        592       3526   uart_msp.o

    ----------------------------------------------------------------------
     12244       1422        292        224       2280     620159   Object Totals
         0          0         32          0          0          0   (incl. Generated)
        22          0          0          3          7          0   (incl. Padding)

    ----------------------------------------------------------------------

      Code (inc. data)   RO Data    RW Data    ZI Data      Debug   Library Member Name

         0          0          0          0          0          0   entry.o
         0          0          0          0          0          0   entry10a.o
         0          0          0          0          0          0   entry11a.o
         8          4          0          0          0          0   entry2.o
         4          0          0          0          0          0   entry5.o
         0          0          0          0          0          0   entry7b.o
         0          0          0          0          0          0   entry8b.o
         8          4          0          0          0          0   entry9a.o
        30          0          0          0          0          0   handlers.o
        36          8          0          0          0         68   init.o
         0          0          0          0          0          0   iusefp.o
        30          0          0          0          0         68   llshl.o
        36          0          0          0          0         68   llsshr.o
        32          0          0          0          0         68   llushr.o
        36          0          0          0          0         68   memcpya.o
        36          0          0          0          0        108   memseta.o
      2272         86          0          0          0        516   printfa.o
        44          0          0          0          0         80   uidiv.o
        98          0          0          0          0         92   uldiv.o
        48          0          0          0          0         68   cdrcmple.o
       334          0          0          0          0        148   dadd.o
       222          0          0          0          0        100   ddiv.o
       186          0          0          0          0        176   depilogue.o
        48          0          0          0          0         68   dfixul.o
       228          0          0          0          0         96   dmul.o

    ----------------------------------------------------------------------
      3740        102          0          0          0       1792   Library Totals
         4          0          0          0          0          0   (incl. Padding)

    ----------------------------------------------------------------------

      Code (inc. data)   RO Data    RW Data    ZI Data      Debug   Library Name

      2670        102          0          0          0       1136   mc_w.l
      1066          0          0          0          0        656   mf_w.l

    ----------------------------------------------------------------------
      3740        102          0          0          0       1792   Library Totals

    ----------------------------------------------------------------------

==============================================================================


      Code (inc. data)   RO Data    RW Data    ZI Data      Debug   

     15984       1524        292        224       2280     614303   Grand Totals
     15984       1524        292        224       2280     614303   ELF Image Totals
     15984       1524        292        224          0          0   ROM Totals

==============================================================================

    Total RO  Size (Code + RO Data)                16276 (  15.89kB)
    Total RW  Size (RW Data + ZI Data)              2504 (   2.45kB)
    Total ROM Size (Code + RO Data + RW Data)      16500 (  16.11kB)

==============================================================================

