Component: ARM Compiler 5.06 update 5 (build 528) Tool: armlink [4d35e2]

==============================================================================

Section Cross References

    startup_stm32f103xb.o(RESET) refers to startup_stm32f103xb.o(STACK) for __initial_sp
    startup_stm32f103xb.o(RESET) refers to startup_stm32f103xb.o(.text) for Reset_Handler
    startup_stm32f103xb.o(RESET) refers to stm32f1xx_it.o(i.NMI_Handler) for NMI_Handler
    startup_stm32f103xb.o(RESET) refers to stm32f1xx_it.o(i.HardFault_Handler) for HardFault_Handler
    startup_stm32f103xb.o(RESET) refers to stm32f1xx_it.o(i.MemManage_Handler) for MemManage_Handler
    startup_stm32f103xb.o(RESET) refers to stm32f1xx_it.o(i.BusFault_Handler) for BusFault_Handler
    startup_stm32f103xb.o(RESET) refers to stm32f1xx_it.o(i.UsageFault_Handler) for UsageFault_Handler
    startup_stm32f103xb.o(RESET) refers to stm32f1xx_it.o(i.SVC_Handler) for SVC_Handler
    startup_stm32f103xb.o(RESET) refers to stm32f1xx_it.o(i.DebugMon_Handler) for DebugMon_Handler
    startup_stm32f103xb.o(RESET) refers to los_dispatch_keil.o(.text) for PendSV_Handler
    startup_stm32f103xb.o(RESET) refers to los_hwi.o(i.SysTick_Handler) for SysTick_Handler
    startup_stm32f103xb.o(RESET) refers to stm32f1xx_it.o(i.EXTI0_IRQHandler) for EXTI0_IRQHandler
    startup_stm32f103xb.o(RESET) refers to stm32f1xx_it.o(i.EXTI9_5_IRQHandler) for EXTI9_5_IRQHandler
    startup_stm32f103xb.o(RESET) refers to uart_msp.o(i.USART1_IRQHandler) for USART1_IRQHandler
    startup_stm32f103xb.o(.text) refers to system_stm32f1xx.o(i.SystemInit) for SystemInit
    startup_stm32f103xb.o(.text) refers to entry.o(.ARM.Collect$$$$00000000) for __main
    main.o(i.MX_GPIO_Init) refers to stm32f1xx_hal_gpio.o(i.HAL_GPIO_Init) for HAL_GPIO_Init
    main.o(i.MX_GPIO_Init) refers to stm32f1xx_hal_gpio.o(i.HAL_GPIO_WritePin) for HAL_GPIO_WritePin
==============================================================================

Removing Unused input sections from the image.

    Removing startup_stm32f103xb.o(HEAP), (1024 bytes).
    Removing main.o(.rev16_text), (4 bytes).
    Removing main.o(.revsh_text), (4 bytes).
    Removing main.o(.rrx_text), (6 bytes).
    Removing stm32f1xx_it.o(.rev16_text), (4 bytes).
    Removing stm32f1xx_it.o(.revsh_text), (4 bytes).
    Removing stm32f1xx_it.o(.rrx_text), (6 bytes).
    Removing stm32f1xx_it.o(i.PendSV_Handler), (2 bytes).
    Removing stm32f1xx_it.o(i.SysTick_Handler), (4 bytes).
    Removing stm32f1xx_hal_msp.o(.rev16_text), (4 bytes).
    Removing stm32f1xx_hal_msp.o(.revsh_text), (4 bytes).
    Removing stm32f1xx_hal_msp.o(.rrx_text), (6 bytes).
    Removing task.o(.rev16_text), (4 bytes).
    Removing task.o(.revsh_text), (4 bytes).
    Removing task.o(.rrx_text), (6 bytes).
    Removing stm32f1xx_hal_gpio_ex.o(.rev16_text), (4 bytes).
    Removing stm32f1xx_hal_gpio_ex.o(.revsh_text), (4 bytes).
    Removing stm32f1xx_hal_gpio_ex.o(.rrx_text), (6 bytes).
==============================================================================

Image Symbol Table

    Local Symbols

    Symbol Name                              Value     Ov Type        Size  Object(Section)

    ../Drivers/STM32F1xx_HAL_Driver/Src/stm32f1xx_hal.c 0x00000000   Number         0  stm32f1xx_hal.o ABSOLUTE
    ../Drivers/STM32F1xx_HAL_Driver/Src/stm32f1xx_hal_cortex.c 0x00000000   Number         0  stm32f1xx_hal_cortex.o ABSOLUTE
    ../Drivers/STM32F1xx_HAL_Driver/Src/stm32f1xx_hal_dma.c 0x00000000   Number         0  stm32f1xx_hal_dma.o ABSOLUTE
    ../Drivers/STM32F1xx_HAL_Driver/Src/stm32f1xx_hal_flash.c 0x00000000   Number         0  stm32f1xx_hal_flash.o ABSOLUTE
    ../Drivers/STM32F1xx_HAL_Driver/Src/stm32f1xx_hal_flash_ex.c 0x00000000   Number         0  stm32f1xx_hal_flash_ex.o ABSOLUTE
    ../Drivers/STM32F1xx_HAL_Driver/Src/stm32f1xx_hal_gpio.c 0x00000000   Number         0  stm32f1xx_hal_gpio.o ABSOLUTE
    ../Drivers/STM32F1xx_HAL_Driver/Src/stm32f1xx_hal_gpio_ex.c 0x00000000   Number         0  stm32f1xx_hal_gpio_ex.o ABSOLUTE
    ../Drivers/STM32F1xx_HAL_Driver/Src/stm32f1xx_hal_pwr.c 0x00000000   Number         0  stm32f1xx_hal_pwr.o ABSOLUTE
    ../Drivers/STM32F1xx_HAL_Driver/Src/stm32f1xx_hal_rcc.c 0x00000000   Number         0  stm32f1xx_hal_rcc.o ABSOLUTE
    ../Drivers/STM32F1xx_HAL_Driver/Src/stm32f1xx_hal_rcc_ex.c 0x00000000   Number         0  stm32f1xx_hal_rcc_ex.o ABSOLUTE
    ../Drivers/STM32F1xx_HAL_Driver/Src/stm32f1xx_hal_tim.c 0x00000000   Number         0  stm32f1xx_hal_tim.o ABSOLUTE
    ../Drivers/STM32F1xx_HAL_Driver/Src/stm32f1xx_hal_tim_ex.c 0x00000000   Number         0  stm32f1xx_hal_tim_ex.o ABSOLUTE
    ../Src/main.c                            0x00000000   Number         0  main.o ABSOLUTE
    ../Src/stm32f1xx_hal_msp.c               0x00000000   Number         0  stm32f1xx_hal_msp.o ABSOLUTE
    ../Src/stm32f1xx_it.c                    0x00000000   Number         0  stm32f1xx_it.o ABSOLUTE
    ../Src/system_stm32f1xx.c                0x00000000   Number         0  system_stm32f1xx.o ABSOLUTE
    ../clib/microlib/division.c              0x00000000   Number         0  uidiv.o ABSOLUTE
    ../clib/microlib/division.c              0x00000000   Number         0  uldiv.o ABSOLUTE
    ../clib/microlib/init/entry.s            0x00000000   Number         0  entry.o ABSOLUTE
    ../clib/microlib/init/entry.s            0x00000000   Number         0  entry11a.o ABSOLUTE
    ../clib/microlib/init/entry.s            0x00000000   Number         0  entry8b.o ABSOLUTE
    ../clib/microlib/init/entry.s            0x00000000   Number         0  entry5.o ABSOLUTE
    ../clib/microlib/init/entry.s            0x00000000   Number         0  entry7a.o ABSOLUTE
    ../clib/microlib/init/entry.s            0x00000000   Number         0  entry7b.o ABSOLUTE
    ../clib/microlib/init/entry.s            0x00000000   Number         0  entry8a.o ABSOLUTE
    ../clib/microlib/init/entry.s            0x00000000   Number         0  entry11b.o ABSOLUTE
    ../clib/microlib/init/entry.s            0x00000000   Number         0  entry10b.o ABSOLUTE
    ../clib/microlib/init/entry.s            0x00000000   Number         0  entry10a.o ABSOLUTE
    ../clib/microlib/init/entry.s            0x00000000   Number         0  entry9b.o ABSOLUTE
    ../clib/microlib/init/entry.s            0x00000000   Number         0  entry9a.o ABSOLUTE
    ../clib/microlib/init/entry.s            0x00000000   Number         0  entry2.o ABSOLUTE
    ../clib/microlib/longlong.c              0x00000000   Number         0  llsshr.o ABSOLUTE
    ../clib/microlib/longlong.c              0x00000000   Number         0  llshl.o ABSOLUTE
    ../clib/microlib/longlong.c              0x00000000   Number         0  llushr.o ABSOLUTE
    ../clib/microlib/printf/printf.c         0x00000000   Number         0  printfa.o ABSOLUTE
    ../clib/microlib/stdio/fputc.c           0x00000000   Number         0  fputc.o ABSOLUTE
    ../clib/microlib/stdio/semi.s            0x00000000   Number         0  semi.o ABSOLUTE
    ../clib/microlib/stdio/streams.c         0x00000000   Number         0  stdout.o ABSOLUTE
    ../clib/microlib/string/memcpy.c         0x00000000   Number         0  memcpyb.o ABSOLUTE
    ../clib/microlib/string/memcpy.c         0x00000000   Number         0  memcpya.o ABSOLUTE
    ../clib/microlib/string/memset.c         0x00000000   Number         0  memseta.o ABSOLUTE
    ../clib/microlib/string/strncpy.c        0x00000000   Number         0  strncpy.o ABSOLUTE
    ../clib/microlib/stubs.s                 0x00000000   Number         0  iusefp.o ABSOLUTE
    ../clib/microlib/stubs.s                 0x00000000   Number         0  iusesemip.o ABSOLUTE
    ../fplib/microlib/fpadd.c                0x00000000   Number         0  dadd.o ABSOLUTE
    ../fplib/microlib/fpdiv.c                0x00000000   Number         0  ddiv.o ABSOLUTE
    ../fplib/microlib/fpepilogue.c           0x00000000   Number         0  depilogue.o ABSOLUTE
    ../fplib/microlib/fpfix.c                0x00000000   Number         0  dfixul.o ABSOLUTE
    ../fplib/microlib/fpflt.c                0x00000000   Number         0  dfltui.o ABSOLUTE
    ../fplib/microlib/fpflt.c                0x00000000   Number         0  dfltul.o ABSOLUTE
    ../fplib/microlib/fpmul.c                0x00000000   Number         0  dmul.o ABSOLUTE
    ..\Drivers\STM32F1xx_HAL_Driver\Src\stm32f1xx_hal.c 0x00000000   Number         0  stm32f1xx_hal.o ABSOLUTE
    ..\Drivers\STM32F1xx_HAL_Driver\Src\stm32f1xx_hal_cortex.c 0x00000000   Number         0  stm32f1xx_hal_cortex.o ABSOLUTE
    ..\Drivers\STM32F1xx_HAL_Driver\Src\stm32f1xx_hal_dma.c 0x00000000   Number         0  stm32f1xx_hal_dma.o ABSOLUTE
    ..\Drivers\STM32F1xx_HAL_Driver\Src\stm32f1xx_hal_flash.c 0x00000000   Number         0  stm32f1xx_hal_flash.o ABSOLUTE
    ..\Drivers\STM32F1xx_HAL_Driver\Src\stm32f1xx_hal_flash_ex.c 0x00000000   Number         0  stm32f1xx_hal_flash_ex.o ABSOLUTE
    ..\Drivers\STM32F1xx_HAL_Driver\Src\stm32f1xx_hal_gpio.c 0x00000000   Number         0  stm32f1xx_hal_gpio.o ABSOLUTE
    ..\Drivers\STM32F1xx_HAL_Driver\Src\stm32f1xx_hal_gpio_ex.c 0x00000000   Number         0  stm32f1xx_hal_gpio_ex.o ABSOLUTE
    ..\Drivers\STM32F1xx_HAL_Driver\Src\stm32f1xx_hal_pwr.c 0x00000000   Number         0  stm32f1xx_hal_pwr.o ABSOLUTE
    ..\Drivers\STM32F1xx_HAL_Driver\Src\stm32f1xx_hal_rcc.c 0x00000000   Number         0  stm32f1xx_hal_rcc.o ABSOLUTE
    ..\Drivers\STM32F1xx_HAL_Driver\Src\stm32f1xx_hal_rcc_ex.c 0x00000000   Number         0  stm32f1xx_hal_rcc_ex.o ABSOLUTE
    ..\Drivers\STM32F1xx_HAL_Driver\Src\stm32f1xx_hal_tim.c 0x00000000   Number         0  stm32f1xx_hal_tim.o ABSOLUTE
    ..\Drivers\STM32F1xx_HAL_Driver\Src\stm32f1xx_hal_tim_ex.c 0x00000000   Number         0  stm32f1xx_hal_tim_ex.o ABSOLUTE
    ..\Drivers\STM32F1xx_HAL_Driver\Src\stm32f1xx_hal_uart.c 0x00000000   Number         0  stm32f1xx_hal_uart.o ABSOLUTE
    ..\Drivers\STM32F1xx_HAL_Driver\Src\stm32f1xx_ll_usart.c 0x00000000   Number         0  stm32f1xx_ll_usart.o ABSOLUTE
    ..\Middlewares\arch\arm\arm-m\cortex-m3\keil\los_dispatch_keil.S 0x00000000   Number         0  los_dispatch_keil.o ABSOLUTE
    ..\Middlewares\arch\arm\arm-m\src\los_hw.c 0x00000000   Number         0  los_hw.o ABSOLUTE
    ..\Middlewares\arch\arm\arm-m\src\los_hw_tick.c 0x00000000   Number         0  los_hw_tick.o ABSOLUTE
    ..\Middlewares\arch\arm\arm-m\src\los_hwi.c 0x00000000   Number         0  los_hwi.o ABSOLUTE
    ..\Middlewares\kernel\base\core\los_priqueue.c 0x00000000   Number         0  los_priqueue.o ABSOLUTE
    ..\Middlewares\kernel\base\core\los_swtmr.c 0x00000000   Number         0  los_swtmr.o ABSOLUTE
    ..\Middlewares\kernel\base\core\los_sys.c 0x00000000   Number         0  los_sys.o ABSOLUTE
    ..\Middlewares\kernel\base\core\los_task.c 0x00000000   Number         0  los_task.o ABSOLUTE
    ..\Middlewares\kernel\base\core\los_tick.c 0x00000000   Number         0  los_tick.o ABSOLUTE
    ..\Middlewares\kernel\base\core\los_timeslice.c 0x00000000   Number         0  los_timeslice.o ABSOLUTE
    ..\Middlewares\kernel\base\ipc\los_event.c 0x00000000   Number         0  los_event.o ABSOLUTE
    ..\Middlewares\kernel\base\ipc\los_mux.c 0x00000000   Number         0  los_mux.o ABSOLUTE
    ..\Middlewares\kernel\base\ipc\los_queue.c 0x00000000   Number         0  los_queue.o ABSOLUTE
    ..\Middlewares\kernel\base\ipc\los_sem.c 0x00000000   Number         0  los_sem.o ABSOLUTE
    ..\Middlewares\kernel\base\mem\bestfit_little\los_heap.c 0x00000000   Number         0  los_heap.o ABSOLUTE
    ..\Middlewares\kernel\base\mem\bestfit_little\los_memory.c 0x00000000   Number         0  los_memory.o ABSOLUTE
    ..\Middlewares\kernel\base\mem\common\los_memcheck.c 0x00000000   Number         0  los_memcheck.o ABSOLUTE
    ..\Middlewares\kernel\base\mem\common\los_memstat.c 0x00000000   Number         0  los_memstat.o ABSOLUTE
    ..\Middlewares\kernel\base\mem\common\los_slab.c 0x00000000   Number         0  los_slab.o ABSOLUTE
    ..\Middlewares\kernel\base\mem\common\los_slabmem.c 0x00000000   Number         0  los_slabmem.o ABSOLUTE
    ..\Middlewares\kernel\base\mem\membox\los_membox.c 0x00000000   Number         0  los_membox.o ABSOLUTE
    ..\Middlewares\kernel\base\misc\los_misc.c 0x00000000   Number         0  los_misc.o ABSOLUTE
    ..\Middlewares\kernel\base\om\los_err.c  0x00000000   Number         0  los_err.o ABSOLUTE
    ..\Middlewares\kernel\extended\tickless\los_tickless.c 0x00000000   Number         0  los_tickless.o ABSOLUTE
    ..\Middlewares\kernel\los_init.c         0x00000000   Number         0  los_init.o ABSOLUTE
    ..\Src\Debug.c                           0x00000000   Number         0  debug.o ABSOLUTE
    ..\Src\Queue.c                           0x00000000   Number         0  queue.o ABSOLUTE
    ..\Src\Task.c                            0x00000000   Number         0  task.o ABSOLUTE
    ..\Src\Uart_msp.c                        0x00000000   Number         0  uart_msp.o ABSOLUTE
    ..\Src\main.c                            0x00000000   Number         0  main.o ABSOLUTE
    ..\Src\stm32f1xx_hal_msp.c               0x00000000   Number         0  stm32f1xx_hal_msp.o ABSOLUTE
    ..\Src\stm32f1xx_it.c                    0x00000000   Number         0  stm32f1xx_it.o ABSOLUTE
    ..\Src\system_stm32f1xx.c                0x00000000   Number         0  system_stm32f1xx.o ABSOLUTE
    ..\\Drivers\\STM32F1xx_HAL_Driver\\Src\\stm32f1xx_hal_uart.c 0x00000000   Number         0  stm32f1xx_hal_uart.o ABSOLUTE
    ..\\Middlewares\\arch\\arm\\arm-m\\src\\los_hw.c 0x00000000   Number         0  los_hw.o ABSOLUTE
    ..\\Middlewares\\arch\\arm\\arm-m\\src\\los_hw_tick.c 0x00000000   Number         0  los_hw_tick.o ABSOLUTE
    ..\\Middlewares\\arch\\arm\\arm-m\\src\\los_hwi.c 0x00000000   Number         0  los_hwi.o ABSOLUTE
    ..\\Middlewares\\kernel\\base\\core\\los_priqueue.c 0x00000000   Number         0  los_priqueue.o ABSOLUTE
    ..\\Middlewares\\kernel\\base\\core\\los_swtmr.c 0x00000000   Number         0  los_swtmr.o ABSOLUTE
    ..\\Middlewares\\kernel\\base\\core\\los_sys.c 0x00000000   Number         0  los_sys.o ABSOLUTE
    ..\\Middlewares\\kernel\\base\\core\\los_task.c 0x00000000   Number         0  los_task.o ABSOLUTE
    ..\\Middlewares\\kernel\\base\\core\\los_tick.c 0x00000000   Number         0  los_tick.o ABSOLUTE
    ..\\Middlewares\\kernel\\base\\core\\los_timeslice.c 0x00000000   Number         0  los_timeslice.o ABSOLUTE
    ..\\Middlewares\\kernel\\base\\ipc\\los_event.c 0x00000000   Number         0  los_event.o ABSOLUTE
    ..\\Middlewares\\kernel\\base\\ipc\\los_mux.c 0x00000000   Number         0  los_mux.o ABSOLUTE
    ..\\Middlewares\\kernel\\base\\ipc\\los_queue.c 0x00000000   Number         0  los_queue.o ABSOLUTE
    ..\\Middlewares\\kernel\\base\\ipc\\los_sem.c 0x00000000   Number         0  los_sem.o ABSOLUTE
    ..\\Middlewares\\kernel\\base\\mem\\bestfit_little\\los_heap.c 0x00000000   Number         0  los_heap.o ABSOLUTE
    ..\\Middlewares\\kernel\\base\\mem\\bestfit_little\\los_memory.c 0x00000000   Number         0  los_memory.o ABSOLUTE
    ..\\Middlewares\\kernel\\base\\mem\\common\\los_memcheck.c 0x00000000   Number         0  los_memcheck.o ABSOLUTE
    ..\\Middlewares\\kernel\\base\\mem\\common\\los_memstat.c 0x00000000   Number         0  los_memstat.o ABSOLUTE
    ..\\Middlewares\\kernel\\base\\mem\\common\\los_slab.c 0x00000000   Number         0  los_slab.o ABSOLUTE
    ..\\Middlewares\\kernel\\base\\mem\\common\\los_slabmem.c 0x00000000   Number         0  los_slabmem.o ABSOLUTE
    ..\\Middlewares\\kernel\\base\\mem\\membox\\los_membox.c 0x00000000   Number         0  los_membox.o ABSOLUTE
    ..\\Middlewares\\kernel\\base\\misc\\los_misc.c 0x00000000   Number         0  los_misc.o ABSOLUTE
    ..\\Middlewares\\kernel\\base\\om\\los_err.c 0x00000000   Number         0  los_err.o ABSOLUTE
    ..\\Middlewares\\kernel\\extended\\tickless\\los_tickless.c 0x00000000   Number         0  los_tickless.o ABSOLUTE
    ..\\Middlewares\\kernel\\los_init.c      0x00000000   Number         0  los_init.o ABSOLUTE
    ..\\Src\\Debug.c                         0x00000000   Number         0  debug.o ABSOLUTE
    ..\\Src\\Task.c                          0x00000000   Number         0  task.o ABSOLUTE
    ..\\Src\\Uart_msp.c                      0x00000000   Number         0  uart_msp.o ABSOLUTE
    cdrcmple.s                               0x00000000   Number         0  cdrcmple.o ABSOLUTE
    dc.s                                     0x00000000   Number         0  dc.o ABSOLUTE
    handlers.s                               0x00000000   Number         0  handlers.o ABSOLUTE
    init.s                                   0x00000000   Number         0  init.o ABSOLUTE
    startup_stm32f103xb.s                    0x00000000   Number         0  startup_stm32f103xb.o ABSOLUTE
    RESET                                    0x08000000   Section      236  startup_stm32f103xb.o(RESET)
    .ARM.Collect$$$$00000000                 0x080000ec   Section        0  entry.o(.ARM.Collect$$$$00000000)
    .ARM.Collect$$$$00000001                 0x080000ec   Section        4  entry2.o(.ARM.Collect$$$$00000001)
    .ARM.Collect$$$$00000004                 0x080000f0   Section        4  entry5.o(.ARM.Collect$$$$00000004)
    .ARM.Collect$$$$00000008                 0x080000f4   Section        0  entry7b.o(.ARM.Collect$$$$00000008)
    .ARM.Collect$$$$0000000A                 0x080000f4   Section        0  entry8b.o(.ARM.Collect$$$$0000000A)
    .ARM.Collect$$$$0000000B                 0x080000f4   Section        8  entry9a.o(.ARM.Collect$$$$0000000B)
    .ARM.Collect$$$$0000000D                 0x080000fc   Section        0  entry10a.o(.ARM.Collect$$$$0000000D)
    .ARM.Collect$$$$0000000F                 0x080000fc   Section        0  entry11a.o(.ARM.Collect$$$$0000000F)
    .ARM.Collect$$$$00002712                 0x080000fc   Section        4  entry2.o(.ARM.Collect$$$$00002712)
    __lit__00000000                          0x080000fc   Data           4  entry2.o(.ARM.Collect$$$$00002712)
    .text                                    0x08000100   Section       36  startup_stm32f103xb.o(.text)
    .text                                    0x08000124   Section      204  los_dispatch_keil.o(.text)
    .text                                    0x080001f0   Section        0  uldiv.o(.text)
    .text                                    0x08000252   Section        0  llushr.o(.text)
    .text                                    0x08000272   Section        0  memcpya.o(.text)
    .text                                    0x08000296   Section        0  memseta.o(.text)
    .text                                    0x080002ba   Section        0  ddiv.o(.text)
    .text                                    0x08000398   Section        0  dfixul.o(.text)
    .text                                    0x080003c8   Section        0  uidiv.o(.text)
    .text                                    0x080003f4   Section        0  llshl.o(.text)
    .text                                    0x08000412   Section        0  depilogue.o(.text)
    .text                                    0x08000412   Section        0  iusefp.o(.text)
    .text                                    0x080004cc   Section        0  dadd.o(.text)
    .text                                    0x0800061a   Section        0  dmul.o(.text)
    .text                                    0x08000700   Section       48  cdrcmple.o(.text)
    .text                                    0x08000730   Section       36  init.o(.text)
    .text                                    0x08000754   Section        0  llsshr.o(.text)
    i.BusFault_Handler                       0x08000778   Section        0  stm32f1xx_it.o(i.BusFault_Handler)
    i.DebugMon_Handler                       0x0800077a   Section        0  stm32f1xx_it.o(i.DebugMon_Handler)
    i.Debug_Printf                           0x0800077c   Section        0  debug.o(i.Debug_Printf)
    i.EXTI0_IRQHandler                       0x080007e0   Section        0  stm32f1xx_it.o(i.EXTI0_IRQHandler)
    i.EXTI9_5_IRQHandler                     0x080007e6   Section        0  stm32f1xx_it.o(i.EXTI9_5_IRQHandler)
    i.Error_Handler                          0x080007fc   Section        0  main.o(i.Error_Handler)
    i.HAL_GPIO_EXTI_Callback                 0x080007fe   Section        0  main.o(i.HAL_GPIO_EXTI_Callback)
    i.HAL_GPIO_EXTI_IRQHandler               0x08000800   Section        0  stm32f1xx_hal_gpio.o(i.HAL_GPIO_EXTI_IRQHandler)
    i.HAL_GPIO_Init                          0x08000818   Section        0  stm32f1xx_hal_gpio.o(i.HAL_GPIO_Init)
    i.HAL_GPIO_TogglePin                     0x08000a04   Section        0  stm32f1xx_hal_gpio.o(i.HAL_GPIO_TogglePin)
    i.HAL_GPIO_WritePin                      0x08000a0c   Section        0  stm32f1xx_hal_gpio.o(i.HAL_GPIO_WritePin)
    i.HAL_GetTick                            0x08000a1c   Section        0  stm32f1xx_hal.o(i.HAL_GetTick)
    i.HAL_Init                               0x08000a28   Section        0  stm32f1xx_hal.o(i.HAL_Init)
    i.HAL_InitTick                           0x08000a4c   Section        0  stm32f1xx_hal.o(i.HAL_InitTick)
    i.HAL_MspInit                            0x08000a90   Section        0  stm32f1xx_hal_msp.o(i.HAL_MspInit)
    i.HAL_NVIC_EnableIRQ                     0x08000acc   Section        0  stm32f1xx_hal_cortex.o(i.HAL_NVIC_EnableIRQ)
    i.HAL_NVIC_SetPriority                   0x08000ae4   Section        0  stm32f1xx_hal_cortex.o(i.HAL_NVIC_SetPriority)
    i.HAL_NVIC_SetPriorityGrouping           0x08000b24   Section        0  stm32f1xx_hal_cortex.o(i.HAL_NVIC_SetPriorityGrouping)
    i.HAL_RCC_ClockConfig                    0x08000b48   Section        0  stm32f1xx_hal_rcc.o(i.HAL_RCC_ClockConfig)
    i.HAL_RCC_GetHCLKFreq                    0x08000cc4   Section        0  stm32f1xx_hal_rcc.o(i.HAL_RCC_GetHCLKFreq)
    i.HAL_RCC_GetPCLK1Freq                   0x08000cd0   Section        0  stm32f1xx_hal_rcc.o(i.HAL_RCC_GetPCLK1Freq)
    i.HAL_RCC_GetPCLK2Freq                   0x08000cf0   Section        0  stm32f1xx_hal_rcc.o(i.HAL_RCC_GetPCLK2Freq)
    i.HAL_RCC_GetSysClockFreq                0x08000d10   Section        0  stm32f1xx_hal_rcc.o(i.HAL_RCC_GetSysClockFreq)
    i.HAL_RCC_OscConfig                      0x08000d84   Section        0  stm32f1xx_hal_rcc.o(i.HAL_RCC_OscConfig)
    i.HAL_SYSTICK_Config                     0x080010dc   Section        0  stm32f1xx_hal_cortex.o(i.HAL_SYSTICK_Config)
    i.HAL_UART_Init                          0x08001104   Section        0  stm32f1xx_hal_uart.o(i.HAL_UART_Init)
    i.HAL_UART_MspInit                       0x08001168   Section        0  uart_msp.o(i.HAL_UART_MspInit)
    i.HAL_UART_Transmit                      0x080011e8   Section        0  stm32f1xx_hal_uart.o(i.HAL_UART_Transmit)
    i.HardFault_Handler                      0x080012b4   Section        0  stm32f1xx_it.o(i.HardFault_Handler)
    i.LOS_Align                              0x080012b6   Section        0  los_misc.o(i.LOS_Align)
    i.LOS_ErrHandle                          0x080012cc   Section        0  los_err.o(i.LOS_ErrHandle)
    i.LOS_KernelInit                         0x080012f8   Section        0  los_init.o(i.LOS_KernelInit)
    i.LOS_ListAdd                            0x080013f0   Section        0  los_task.o(i.LOS_ListAdd)
    LOS_ListAdd                              0x080013f1   Thumb Code    14  los_task.o(i.LOS_ListAdd)
    i.LOS_ListAdd                            0x080013fe   Section        0  los_mux.o(i.LOS_ListAdd)
    LOS_ListAdd                              0x080013ff   Thumb Code    14  los_mux.o(i.LOS_ListAdd)
    i.LOS_ListAdd                            0x0800140c   Section        0  los_queue.o(i.LOS_ListAdd)
    LOS_ListAdd                              0x0800140d   Thumb Code    14  los_queue.o(i.LOS_ListAdd)
    i.LOS_ListAdd                            0x0800141a   Section        0  los_sem.o(i.LOS_ListAdd)
    LOS_ListAdd                              0x0800141b   Thumb Code    14  los_sem.o(i.LOS_ListAdd)
    i.LOS_ListDelete                         0x08001428   Section        0  los_task.o(i.LOS_ListDelete)
    LOS_ListDelete                           0x08001429   Thumb Code    20  los_task.o(i.LOS_ListDelete)
    i.LOS_ListEmpty                          0x0800143c   Section        0  los_priqueue.o(i.LOS_ListEmpty)
    LOS_ListEmpty                            0x0800143d   Thumb Code    14  los_priqueue.o(i.LOS_ListEmpty)
    i.LOS_ListEmpty                          0x0800144a   Section        0  los_task.o(i.LOS_ListEmpty)
    LOS_ListEmpty                            0x0800144b   Thumb Code    14  los_task.o(i.LOS_ListEmpty)
    i.LOS_ListEmpty                          0x08001458   Section        0  los_mux.o(i.LOS_ListEmpty)
    LOS_ListEmpty                            0x08001459   Thumb Code    14  los_mux.o(i.LOS_ListEmpty)
    i.LOS_ListEmpty                          0x08001466   Section        0  los_queue.o(i.LOS_ListEmpty)
    LOS_ListEmpty                            0x08001467   Thumb Code    14  los_queue.o(i.LOS_ListEmpty)
    i.LOS_ListTailInsert                     0x08001474   Section        0  los_task.o(i.LOS_ListTailInsert)
    LOS_ListTailInsert                       0x08001475   Thumb Code     6  los_task.o(i.LOS_ListTailInsert)
    i.LOS_MemAlloc                           0x0800147a   Section        0  los_memory.o(i.LOS_MemAlloc)
    i.LOS_MemAllocAlign                      0x080014a4   Section        0  los_memory.o(i.LOS_MemAllocAlign)
    i.LOS_MemFree                            0x080014a8   Section        0  los_memory.o(i.LOS_MemFree)
    i.LOS_MemInit                            0x080014d8   Section        0  los_memory.o(i.LOS_MemInit)
    i.LOS_MuxCreate                          0x080015d0   Section        0  los_mux.o(i.LOS_MuxCreate)
    i.LOS_MuxPend                            0x0800165c   Section        0  los_mux.o(i.LOS_MuxPend)
    i.LOS_MuxPost                            0x080017cc   Section        0  los_mux.o(i.LOS_MuxPost)
    i.LOS_QueueCreate                        0x080018b0   Section        0  los_queue.o(i.LOS_QueueCreate)
    i.LOS_QueueReadCopy                      0x08001974   Section        0  los_queue.o(i.LOS_QueueReadCopy)
    i.LOS_QueueWriteCopy                     0x0800199e   Section        0  los_queue.o(i.LOS_QueueWriteCopy)
    i.LOS_Schedule                           0x080019cc   Section        0  los_hw.o(i.LOS_Schedule)
    i.LOS_Start                              0x08001a0c   Section        0  los_init.o(i.LOS_Start)
    i.LOS_TaskCreate                         0x08001a4c   Section        0  los_task.o(i.LOS_TaskCreate)
    i.LOS_TaskCreateOnly                     0x08001ac0   Section        0  los_task.o(i.LOS_TaskCreateOnly)
    i.LOS_TaskDelay                          0x08001c2c   Section        0  los_task.o(i.LOS_TaskDelay)
    i.LOS_TaskDelete                         0x08001c98   Section        0  los_task.o(i.LOS_TaskDelete)
    i.LOS_TaskYield                          0x08001dec   Section        0  los_task.o(i.LOS_TaskYield)
    i.LOS_TickCountGet                       0x08001e5c   Section        0  los_sys.o(i.LOS_TickCountGet)
    i.MX_GPIO_Init                           0x08001e68   Section        0  main.o(i.MX_GPIO_Init)
    MX_GPIO_Init                             0x08001e69   Thumb Code   258  main.o(i.MX_GPIO_Init)
    i.MemManage_Handler                      0x08001f84   Section        0  stm32f1xx_it.o(i.MemManage_Handler)
    i.NMI_Handler                            0x08001f86   Section        0  stm32f1xx_it.o(i.NMI_Handler)
    i.NVIC_SetPriority                       0x08001f88   Section        0  stm32f1xx_hal_cortex.o(i.NVIC_SetPriority)
    NVIC_SetPriority                         0x08001f89   Thumb Code    32  stm32f1xx_hal_cortex.o(i.NVIC_SetPriority)
    i.QUEUE_PacketCreate                     0x08001fa8   Section        0  queue.o(i.QUEUE_PacketCreate)
    i.QUEUE_PacketIn                         0x08001fb4   Section        0  queue.o(i.QUEUE_PacketIn)
    i.RCC_Delay                              0x08001fe4   Section        0  stm32f1xx_hal_rcc.o(i.RCC_Delay)
    RCC_Delay                                0x08001fe5   Thumb Code    30  stm32f1xx_hal_rcc.o(i.RCC_Delay)
    i.SVC_Handler                            0x08002008   Section        0  stm32f1xx_it.o(i.SVC_Handler)
    i.SysTick_Handler                        0x0800200c   Section        0  los_hwi.o(i.SysTick_Handler)
    i.SystemClock_Config                     0x08002030   Section        0  main.o(i.SystemClock_Config)
    i.SystemInit                             0x08002088   Section        0  system_stm32f1xx.o(i.SystemInit)
    i.UART_SetConfig                         0x080020d0   Section        0  stm32f1xx_hal_uart.o(i.UART_SetConfig)
    UART_SetConfig                           0x080020d1   Thumb Code   408  stm32f1xx_hal_uart.o(i.UART_SetConfig)
    i.UART_WaitOnFlagUntilTimeout            0x0800226c   Section        0  stm32f1xx_hal_uart.o(i.UART_WaitOnFlagUntilTimeout)
    UART_WaitOnFlagUntilTimeout              0x0800226d   Thumb Code   100  stm32f1xx_hal_uart.o(i.UART_WaitOnFlagUntilTimeout)
    i.USART1_IRQHandler                      0x080022d0   Section        0  uart_msp.o(i.USART1_IRQHandler)
    i.Uart_Init                              0x08002318   Section        0  uart_msp.o(i.Uart_Init)
    i.Uart_Write                             0x08002370   Section        0  uart_msp.o(i.Uart_Write)
    i.UsageFault_Handler                     0x080023a4   Section        0  stm32f1xx_it.o(i.UsageFault_Handler)
    i.__0vsprintf                            0x080023a8   Section        0  printfa.o(i.__0vsprintf)
    i.__scatterload_copy                     0x080023cc   Section       14  handlers.o(i.__scatterload_copy)
    i.__scatterload_null                     0x080023da   Section        2  handlers.o(i.__scatterload_null)
    i.__scatterload_zeroinit                 0x080023dc   Section       14  handlers.o(i.__scatterload_zeroinit)
    i._fp_digits                             0x080023ec   Section        0  printfa.o(i._fp_digits)
    _fp_digits                               0x080023ed   Thumb Code   366  printfa.o(i._fp_digits)
    i._printf_core                           0x08002570   Section        0  printfa.o(i._printf_core)
    _printf_core                             0x08002571   Thumb Code  1744  printfa.o(i._printf_core)
    i._printf_post_padding                   0x08002c4c   Section        0  printfa.o(i._printf_post_padding)
    _printf_post_padding                     0x08002c4d   Thumb Code    36  printfa.o(i._printf_post_padding)
    i._printf_pre_padding                    0x08002c70   Section        0  printfa.o(i._printf_pre_padding)
    _printf_pre_padding                      0x08002c71   Thumb Code    46  printfa.o(i._printf_pre_padding)
    i._sputc                                 0x08002c9e   Section        0  printfa.o(i._sputc)
    _sputc                                   0x08002c9f   Thumb Code    10  printfa.o(i._sputc)
    i.create_task1                           0x08002ca8   Section        0  task.o(i.create_task1)
    i.create_task2                           0x08002cdc   Section        0  task.o(i.create_task2)
    i.main                                   0x08002d10   Section        0  main.o(i.main)
    i.osAlarmHeapInfo                        0x08002dc8   Section        0  los_heap.o(i.osAlarmHeapInfo)
    i.osAtomicBitsetClearBit                 0x08002de2   Section        0  los_slab.o(i.osAtomicBitsetClearBit)
    i.osAtomicBitsetFindClearAndSet          0x08002e00   Section        0  los_slab.o(i.osAtomicBitsetFindClearAndSet)
    i.osAtomicBitsetGetBit                   0x08002e42   Section        0  los_slab.o(i.osAtomicBitsetGetBit)
    i.osAtomicBitsetInit                     0x08002e64   Section        0  los_slab.o(i.osAtomicBitsetInit)
    i.osHeapAlloc                            0x08002e90   Section        0  los_heap.o(i.osHeapAlloc)
    i.osHeapAllocAlign                       0x08002fb4   Section        0  los_heap.o(i.osHeapAllocAlign)
    i.osHeapFree                             0x08002ff4   Section        0  los_heap.o(i.osHeapFree)
    i.osHeapInit                             0x080030f8   Section        0  los_heap.o(i.osHeapInit)
    i.osHeapPrvGetNext                       0x08003136   Section        0  los_heap.o(i.osHeapPrvGetNext)
    i.osHeapStatisticsGet                    0x0800314c   Section        0  los_heap.o(i.osHeapStatisticsGet)
    i.osIdleTask                             0x0800319c   Section        0  los_task.o(i.osIdleTask)
    i.osIdleTaskCreate                       0x080031a0   Section        0  los_task.o(i.osIdleTaskCreate)
    i.osIntNumGet                            0x080031e4   Section        0  los_hwi.o(i.osIntNumGet)
    i.osMemSystemInit                        0x080031ec   Section        0  los_memory.o(i.osMemSystemInit)
    i.osMuxInit                              0x08003200   Section        0  los_mux.o(i.osMuxInit)
    i.osPriqueueDequeue                      0x08003258   Section        0  los_priqueue.o(i.osPriqueueDequeue)
    i.osPriqueueEnqueue                      0x08003298   Section        0  los_priqueue.o(i.osPriqueueEnqueue)
    i.osPriqueueInit                         0x080032d4   Section        0  los_priqueue.o(i.osPriqueueInit)
    i.osPriqueueSize                         0x08003308   Section        0  los_priqueue.o(i.osPriqueueSize)
    i.osPriqueueTop                          0x08003328   Section        0  los_priqueue.o(i.osPriqueueTop)
    i.osQueueBufferOperate                   0x08003348   Section        0  los_queue.o(i.osQueueBufferOperate)
    osQueueBufferOperate                     0x08003349   Thumb Code   174  los_queue.o(i.osQueueBufferOperate)
    i.osQueueInit                            0x08003420   Section        0  los_queue.o(i.osQueueInit)
    i.osQueueOperate                         0x0800347c   Section        0  los_queue.o(i.osQueueOperate)
    i.osQueueReadParameterCheck              0x080035dc   Section        0  los_queue.o(i.osQueueReadParameterCheck)
    osQueueReadParameterCheck                0x080035dd   Thumb Code    48  los_queue.o(i.osQueueReadParameterCheck)
    i.osQueueWriteParameterCheck             0x08003610   Section        0  los_queue.o(i.osQueueWriteParameterCheck)
    osQueueWriteParameterCheck               0x08003611   Thumb Code    46  los_queue.o(i.osQueueWriteParameterCheck)
    i.osRegister                             0x08003644   Section        0  los_init.o(i.osRegister)
    osRegister                               0x08003645   Thumb Code     8  los_init.o(i.osRegister)
    i.osSchedule                             0x08003650   Section        0  los_hw.o(i.osSchedule)
    i.osSemInit                              0x08003654   Section        0  los_sem.o(i.osSemInit)
    i.osSlabAllocatorAlloc                   0x080036a8   Section        0  los_slab.o(i.osSlabAllocatorAlloc)
    i.osSlabAllocatorFree                    0x080036c4   Section        0  los_slab.o(i.osSlabAllocatorFree)
    i.osSlabAllocatorNew                     0x080036fe   Section        0  los_slab.o(i.osSlabAllocatorNew)
    i.osSlabBlockHeadFill                    0x08003746   Section        0  los_slabmem.o(i.osSlabBlockHeadFill)
    i.osSlabCtrlHdrGet                       0x08003756   Section        0  los_memory.o(i.osSlabCtrlHdrGet)
    i.osSlabMemAlloc                         0x0800375a   Section        0  los_slabmem.o(i.osSlabMemAlloc)
    i.osSlabMemFree                          0x080037ce   Section        0  los_slabmem.o(i.osSlabMemFree)
    i.osSlabMemInit                          0x0800382e   Section        0  los_slabmem.o(i.osSlabMemInit)
    i.osSwTmrInit                            0x08003884   Section        0  los_swtmr.o(i.osSwTmrInit)
    i.osSwTmrStart                           0x08003908   Section        0  los_swtmr.o(i.osSwTmrStart)
    i.osSwTmrTask                            0x08003a90   Section        0  los_swtmr.o(i.osSwTmrTask)
    i.osSwTmrTaskCreate                      0x08003acc   Section        0  los_swtmr.o(i.osSwTmrTaskCreate)
    i.osSwTmrTimeoutHandle                   0x08003b0c   Section        0  los_swtmr.o(i.osSwTmrTimeoutHandle)
    osSwTmrTimeoutHandle                     0x08003b0d   Thumb Code   102  los_swtmr.o(i.osSwTmrTimeoutHandle)
    i.osSwtmrDelete                          0x08003b78   Section        0  los_swtmr.o(i.osSwtmrDelete)
    osSwtmrDelete                            0x08003b79   Thumb Code    26  los_swtmr.o(i.osSwtmrDelete)
    i.osSwtmrScan                            0x08003b9c   Section        0  los_swtmr.o(i.osSwtmrScan)
    i.osTaskAdd2TimerList                    0x08003bbc   Section        0  los_task.o(i.osTaskAdd2TimerList)
    i.osTaskEntry                            0x08003c48   Section        0  los_task.o(i.osTaskEntry)
    i.osTaskExit                             0x08003c74   Section        0  los_hw.o(i.osTaskExit)
    i.osTaskInit                             0x08003c78   Section        0  los_task.o(i.osTaskInit)
    i.osTaskMonInit                          0x08003d58   Section        0  los_task.o(i.osTaskMonInit)
    i.osTaskPriModify                        0x08003d84   Section        0  los_task.o(i.osTaskPriModify)
    i.osTaskScan                             0x08003db8   Section        0  los_task.o(i.osTaskScan)
    i.osTaskSwitchCheck                      0x08003e74   Section        0  los_task.o(i.osTaskSwitchCheck)
    i.osTaskWait                             0x08003fb0   Section        0  los_task.o(i.osTaskWait)
    i.osTaskWake                             0x08003ffc   Section        0  los_task.o(i.osTaskWake)
    i.osTickHandler                          0x08004040   Section        0  los_tick.o(i.osTickHandler)
    i.osTickStart                            0x08004068   Section        0  los_hw_tick.o(i.osTickStart)
    i.osTimerListDelete                      0x080040e0   Section        0  los_task.o(i.osTimerListDelete)
    i.osTimesliceCheck                       0x08004114   Section        0  los_timeslice.o(i.osTimesliceCheck)
    i.osTimesliceInit                        0x0800414c   Section        0  los_timeslice.o(i.osTimesliceInit)
    i.osTskStackInit                         0x0800415c   Section        0  los_hw.o(i.osTskStackInit)
    i.task1                                  0x080041e0   Section        0  task.o(i.task1)
    i.task2                                  0x08004224   Section        0  task.o(i.task2)
    .constdata                               0x08004268   Section       16  system_stm32f1xx.o(.constdata)
    .constdata                               0x08004278   Section        8  system_stm32f1xx.o(.constdata)
    .data                                    0x20000000   Section        4  task.o(.data)
    .data                                    0x20000004   Section       12  stm32f1xx_hal.o(.data)
    .data                                    0x20000010   Section        4  system_stm32f1xx.o(.data)
    .data                                    0x20000014   Section        4  los_init.o(.data)
    .data                                    0x20000018   Section        8  los_priqueue.o(.data)
    g_uwPriQueueBitmap                       0x20000018   Data           4  los_priqueue.o(.data)
    .data                                    0x20000020   Section       28  los_swtmr.o(.data)
    m_uwSwtimerRousesTime                    0x20000020   Data           4  los_swtmr.o(.data)
    m_pstRouses                              0x20000024   Data           4  los_swtmr.o(.data)
    m_pstRousesPrev                          0x20000028   Data           4  los_swtmr.o(.data)
    .data                                    0x2000003c   Section       72  los_task.o(.data)
    .data                                    0x20000084   Section        4  los_tick.o(.data)
    .data                                    0x20000088   Section       16  los_tick.o(.data)
    .data                                    0x20000098   Section        4  los_tick.o(.data)
    .data                                    0x2000009c   Section        8  los_timeslice.o(.data)
    .data                                    0x200000a4   Section       12  los_mux.o(.data)
    .data                                    0x200000b0   Section       12  los_queue.o(.data)
    .data                                    0x200000bc   Section       12  los_sem.o(.data)
    .data                                    0x200000c8   Section        4  los_err.o(.data)
    .data                                    0x200000cc   Section       16  los_heap.o(.data)
    g_uwAllocCount                           0x200000cc   Data           4  los_heap.o(.data)
    g_uwFreeCount                            0x200000d0   Data           4  los_heap.o(.data)
    g_uwCurHeapUsed                          0x200000d4   Data           4  los_heap.o(.data)
    g_uwMaxHeapUsed                          0x200000d8   Data           4  los_heap.o(.data)
    .data                                    0x200000dc   Section        4  los_memory.o(.data)
    .data                                    0x200000e0   Section        1  uart_msp.o(.data)
    .data                                    0x200000e4   Section        8  debug.o(.data)
    .bss                                     0x200000ec   Section       64  los_swtmr.o(.bss)
    .bss                                     0x2000012c   Section      342  los_task.o(.bss)
    .bss                                     0x20000284   Section      592  uart_msp.o(.bss)
    m_QueueCom1Rx                            0x20000284   Data          16  uart_msp.o(.bss)
    m_Com1RxBuf                              0x20000294   Data         512  uart_msp.o(.bss)
    .bss                                     0x200004d4   Section      251  debug.o(.bss)
    buffer                                   0x200004d4   Data         251  debug.o(.bss)
    STACK                                    0x200005d0   Section     2048  startup_stm32f103xb.o(STACK)

    Global Symbols

    Symbol Name                              Value     Ov Type        Size  Object(Section)

    BuildAttributes$$THM_ISAv4$P$D$K$B$S$PE$A:L22UL41UL21$X:L11$S22US41US21$IEEE1$IW$USESV6$~STKCKD$USESV7$~SHL$OSPACE$ROPI$EBA8$MICROLIB$REQ8$PRES8$EABIv2 0x00000000   Number         0  anon$$obj.o ABSOLUTE
    __ARM_use_no_argv                        0x00000000   Number         0  main.o ABSOLUTE
    __cpp_initialize__aeabi_                  - Undefined Weak Reference
    __cxa_finalize                            - Undefined Weak Reference
    __decompress                              - Undefined Weak Reference
    _clock_init                               - Undefined Weak Reference
    _microlib_exit                            - Undefined Weak Reference
    __Vectors_Size                           0x000000ec   Number         0  startup_stm32f103xb.o ABSOLUTE
    __Vectors                                0x08000000   Data           4  startup_stm32f103xb.o(RESET)
    __Vectors_End                            0x080000ec   Data           0  startup_stm32f103xb.o(RESET)
    __main                                   0x080000ed   Thumb Code     0  entry.o(.ARM.Collect$$$$00000000)
    _main_stk                                0x080000ed   Thumb Code     0  entry2.o(.ARM.Collect$$$$00000001)
    _main_scatterload                        0x080000f1   Thumb Code     0  entry5.o(.ARM.Collect$$$$00000004)
    __main_after_scatterload                 0x080000f5   Thumb Code     0  entry5.o(.ARM.Collect$$$$00000004)
    _main_clock                              0x080000f5   Thumb Code     0  entry7b.o(.ARM.Collect$$$$00000008)
    _main_cpp_init                           0x080000f5   Thumb Code     0  entry8b.o(.ARM.Collect$$$$0000000A)
    _main_init                               0x080000f5   Thumb Code     0  entry9a.o(.ARM.Collect$$$$0000000B)
    __rt_final_cpp                           0x080000fd   Thumb Code     0  entry10a.o(.ARM.Collect$$$$0000000D)
    __rt_final_exit                          0x080000fd   Thumb Code     0  entry11a.o(.ARM.Collect$$$$0000000F)
    Reset_Handler                            0x08000101   Thumb Code     8  startup_stm32f103xb.o(.text)
    ADC1_2_IRQHandler                        0x0800011b   Thumb Code     0  startup_stm32f103xb.o(.text)
    CAN1_RX1_IRQHandler                      0x0800011b   Thumb Code     0  startup_stm32f103xb.o(.text)
    CAN1_SCE_IRQHandler                      0x0800011b   Thumb Code     0  startup_stm32f103xb.o(.text)
    DMA1_Channel1_IRQHandler                 0x0800011b   Thumb Code     0  startup_stm32f103xb.o(.text)
    DMA1_Channel2_IRQHandler                 0x0800011b   Thumb Code     0  startup_stm32f103xb.o(.text)
    DMA1_Channel3_IRQHandler                 0x0800011b   Thumb Code     0  startup_stm32f103xb.o(.text)
    DMA1_Channel4_IRQHandler                 0x0800011b   Thumb Code     0  startup_stm32f103xb.o(.text)
    DMA1_Channel5_IRQHandler                 0x0800011b   Thumb Code     0  startup_stm32f103xb.o(.text)
    DMA1_Channel6_IRQHandler                 0x0800011b   Thumb Code     0  startup_stm32f103xb.o(.text)
    DMA1_Channel7_IRQHandler                 0x0800011b   Thumb Code     0  startup_stm32f103xb.o(.text)
    EXTI15_10_IRQHandler                     0x0800011b   Thumb Code     0  startup_stm32f103xb.o(.text)
    EXTI1_IRQHandler                         0x0800011b   Thumb Code     0  startup_stm32f103xb.o(.text)
    EXTI2_IRQHandler                         0x0800011b   Thumb Code     0  startup_stm32f103xb.o(.text)
    EXTI3_IRQHandler                         0x0800011b   Thumb Code     0  startup_stm32f103xb.o(.text)
    EXTI4_IRQHandler                         0x0800011b   Thumb Code     0  startup_stm32f103xb.o(.text)
    FLASH_IRQHandler                         0x0800011b   Thumb Code     0  startup_stm32f103xb.o(.text)
    I2C1_ER_IRQHandler                       0x0800011b   Thumb Code     0  startup_stm32f103xb.o(.text)
    I2C1_EV_IRQHandler                       0x0800011b   Thumb Code     0  startup_stm32f103xb.o(.text)
    I2C2_ER_IRQHandler                       0x0800011b   Thumb Code     0  startup_stm32f103xb.o(.text)
    I2C2_EV_IRQHandler                       0x0800011b   Thumb Code     0  startup_stm32f103xb.o(.text)
    PVD_IRQHandler                           0x0800011b   Thumb Code     0  startup_stm32f103xb.o(.text)
    RCC_IRQHandler                           0x0800011b   Thumb Code     0  startup_stm32f103xb.o(.text)
    RTC_Alarm_IRQHandler                     0x0800011b   Thumb Code     0  startup_stm32f103xb.o(.text)
    RTC_IRQHandler                           0x0800011b   Thumb Code     0  startup_stm32f103xb.o(.text)
    SPI1_IRQHandler                          0x0800011b   Thumb Code     0  startup_stm32f103xb.o(.text)
    SPI2_IRQHandler                          0x0800011b   Thumb Code     0  startup_stm32f103xb.o(.text)
    TAMPER_IRQHandler                        0x0800011b   Thumb Code     0  startup_stm32f103xb.o(.text)
    TIM1_BRK_IRQHandler                      0x0800011b   Thumb Code     0  startup_stm32f103xb.o(.text)
    TIM1_CC_IRQHandler                       0x0800011b   Thumb Code     0  startup_stm32f103xb.o(.text)
    TIM1_TRG_COM_IRQHandler                  0x0800011b   Thumb Code     0  startup_stm32f103xb.o(.text)
    TIM1_UP_IRQHandler                       0x0800011b   Thumb Code     0  startup_stm32f103xb.o(.text)
    TIM2_IRQHandler                          0x0800011b   Thumb Code     0  startup_stm32f103xb.o(.text)
    TIM3_IRQHandler                          0x0800011b   Thumb Code     0  startup_stm32f103xb.o(.text)
    TIM4_IRQHandler                          0x0800011b   Thumb Code     0  startup_stm32f103xb.o(.text)
    USART2_IRQHandler                        0x0800011b   Thumb Code     0  startup_stm32f103xb.o(.text)
    USART3_IRQHandler                        0x0800011b   Thumb Code     0  startup_stm32f103xb.o(.text)
    USBWakeUp_IRQHandler                     0x0800011b   Thumb Code     0  startup_stm32f103xb.o(.text)
    USB_HP_CAN1_TX_IRQHandler                0x0800011b   Thumb Code     0  startup_stm32f103xb.o(.text)
    USB_LP_CAN1_RX0_IRQHandler               0x0800011b   Thumb Code     0  startup_stm32f103xb.o(.text)
    WWDG_IRQHandler                          0x0800011b   Thumb Code     0  startup_stm32f103xb.o(.text)
    LOS_StartToRun                           0x08000125   Thumb Code     0  los_dispatch_keil.o(.text)
    LOS_IntLock                              0x0800016d   Thumb Code     0  los_dispatch_keil.o(.text)
    LOS_IntUnLock                            0x08000175   Thumb Code     0  los_dispatch_keil.o(.text)
    LOS_IntRestore                           0x0800017d   Thumb Code     0  los_dispatch_keil.o(.text)
    osTaskSchedule                           0x08000183   Thumb Code     0  los_dispatch_keil.o(.text)
    PendSV_Handler                           0x0800018d   Thumb Code     0  los_dispatch_keil.o(.text)
    __aeabi_uldivmod                         0x080001f1   Thumb Code    98  uldiv.o(.text)
    __aeabi_llsr                             0x08000253   Thumb Code    32  llushr.o(.text)
    _ll_ushift_r                             0x08000253   Thumb Code     0  llushr.o(.text)
    __aeabi_memcpy                           0x08000273   Thumb Code    36  memcpya.o(.text)
    __aeabi_memcpy4                          0x08000273   Thumb Code     0  memcpya.o(.text)
    __aeabi_memcpy8                          0x08000273   Thumb Code     0  memcpya.o(.text)
    __aeabi_memset                           0x08000297   Thumb Code    14  memseta.o(.text)
    __aeabi_memset4                          0x08000297   Thumb Code     0  memseta.o(.text)
    __aeabi_memset8                          0x08000297   Thumb Code     0  memseta.o(.text)
    __aeabi_memclr                           0x080002a5   Thumb Code     4  memseta.o(.text)
    __aeabi_memclr4                          0x080002a5   Thumb Code     0  memseta.o(.text)
    __aeabi_memclr8                          0x080002a5   Thumb Code     0  memseta.o(.text)
    _memset$wrapper                          0x080002a9   Thumb Code    18  memseta.o(.text)
    __aeabi_ddiv                             0x080002bb   Thumb Code   222  ddiv.o(.text)
    __aeabi_d2ulz                            0x08000399   Thumb Code    48  dfixul.o(.text)
    __aeabi_uidiv                            0x080003c9   Thumb Code     0  uidiv.o(.text)
    __aeabi_uidivmod                         0x080003c9   Thumb Code    44  uidiv.o(.text)
    __aeabi_llsl                             0x080003f5   Thumb Code    30  llshl.o(.text)
    _ll_shift_l                              0x080003f5   Thumb Code     0  llshl.o(.text)
    __I$use$fp                               0x08000413   Thumb Code     0  iusefp.o(.text)
    _double_round                            0x08000413   Thumb Code    30  depilogue.o(.text)
    _double_epilogue                         0x08000431   Thumb Code   156  depilogue.o(.text)
    __aeabi_dadd                             0x080004cd   Thumb Code   322  dadd.o(.text)
    __aeabi_dsub                             0x0800060f   Thumb Code     6  dadd.o(.text)
    __aeabi_drsub                            0x08000615   Thumb Code     6  dadd.o(.text)
    __aeabi_dmul                             0x0800061b   Thumb Code   228  dmul.o(.text)
    __aeabi_cdrcmple                         0x08000701   Thumb Code    48  cdrcmple.o(.text)
    __scatterload                            0x08000731   Thumb Code    28  init.o(.text)
    __scatterload_rt2                        0x08000731   Thumb Code     0  init.o(.text)
    __aeabi_lasr                             0x08000755   Thumb Code    36  llsshr.o(.text)
    _ll_sshift_r                             0x08000755   Thumb Code     0  llsshr.o(.text)
    BusFault_Handler                         0x08000779   Thumb Code     2  stm32f1xx_it.o(i.BusFault_Handler)
    DebugMon_Handler                         0x0800077b   Thumb Code     2  stm32f1xx_it.o(i.DebugMon_Handler)
    Debug_Printf                             0x0800077d   Thumb Code    92  debug.o(i.Debug_Printf)
    EXTI0_IRQHandler                         0x080007e1   Thumb Code     6  stm32f1xx_it.o(i.EXTI0_IRQHandler)
    EXTI9_5_IRQHandler                       0x080007e7   Thumb Code    22  stm32f1xx_it.o(i.EXTI9_5_IRQHandler)
    Error_Handler                            0x080007fd   Thumb Code     2  main.o(i.Error_Handler)
    HAL_GPIO_EXTI_Callback                   0x080007ff   Thumb Code     2  main.o(i.HAL_GPIO_EXTI_Callback)
    HAL_GPIO_EXTI_IRQHandler                 0x08000801   Thumb Code    18  stm32f1xx_hal_gpio.o(i.HAL_GPIO_EXTI_IRQHandler)
    HAL_GPIO_Init                            0x08000819   Thumb Code   460  stm32f1xx_hal_gpio.o(i.HAL_GPIO_Init)
    HAL_GPIO_TogglePin                       0x08000a05   Thumb Code     8  stm32f1xx_hal_gpio.o(i.HAL_GPIO_TogglePin)
    HAL_GPIO_WritePin                        0x08000a0d   Thumb Code    14  stm32f1xx_hal_gpio.o(i.HAL_GPIO_WritePin)
    HAL_GetTick                              0x08000a1d   Thumb Code     6  stm32f1xx_hal.o(i.HAL_GetTick)
    HAL_Init                                 0x08000a29   Thumb Code    32  stm32f1xx_hal.o(i.HAL_Init)
    HAL_InitTick                             0x08000a4d   Thumb Code    58  stm32f1xx_hal.o(i.HAL_InitTick)
    HAL_MspInit                              0x08000a91   Thumb Code    52  stm32f1xx_hal_msp.o(i.HAL_MspInit)
    HAL_NVIC_EnableIRQ                       0x08000acd   Thumb Code    22  stm32f1xx_hal_cortex.o(i.HAL_NVIC_EnableIRQ)
    HAL_NVIC_SetPriority                     0x08000ae5   Thumb Code    60  stm32f1xx_hal_cortex.o(i.HAL_NVIC_SetPriority)
    HAL_NVIC_SetPriorityGrouping             0x08000b25   Thumb Code    26  stm32f1xx_hal_cortex.o(i.HAL_NVIC_SetPriorityGrouping)
    HAL_RCC_ClockConfig                      0x08000b49   Thumb Code   364  stm32f1xx_hal_rcc.o(i.HAL_RCC_ClockConfig)
    HAL_RCC_GetHCLKFreq                      0x08000cc5   Thumb Code     6  stm32f1xx_hal_rcc.o(i.HAL_RCC_GetHCLKFreq)
    HAL_RCC_GetPCLK1Freq                     0x08000cd1   Thumb Code    22  stm32f1xx_hal_rcc.o(i.HAL_RCC_GetPCLK1Freq)
    HAL_RCC_GetPCLK2Freq                     0x08000cf1   Thumb Code    22  stm32f1xx_hal_rcc.o(i.HAL_RCC_GetPCLK2Freq)
    HAL_RCC_GetSysClockFreq                  0x08000d11   Thumb Code    82  stm32f1xx_hal_rcc.o(i.HAL_RCC_GetSysClockFreq)
    HAL_RCC_OscConfig                        0x08000d85   Thumb Code   840  stm32f1xx_hal_rcc.o(i.HAL_RCC_OscConfig)
    HAL_SYSTICK_Config                       0x080010dd   Thumb Code    40  stm32f1xx_hal_cortex.o(i.HAL_SYSTICK_Config)
    HAL_UART_Init                            0x08001105   Thumb Code   100  stm32f1xx_hal_uart.o(i.HAL_UART_Init)
    HAL_UART_MspInit                         0x08001169   Thumb Code   116  uart_msp.o(i.HAL_UART_MspInit)
    HAL_UART_Transmit                        0x080011e9   Thumb Code   204  stm32f1xx_hal_uart.o(i.HAL_UART_Transmit)
    HardFault_Handler                        0x080012b5   Thumb Code     2  stm32f1xx_it.o(i.HardFault_Handler)
    LOS_Align                                0x080012b7   Thumb Code    20  los_misc.o(i.LOS_Align)
    LOS_ErrHandle                            0x080012cd   Thumb Code    34  los_err.o(i.LOS_ErrHandle)
    LOS_KernelInit                           0x080012f9   Thumb Code   144  los_init.o(i.LOS_KernelInit)
    LOS_MemAlloc                             0x0800147b   Thumb Code    42  los_memory.o(i.LOS_MemAlloc)
    LOS_MemAllocAlign                        0x080014a5   Thumb Code     4  los_memory.o(i.LOS_MemAllocAlign)
    LOS_MemFree                              0x080014a9   Thumb Code    48  los_memory.o(i.LOS_MemFree)
    LOS_MemInit                              0x080014d9   Thumb Code   188  los_memory.o(i.LOS_MemInit)
    LOS_MuxCreate                            0x080015d1   Thumb Code   106  los_mux.o(i.LOS_MuxCreate)
    LOS_MuxPend                              0x0800165d   Thumb Code   282  los_mux.o(i.LOS_MuxPend)
    LOS_MuxPost                              0x080017cd   Thumb Code   192  los_mux.o(i.LOS_MuxPost)
    LOS_QueueCreate                          0x080018b1   Thumb Code   182  los_queue.o(i.LOS_QueueCreate)
    LOS_QueueReadCopy                        0x08001975   Thumb Code    42  los_queue.o(i.LOS_QueueReadCopy)
    LOS_QueueWriteCopy                       0x0800199f   Thumb Code    44  los_queue.o(i.LOS_QueueWriteCopy)
    LOS_Schedule                             0x080019cd   Thumb Code    54  los_hw.o(i.LOS_Schedule)
    LOS_Start                                0x08001a0d   Thumb Code    34  los_init.o(i.LOS_Start)
    LOS_TaskCreate                           0x08001a4d   Thumb Code   110  los_task.o(i.LOS_TaskCreate)
    LOS_TaskCreateOnly                       0x08001ac1   Thumb Code   322  los_task.o(i.LOS_TaskCreateOnly)
    LOS_TaskDelay                            0x08001c2d   Thumb Code    94  los_task.o(i.LOS_TaskDelay)
    LOS_TaskDelete                           0x08001c99   Thumb Code   328  los_task.o(i.LOS_TaskDelete)
    LOS_TaskYield                            0x08001ded   Thumb Code   104  los_task.o(i.LOS_TaskYield)
    LOS_TickCountGet                         0x08001e5d   Thumb Code     6  los_sys.o(i.LOS_TickCountGet)
    MemManage_Handler                        0x08001f85   Thumb Code     2  stm32f1xx_it.o(i.MemManage_Handler)
    NMI_Handler                              0x08001f87   Thumb Code     2  stm32f1xx_it.o(i.NMI_Handler)
    QUEUE_PacketCreate                       0x08001fa9   Thumb Code    12  queue.o(i.QUEUE_PacketCreate)
    QUEUE_PacketIn                           0x08001fb5   Thumb Code    48  queue.o(i.QUEUE_PacketIn)
    SVC_Handler                              0x08002009   Thumb Code     2  stm32f1xx_it.o(i.SVC_Handler)
    SysTick_Handler                          0x0800200d   Thumb Code    28  los_hwi.o(i.SysTick_Handler)
    SystemClock_Config                       0x08002031   Thumb Code    88  main.o(i.SystemClock_Config)
    SystemInit                               0x08002089   Thumb Code    56  system_stm32f1xx.o(i.SystemInit)
    USART1_IRQHandler                        0x080022d1   Thumb Code    62  uart_msp.o(i.USART1_IRQHandler)
    Uart_Init                                0x08002319   Thumb Code    70  uart_msp.o(i.Uart_Init)
    Uart_Write                               0x08002371   Thumb Code    44  uart_msp.o(i.Uart_Write)
    UsageFault_Handler                       0x080023a5   Thumb Code     2  stm32f1xx_it.o(i.UsageFault_Handler)
    __0vsprintf                              0x080023a9   Thumb Code    30  printfa.o(i.__0vsprintf)
    __1vsprintf                              0x080023a9   Thumb Code     0  printfa.o(i.__0vsprintf)
    __2vsprintf                              0x080023a9   Thumb Code     0  printfa.o(i.__0vsprintf)
    __c89vsprintf                            0x080023a9   Thumb Code     0  printfa.o(i.__0vsprintf)
    vsprintf                                 0x080023a9   Thumb Code     0  printfa.o(i.__0vsprintf)
    __scatterload_copy                       0x080023cd   Thumb Code    14  handlers.o(i.__scatterload_copy)
    __scatterload_null                       0x080023db   Thumb Code     2  handlers.o(i.__scatterload_null)
    __scatterload_zeroinit                   0x080023dd   Thumb Code    14  handlers.o(i.__scatterload_zeroinit)
    create_task1                             0x08002ca9   Thumb Code    36  task.o(i.create_task1)
    create_task2                             0x08002cdd   Thumb Code    36  task.o(i.create_task2)
    main                                     0x08002d11   Thumb Code    96  main.o(i.main)
    osAlarmHeapInfo                          0x08002dc9   Thumb Code    26  los_heap.o(i.osAlarmHeapInfo)
    osAtomicBitsetClearBit                   0x08002de3   Thumb Code    30  los_slab.o(i.osAtomicBitsetClearBit)
    osAtomicBitsetFindClearAndSet            0x08002e01   Thumb Code    66  los_slab.o(i.osAtomicBitsetFindClearAndSet)
    osAtomicBitsetGetBit                     0x08002e43   Thumb Code    34  los_slab.o(i.osAtomicBitsetGetBit)
    osAtomicBitsetInit                       0x08002e65   Thumb Code    44  los_slab.o(i.osAtomicBitsetInit)
    osHeapAlloc                              0x08002e91   Thumb Code   232  los_heap.o(i.osHeapAlloc)
    osHeapAllocAlign                         0x08002fb5   Thumb Code    62  los_heap.o(i.osHeapAllocAlign)
    osHeapFree                               0x08002ff5   Thumb Code   228  los_heap.o(i.osHeapFree)
    osHeapInit                               0x080030f9   Thumb Code    62  los_heap.o(i.osHeapInit)
    osHeapPrvGetNext                         0x08003137   Thumb Code    22  los_heap.o(i.osHeapPrvGetNext)
    osHeapStatisticsGet                      0x0800314d   Thumb Code    76  los_heap.o(i.osHeapStatisticsGet)
    osIdleTask                               0x0800319d   Thumb Code     2  los_task.o(i.osIdleTask)
    osIdleTaskCreate                         0x080031a1   Thumb Code    48  los_task.o(i.osIdleTaskCreate)
    osIntNumGet                              0x080031e5   Thumb Code     6  los_hwi.o(i.osIntNumGet)
    osMemSystemInit                          0x080031ed   Thumb Code    10  los_memory.o(i.osMemSystemInit)
    osMuxInit                                0x08003201   Thumb Code    74  los_mux.o(i.osMuxInit)
    osPriqueueDequeue                        0x08003259   Thumb Code    58  los_priqueue.o(i.osPriqueueDequeue)
    osPriqueueEnqueue                        0x08003299   Thumb Code    54  los_priqueue.o(i.osPriqueueEnqueue)
    osPriqueueInit                           0x080032d5   Thumb Code    42  los_priqueue.o(i.osPriqueueInit)
    osPriqueueSize                           0x08003309   Thumb Code    26  los_priqueue.o(i.osPriqueueSize)
    osPriqueueTop                            0x08003329   Thumb Code    26  los_priqueue.o(i.osPriqueueTop)
    osQueueInit                              0x08003421   Thumb Code    78  los_queue.o(i.osQueueInit)
    osQueueOperate                           0x0800347d   Thumb Code   334  los_queue.o(i.osQueueOperate)
    osSchedule                               0x08003651   Thumb Code     4  los_hw.o(i.osSchedule)
    osSemInit                                0x08003655   Thumb Code    72  los_sem.o(i.osSemInit)
    osSlabAllocatorAlloc                     0x080036a9   Thumb Code    28  los_slab.o(i.osSlabAllocatorAlloc)
    osSlabAllocatorFree                      0x080036c5   Thumb Code    58  los_slab.o(i.osSlabAllocatorFree)
    osSlabAllocatorNew                       0x080036ff   Thumb Code    72  los_slab.o(i.osSlabAllocatorNew)
    osSlabBlockHeadFill                      0x08003747   Thumb Code    16  los_slabmem.o(i.osSlabBlockHeadFill)
    osSlabCtrlHdrGet                         0x08003757   Thumb Code     4  los_memory.o(i.osSlabCtrlHdrGet)
    osSlabMemAlloc                           0x0800375b   Thumb Code   116  los_slabmem.o(i.osSlabMemAlloc)
    osSlabMemFree                            0x080037cf   Thumb Code    96  los_slabmem.o(i.osSlabMemFree)
    osSlabMemInit                            0x0800382f   Thumb Code    86  los_slabmem.o(i.osSlabMemInit)
    osSwTmrInit                              0x08003885   Thumb Code   116  los_swtmr.o(i.osSwTmrInit)
    osSwTmrStart                             0x08003909   Thumb Code   382  los_swtmr.o(i.osSwTmrStart)
    osSwTmrTask                              0x08003a91   Thumb Code    56  los_swtmr.o(i.osSwTmrTask)
    osSwTmrTaskCreate                        0x08003acd   Thumb Code    44  los_swtmr.o(i.osSwTmrTaskCreate)
    osSwtmrScan                              0x08003b9d   Thumb Code    26  los_swtmr.o(i.osSwtmrScan)
    osTaskAdd2TimerList                      0x08003bbd   Thumb Code   136  los_task.o(i.osTaskAdd2TimerList)
    osTaskEntry                              0x08003c49   Thumb Code    38  los_task.o(i.osTaskEntry)
    osTaskExit                               0x08003c75   Thumb Code     4  los_hw.o(i.osTaskExit)
    osTaskInit                               0x08003c79   Thumb Code   210  los_task.o(i.osTaskInit)
    osTaskMonInit                            0x08003d59   Thumb Code    30  los_task.o(i.osTaskMonInit)
    osTaskPriModify                          0x08003d85   Thumb Code    52  los_task.o(i.osTaskPriModify)
    osTaskScan                               0x08003db9   Thumb Code   182  los_task.o(i.osTaskScan)
    osTaskSwitchCheck                        0x08003e75   Thumb Code   170  los_task.o(i.osTaskSwitchCheck)
    osTaskWait                               0x08003fb1   Thumb Code    70  los_task.o(i.osTaskWait)
    osTaskWake                               0x08003ffd   Thumb Code    66  los_task.o(i.osTaskWake)
    osTickHandler                            0x08004041   Thumb Code    34  los_tick.o(i.osTickHandler)
    osTickStart                              0x08004069   Thumb Code    96  los_hw_tick.o(i.osTickStart)
    osTimerListDelete                        0x080040e1   Thumb Code    48  los_task.o(i.osTimerListDelete)
    osTimesliceCheck                         0x08004115   Thumb Code    44  los_timeslice.o(i.osTimesliceCheck)
    osTimesliceInit                          0x0800414d   Thumb Code    12  los_timeslice.o(i.osTimesliceInit)
    osTskStackInit                           0x0800415d   Thumb Code   122  los_hw.o(i.osTskStackInit)
    task1                                    0x080041e1   Thumb Code    34  task.o(i.task1)
    task2                                    0x08004225   Thumb Code    34  task.o(i.task2)
    AHBPrescTable                            0x08004268   Data          16  system_stm32f1xx.o(.constdata)
    APBPrescTable                            0x08004278   Data           8  system_stm32f1xx.o(.constdata)
    Region$$Table$$Base                      0x08004280   Number         0  anon$$obj.o(Region$$Table)
    Region$$Table$$Limit                     0x080042a0   Number         0  anon$$obj.o(Region$$Table)
    g_TskHandle                              0x20000000   Data           4  task.o(.data)
    uwTickFreq                               0x20000004   Data           1  stm32f1xx_hal.o(.data)
    uwTickPrio                               0x20000008   Data           4  stm32f1xx_hal.o(.data)
    uwTick                                   0x2000000c   Data           4  stm32f1xx_hal.o(.data)
    SystemCoreClock                          0x20000010   Data           4  system_stm32f1xx.o(.data)
    m_aucSysMem0                             0x20000014   Data           4  los_init.o(.data)
    g_pstLosPriorityQueueList                0x2000001c   Data           4  los_priqueue.o(.data)
    m_uwSwTmrHandlerQueue                    0x2000002c   Data           4  los_swtmr.o(.data)
    m_pstSwtmrCBArray                        0x20000030   Data           4  los_swtmr.o(.data)
    m_pstSwtmrFreeList                       0x20000034   Data           4  los_swtmr.o(.data)
    m_pstSwtmrSortList                       0x20000038   Data           4  los_swtmr.o(.data)
    g_usLosTaskLock                          0x2000003c   Data           2  los_task.o(.data)
    g_pfnTskSwitchHook                       0x20000040   Data           4  los_task.o(.data)
    g_pfnUsrTskSwitchHook                    0x20000044   Data           4  los_task.o(.data)
    g_pstTaskCBArray                         0x20000048   Data           4  los_task.o(.data)
    g_uwTskMaxNum                            0x2000004c   Data           4  los_task.o(.data)
    g_uwIdleTaskID                           0x20000050   Data           4  los_task.o(.data)
    g_uwSwtmrTaskID                          0x20000054   Data           4  los_task.o(.data)
    g_bTaskScheduled                         0x20000058   Data           4  los_task.o(.data)
    g_stLosTask                              0x2000005c   Data           8  los_task.o(.data)
    g_stTaskTimerList                        0x20000064   Data           8  los_task.o(.data)
    g_stLosFreeTask                          0x2000006c   Data           8  los_task.o(.data)
    g_stTskRecyleList                        0x20000074   Data           8  los_task.o(.data)
    g_stTskSortLink                          0x2000007c   Data           8  los_task.o(.data)
    g_bSysTickStart                          0x20000084   Data           4  los_tick.o(.data)
    g_uwSysClock                             0x20000088   Data           4  los_tick.o(.data)
    g_ullTickCount                           0x20000090   Data           8  los_tick.o(.data)
    g_uwCyclesPerTick                        0x20000098   Data           4  los_tick.o(.data)
    g_stTaskTimeSlice                        0x2000009c   Data           8  los_timeslice.o(.data)
    g_pstAllMux                              0x200000a4   Data           4  los_mux.o(.data)
    g_stUnusedMuxList                        0x200000a8   Data           8  los_mux.o(.data)
    g_pstAllQueue                            0x200000b0   Data           4  los_queue.o(.data)
    g_stFreeQueueList                        0x200000b4   Data           8  los_queue.o(.data)
    g_pstAllSem                              0x200000bc   Data           4  los_sem.o(.data)
    g_stUnusedSemList                        0x200000c0   Data           8  los_sem.o(.data)
    g_stUserErrFunc                          0x200000c8   Data           4  los_err.o(.data)
    g_pPoolHead                              0x200000dc   Data           4  los_memory.o(.data)
    bCom1                                    0x200000e0   Data           1  uart_msp.o(.data)
    b_DebugInit                              0x200000e4   Data           1  debug.o(.data)
    g_Testmux01                              0x200000e8   Data           4  debug.o(.data)
    m_uwSwTmrAlignID                         0x200000ec   Data          64  los_swtmr.o(.bss)
    g_astTskSwitchInfo                       0x2000012c   Data         342  los_task.o(.bss)
    UART1_Handler                            0x20000494   Data          64  uart_msp.o(.bss)
    Image$$RW_IRAM1$$ZI$$Limit               0x20000dd0   Number         0  anon$$obj.o ABSOLUTE
    __initial_sp                             0x20000dd0   Data           0  startup_stm32f103xb.o(STACK)



==============================================================================

Memory Map of the image

  Image Entry point : 0x080000ed

  Load Region LR_IROM1 (Base: 0x08000000, Size: 0x0000438c, Max: 0x00020000, ABSOLUTE)

    Execution Region ER_IROM1 (Exec base: 0x08000000, Load base: 0x08000000, Size: 0x000042a0, Max: 0x00020000, ABSOLUTE)

    Exec Addr    Load Addr    Size         Type   Attr      Idx    E Section Name        Object

    0x08000000   0x08000000   0x000000ec   Data   RO            3    RESET               startup_stm32f103xb.o
    0x080000ec   0x080000ec   0x00000000   Code   RO         3784  * .ARM.Collect$$$$00000000  mc_w.l(entry.o)
    0x080000ec   0x080000ec   0x00000004   Code   RO         3835    .ARM.Collect$$$$00000001  mc_w.l(entry2.o)
    0x080000f0   0x080000f0   0x00000004   Code   RO         3838    .ARM.Collect$$$$00000004  mc_w.l(entry5.o)
    0x080000f4   0x080000f4   0x00000000   Code   RO         3840    .ARM.Collect$$$$00000008  mc_w.l(entry7b.o)
    0x080000f4   0x080000f4   0x00000000   Code   RO         3842    .ARM.Collect$$$$0000000A  mc_w.l(entry8b.o)
    0x080000f4   0x080000f4   0x00000008   Code   RO         3843    .ARM.Collect$$$$0000000B  mc_w.l(entry9a.o)
    0x080000fc   0x080000fc   0x00000000   Code   RO         3845    .ARM.Collect$$$$0000000D  mc_w.l(entry10a.o)
    0x080000fc   0x080000fc   0x00000000   Code   RO         3847    .ARM.Collect$$$$0000000F  mc_w.l(entry11a.o)
    0x080000fc   0x080000fc   0x00000004   Code   RO         3836    .ARM.Collect$$$$00002712  mc_w.l(entry2.o)
    0x08000100   0x08000100   0x00000024   Code   RO            4    .text               startup_stm32f103xb.o
    0x08000124   0x08000124   0x000000cc   Code   RO         1740    .text               los_dispatch_keil.o
    0x080001f0   0x080001f0   0x00000062   Code   RO         3787    .text               mc_w.l(uldiv.o)
    0x08000252   0x08000252   0x00000020   Code   RO         3789    .text               mc_w.l(llushr.o)
    0x08000272   0x08000272   0x00000024   Code   RO         3791    .text               mc_w.l(memcpya.o)
    0x08000296   0x08000296   0x00000024   Code   RO         3793    .text               mc_w.l(memseta.o)
    0x080002ba   0x080002ba   0x000000de   Code   RO         3827    .text               mf_w.l(ddiv.o)
    0x08000398   0x08000398   0x00000030   Code   RO         3833    .text               mf_w.l(dfixul.o)
    0x080003c8   0x080003c8   0x0000002c   Code   RO         3852    .text               mc_w.l(uidiv.o)
    0x080003f4   0x080003f4   0x0000001e   Code   RO         3854    .text               mc_w.l(llshl.o)
    0x08000412   0x08000412   0x00000000   Code   RO         3856    .text               mc_w.l(iusefp.o)
    0x08000412   0x08000412   0x000000ba   Code   RO         3857    .text               mf_w.l(depilogue.o)
    0x080004cc   0x080004cc   0x0000014e   Code   RO         3859    .text               mf_w.l(dadd.o)
    0x0800061a   0x0800061a   0x000000e4   Code   RO         3861    .text               mf_w.l(dmul.o)
    0x080006fe   0x080006fe   0x00000002   PAD
    0x08000700   0x08000700   0x00000030   Code   RO         3863    .text               mf_w.l(cdrcmple.o)
    0x08000730   0x08000730   0x00000024   Code   RO         3865    .text               mc_w.l(init.o)
    0x08000754   0x08000754   0x00000024   Code   RO         3868    .text               mc_w.l(llsshr.o)
    0x08000778   0x08000778   0x00000002   Code   RO          213    i.BusFault_Handler  stm32f1xx_it.o
    0x0800077a   0x0800077a   0x00000002   Code   RO          214    i.DebugMon_Handler  stm32f1xx_it.o
    0x0800077c   0x0800077c   0x00000064   Code   RO         3749    i.Debug_Printf      debug.o
    0x080007e0   0x080007e0   0x00000006   Code   RO          215    i.EXTI0_IRQHandler  stm32f1xx_it.o
    0x080007e6   0x080007e6   0x00000016   Code   RO          216    i.EXTI9_5_IRQHandler  stm32f1xx_it.o
    0x080007fc   0x080007fc   0x00000002   Code   RO           13    i.Error_Handler     main.o
    0x080007fe   0x080007fe   0x00000002   Code   RO           14    i.HAL_GPIO_EXTI_Callback  main.o
    0x08000800   0x08000800   0x00000018   Code   RO          761    i.HAL_GPIO_EXTI_IRQHandler  stm32f1xx_hal_gpio.o
    0x08000818   0x08000818   0x000001ec   Code   RO          762    i.HAL_GPIO_Init     stm32f1xx_hal_gpio.o
    0x08000a04   0x08000a04   0x00000008   Code   RO          765    i.HAL_GPIO_TogglePin  stm32f1xx_hal_gpio.o
    0x08000a0c   0x08000a0c   0x0000000e   Code   RO          766    i.HAL_GPIO_WritePin  stm32f1xx_hal_gpio.o
    0x08000a1a   0x08000a1a   0x00000002   PAD
    0x08000a1c   0x08000a1c   0x0000000c   Code   RO          465    i.HAL_GetTick       stm32f1xx_hal.o
    0x08000a28   0x08000a28   0x00000024   Code   RO          470    i.HAL_Init          stm32f1xx_hal.o
    0x08000a4c   0x08000a4c   0x00000044   Code   RO          471    i.HAL_InitTick      stm32f1xx_hal.o
    0x08000a90   0x08000a90   0x0000003c   Code   RO          304    i.HAL_MspInit       stm32f1xx_hal_msp.o
    0x08000acc   0x08000acc   0x00000016   Code   RO          922    i.HAL_NVIC_EnableIRQ  stm32f1xx_hal_cortex.o
    0x08000ae2   0x08000ae2   0x00000002   PAD
    0x08000ae4   0x08000ae4   0x00000040   Code   RO          928    i.HAL_NVIC_SetPriority  stm32f1xx_hal_cortex.o
    0x08000b24   0x08000b24   0x00000024   Code   RO          929    i.HAL_NVIC_SetPriorityGrouping  stm32f1xx_hal_cortex.o
    0x08000b48   0x08000b48   0x0000017c   Code   RO          617    i.HAL_RCC_ClockConfig  stm32f1xx_hal_rcc.o
    0x08000cc4   0x08000cc4   0x0000000c   Code   RO          622    i.HAL_RCC_GetHCLKFreq  stm32f1xx_hal_rcc.o
    0x08000cd0   0x08000cd0   0x00000020   Code   RO          624    i.HAL_RCC_GetPCLK1Freq  stm32f1xx_hal_rcc.o
    0x08000cf0   0x08000cf0   0x00000020   Code   RO          625    i.HAL_RCC_GetPCLK2Freq  stm32f1xx_hal_rcc.o
    0x08000d10   0x08000d10   0x00000074   Code   RO          626    i.HAL_RCC_GetSysClockFreq  stm32f1xx_hal_rcc.o
    0x08000d84   0x08000d84   0x00000358   Code   RO          629    i.HAL_RCC_OscConfig  stm32f1xx_hal_rcc.o
    0x080010dc   0x080010dc   0x00000028   Code   RO          933    i.HAL_SYSTICK_Config  stm32f1xx_hal_cortex.o
    0x08001104   0x08001104   0x00000064   Code   RO         1399    i.HAL_UART_Init     stm32f1xx_hal_uart.o
    0x08001168   0x08001168   0x00000080   Code   RO         3688    i.HAL_UART_MspInit  uart_msp.o
    0x080011e8   0x080011e8   0x000000cc   Code   RO         1407    i.HAL_UART_Transmit  stm32f1xx_hal_uart.o
    0x080012b4   0x080012b4   0x00000002   Code   RO          217    i.HardFault_Handler  stm32f1xx_it.o
    0x080012b6   0x080012b6   0x00000014   Code   RO         3251    i.LOS_Align         los_misc.o
    0x080012ca   0x080012ca   0x00000002   PAD
    0x080012cc   0x080012cc   0x0000002c   Code   RO         3281    i.LOS_ErrHandle     los_err.o
    0x080012f8   0x080012f8   0x000000f8   Code   RO         1926    i.LOS_KernelInit    los_init.o
    0x080013f0   0x080013f0   0x0000000e   Code   RO         2305    i.LOS_ListAdd       los_task.o
    0x080013fe   0x080013fe   0x0000000e   Code   RO         2767    i.LOS_ListAdd       los_mux.o
    0x0800140c   0x0800140c   0x0000000e   Code   RO         2837    i.LOS_ListAdd       los_queue.o
    0x0800141a   0x0800141a   0x0000000e   Code   RO         2973    i.LOS_ListAdd       los_sem.o
    0x08001428   0x08001428   0x00000014   Code   RO         2306    i.LOS_ListDelete    los_task.o
    0x0800143c   0x0800143c   0x0000000e   Code   RO         1980    i.LOS_ListEmpty     los_priqueue.o
    0x0800144a   0x0800144a   0x0000000e   Code   RO         2307    i.LOS_ListEmpty     los_task.o
    0x08001458   0x08001458   0x0000000e   Code   RO         2768    i.LOS_ListEmpty     los_mux.o
    0x08001466   0x08001466   0x0000000e   Code   RO         2838    i.LOS_ListEmpty     los_queue.o
    0x08001474   0x08001474   0x00000006   Code   RO         2308    i.LOS_ListTailInsert  los_task.o
    0x0800147a   0x0800147a   0x0000002a   Code   RO         3419    i.LOS_MemAlloc      los_memory.o
    0x080014a4   0x080014a4   0x00000004   Code   RO         3420    i.LOS_MemAllocAlign  los_memory.o
    0x080014a8   0x080014a8   0x00000030   Code   RO         3422    i.LOS_MemFree       los_memory.o
    0x080014d8   0x080014d8   0x000000f8   Code   RO         3424    i.LOS_MemInit       los_memory.o
    0x080015d0   0x080015d0   0x0000008c   Code   RO         2769    i.LOS_MuxCreate     los_mux.o
    0x0800165c   0x0800165c   0x00000170   Code   RO         2771    i.LOS_MuxPend       los_mux.o
    0x080017cc   0x080017cc   0x000000e4   Code   RO         2772    i.LOS_MuxPost       los_mux.o
    0x080018b0   0x080018b0   0x000000c4   Code   RO         2839    i.LOS_QueueCreate   los_queue.o
    0x08001974   0x08001974   0x0000002a   Code   RO         2843    i.LOS_QueueReadCopy  los_queue.o
    0x0800199e   0x0800199e   0x0000002c   Code   RO         2845    i.LOS_QueueWriteCopy  los_queue.o
    0x080019ca   0x080019ca   0x00000002   PAD
    0x080019cc   0x080019cc   0x00000040   Code   RO         1746    i.LOS_Schedule      los_hw.o
    0x08001a0c   0x08001a0c   0x00000040   Code   RO         1928    i.LOS_Start         los_init.o
    0x08001a4c   0x08001a4c   0x00000074   Code   RO         2311    i.LOS_TaskCreate    los_task.o
    0x08001ac0   0x08001ac0   0x0000016c   Code   RO         2312    i.LOS_TaskCreateOnly  los_task.o
    0x08001c2c   0x08001c2c   0x0000006c   Code   RO         2313    i.LOS_TaskDelay     los_task.o
    0x08001c98   0x08001c98   0x00000154   Code   RO         2314    i.LOS_TaskDelete    los_task.o
    0x08001dec   0x08001dec   0x00000070   Code   RO         2327    i.LOS_TaskYield     los_task.o
    0x08001e5c   0x08001e5c   0x0000000c   Code   RO         2245    i.LOS_TickCountGet  los_sys.o
    0x08001e68   0x08001e68   0x0000011c   Code   RO           15    i.MX_GPIO_Init      main.o
    0x08001f84   0x08001f84   0x00000002   Code   RO          218    i.MemManage_Handler  stm32f1xx_it.o
    0x08001f86   0x08001f86   0x00000002   Code   RO          219    i.NMI_Handler       stm32f1xx_it.o
    0x08001f88   0x08001f88   0x00000020   Code   RO          935    i.NVIC_SetPriority  stm32f1xx_hal_cortex.o
    0x08001fa8   0x08001fa8   0x0000000c   Code   RO         3604    i.QUEUE_PacketCreate  queue.o
    0x08001fb4   0x08001fb4   0x00000030   Code   RO         3606    i.QUEUE_PacketIn    queue.o
    0x08001fe4   0x08001fe4   0x00000024   Code   RO          630    i.RCC_Delay         stm32f1xx_hal_rcc.o
    0x08002008   0x08002008   0x00000002   Code   RO          221    i.SVC_Handler       stm32f1xx_it.o
    0x0800200a   0x0800200a   0x00000002   PAD
    0x0800200c   0x0800200c   0x00000024   Code   RO         1893    i.SysTick_Handler   los_hwi.o
    0x08002030   0x08002030   0x00000058   Code   RO           16    i.SystemClock_Config  main.o
    0x08002088   0x08002088   0x00000048   Code   RO         1706    i.SystemInit        system_stm32f1xx.o
    0x080020d0   0x080020d0   0x0000019c   Code   RO         1426    i.UART_SetConfig    stm32f1xx_hal_uart.o
    0x0800226c   0x0800226c   0x00000064   Code   RO         1428    i.UART_WaitOnFlagUntilTimeout  stm32f1xx_hal_uart.o
    0x080022d0   0x080022d0   0x00000048   Code   RO         3690    i.USART1_IRQHandler  uart_msp.o
    0x08002318   0x08002318   0x00000058   Code   RO         3691    i.Uart_Init         uart_msp.o
    0x08002370   0x08002370   0x00000034   Code   RO         3692    i.Uart_Write        uart_msp.o
    0x080023a4   0x080023a4   0x00000002   Code   RO          223    i.UsageFault_Handler  stm32f1xx_it.o
    0x080023a6   0x080023a6   0x00000002   PAD
    0x080023a8   0x080023a8   0x00000024   Code   RO         3806    i.__0vsprintf       mc_w.l(printfa.o)
    0x080023cc   0x080023cc   0x0000000e   Code   RO         3873    i.__scatterload_copy  mc_w.l(handlers.o)
    0x080023da   0x080023da   0x00000002   Code   RO         3874    i.__scatterload_null  mc_w.l(handlers.o)
    0x080023dc   0x080023dc   0x0000000e   Code   RO         3875    i.__scatterload_zeroinit  mc_w.l(handlers.o)
    0x080023ea   0x080023ea   0x00000002   PAD
    0x080023ec   0x080023ec   0x00000184   Code   RO         3807    i._fp_digits        mc_w.l(printfa.o)
    0x08002570   0x08002570   0x000006dc   Code   RO         3808    i._printf_core      mc_w.l(printfa.o)
    0x08002c4c   0x08002c4c   0x00000024   Code   RO         3809    i._printf_post_padding  mc_w.l(printfa.o)
    0x08002c70   0x08002c70   0x0000002e   Code   RO         3810    i._printf_pre_padding  mc_w.l(printfa.o)
    0x08002c9e   0x08002c9e   0x0000000a   Code   RO         3812    i._sputc            mc_w.l(printfa.o)
    0x08002ca8   0x08002ca8   0x00000034   Code   RO          328    i.create_task1      task.o
    0x08002cdc   0x08002cdc   0x00000034   Code   RO          329    i.create_task2      task.o
    0x08002d10   0x08002d10   0x000000b8   Code   RO           17    i.main              main.o
    0x08002dc8   0x08002dc8   0x0000001a   Code   RO         3345    i.osAlarmHeapInfo   los_heap.o
    0x08002de2   0x08002de2   0x0000001e   Code   RO         3051    i.osAtomicBitsetClearBit  los_slab.o
    0x08002e00   0x08002e00   0x00000042   Code   RO         3053    i.osAtomicBitsetFindClearAndSet  los_slab.o
    0x08002e42   0x08002e42   0x00000022   Code   RO         3054    i.osAtomicBitsetGetBit  los_slab.o
    0x08002e64   0x08002e64   0x0000002c   Code   RO         3056    i.osAtomicBitsetInit  los_slab.o
    0x08002e90   0x08002e90   0x00000124   Code   RO         3346    i.osHeapAlloc       los_heap.o
    0x08002fb4   0x08002fb4   0x0000003e   Code   RO         3347    i.osHeapAllocAlign  los_heap.o
    0x08002ff2   0x08002ff2   0x00000002   PAD
    0x08002ff4   0x08002ff4   0x00000104   Code   RO         3348    i.osHeapFree        los_heap.o
    0x080030f8   0x080030f8   0x0000003e   Code   RO         3351    i.osHeapInit        los_heap.o
    0x08003136   0x08003136   0x00000016   Code   RO         3352    i.osHeapPrvGetNext  los_heap.o
    0x0800314c   0x0800314c   0x00000050   Code   RO         3353    i.osHeapStatisticsGet  los_heap.o
    0x0800319c   0x0800319c   0x00000002   Code   RO         2331    i.osIdleTask        los_task.o
    0x0800319e   0x0800319e   0x00000002   PAD
    0x080031a0   0x080031a0   0x00000044   Code   RO         2332    i.osIdleTaskCreate  los_task.o
    0x080031e4   0x080031e4   0x00000006   Code   RO         1894    i.osIntNumGet       los_hwi.o
    0x080031ea   0x080031ea   0x00000002   PAD
    0x080031ec   0x080031ec   0x00000014   Code   RO         3428    i.osMemSystemInit   los_memory.o
    0x08003200   0x08003200   0x00000058   Code   RO         2773    i.osMuxInit         los_mux.o
    0x08003258   0x08003258   0x00000040   Code   RO         1981    i.osPriqueueDequeue  los_priqueue.o
    0x08003298   0x08003298   0x0000003c   Code   RO         1982    i.osPriqueueEnqueue  los_priqueue.o
    0x080032d4   0x080032d4   0x00000034   Code   RO         1983    i.osPriqueueInit    los_priqueue.o
    0x08003308   0x08003308   0x00000020   Code   RO         1984    i.osPriqueueSize    los_priqueue.o
    0x08003328   0x08003328   0x00000020   Code   RO         1985    i.osPriqueueTop     los_priqueue.o
    0x08003348   0x08003348   0x000000d8   Code   RO         2848    i.osQueueBufferOperate  los_queue.o
    0x08003420   0x08003420   0x0000005c   Code   RO         2849    i.osQueueInit       los_queue.o
    0x0800347c   0x0800347c   0x00000160   Code   RO         2852    i.osQueueOperate    los_queue.o
    0x080035dc   0x080035dc   0x00000034   Code   RO         2853    i.osQueueReadParameterCheck  los_queue.o
    0x08003610   0x08003610   0x00000034   Code   RO         2854    i.osQueueWriteParameterCheck  los_queue.o
    0x08003644   0x08003644   0x0000000c   Code   RO         1930    i.osRegister        los_init.o
    0x08003650   0x08003650   0x00000004   Code   RO         1748    i.osSchedule        los_hw.o
    0x08003654   0x08003654   0x00000054   Code   RO         2980    i.osSemInit         los_sem.o
    0x080036a8   0x080036a8   0x0000001c   Code   RO         3057    i.osSlabAllocatorAlloc  los_slab.o
    0x080036c4   0x080036c4   0x0000003a   Code   RO         3061    i.osSlabAllocatorFree  los_slab.o
    0x080036fe   0x080036fe   0x00000048   Code   RO         3068    i.osSlabAllocatorNew  los_slab.o
    0x08003746   0x08003746   0x00000010   Code   RO         3185    i.osSlabBlockHeadFill  los_slabmem.o
    0x08003756   0x08003756   0x00000004   Code   RO         3429    i.osSlabCtrlHdrGet  los_memory.o
    0x0800375a   0x0800375a   0x00000074   Code   RO         3187    i.osSlabMemAlloc    los_slabmem.o
    0x080037ce   0x080037ce   0x00000060   Code   RO         3190    i.osSlabMemFree     los_slabmem.o
    0x0800382e   0x0800382e   0x00000056   Code   RO         3191    i.osSlabMemInit     los_slabmem.o
    0x08003884   0x08003884   0x00000084   Code   RO         2084    i.osSwTmrInit       los_swtmr.o
    0x08003908   0x08003908   0x00000188   Code   RO         2085    i.osSwTmrStart      los_swtmr.o
    0x08003a90   0x08003a90   0x0000003c   Code   RO         2086    i.osSwTmrTask       los_swtmr.o
    0x08003acc   0x08003acc   0x00000040   Code   RO         2087    i.osSwTmrTaskCreate  los_swtmr.o
    0x08003b0c   0x08003b0c   0x0000006c   Code   RO         2088    i.osSwTmrTimeoutHandle  los_swtmr.o
    0x08003b78   0x08003b78   0x00000024   Code   RO         2090    i.osSwtmrDelete     los_swtmr.o
    0x08003b9c   0x08003b9c   0x00000020   Code   RO         2091    i.osSwtmrScan       los_swtmr.o
    0x08003bbc   0x08003bbc   0x0000008c   Code   RO         2333    i.osTaskAdd2TimerList  los_task.o
    0x08003c48   0x08003c48   0x0000002c   Code   RO         2334    i.osTaskEntry       los_task.o
    0x08003c74   0x08003c74   0x00000004   Code   RO         1749    i.osTaskExit        los_hw.o
    0x08003c78   0x08003c78   0x000000e0   Code   RO         2335    i.osTaskInit        los_task.o
    0x08003d58   0x08003d58   0x0000002c   Code   RO         2336    i.osTaskMonInit     los_task.o
    0x08003d84   0x08003d84   0x00000034   Code   RO         2337    i.osTaskPriModify   los_task.o
    0x08003db8   0x08003db8   0x000000bc   Code   RO         2338    i.osTaskScan        los_task.o
    0x08003e74   0x08003e74   0x0000013c   Code   RO         2339    i.osTaskSwitchCheck  los_task.o
    0x08003fb0   0x08003fb0   0x0000004c   Code   RO         2340    i.osTaskWait        los_task.o
    0x08003ffc   0x08003ffc   0x00000042   Code   RO         2341    i.osTaskWake        los_task.o
    0x0800403e   0x0800403e   0x00000002   PAD
    0x08004040   0x08004040   0x00000028   Code   RO         2600    i.osTickHandler     los_tick.o
    0x08004068   0x08004068   0x00000078   Code   RO         1843    i.osTickStart       los_hw_tick.o
    0x080040e0   0x080040e0   0x00000034   Code   RO         2342    i.osTimerListDelete  los_task.o
    0x08004114   0x08004114   0x00000038   Code   RO         2652    i.osTimesliceCheck  los_timeslice.o
    0x0800414c   0x0800414c   0x00000010   Code   RO         2653    i.osTimesliceInit   los_timeslice.o
    0x0800415c   0x0800415c   0x00000084   Code   RO         1750    i.osTskStackInit    los_hw.o
    0x080041e0   0x080041e0   0x00000044   Code   RO          330    i.task1             task.o
    0x08004224   0x08004224   0x00000044   Code   RO          331    i.task2             task.o
    0x08004268   0x08004268   0x00000010   Data   RO         1707    .constdata          system_stm32f1xx.o
    0x08004278   0x08004278   0x00000008   Data   RO         1708    .constdata          system_stm32f1xx.o
    0x08004280   0x08004280   0x00000020   Data   RO         3871    Region$$Table       anon$$obj.o


    Execution Region RW_IRAM1 (Exec base: 0x20000000, Load base: 0x080042a0, Size: 0x00000dd0, Max: 0x00005000, ABSOLUTE)

    Exec Addr    Load Addr    Size         Type   Attr      Idx    E Section Name        Object

    0x20000000   0x080042a0   0x00000004   Data   RW          332    .data               task.o
    0x20000004   0x080042a4   0x0000000c   Data   RW          477    .data               stm32f1xx_hal.o
    0x20000010   0x080042b0   0x00000004   Data   RW         1709    .data               system_stm32f1xx.o
    0x20000014   0x080042b4   0x00000004   Data   RW         1931    .data               los_init.o
    0x20000018   0x080042b8   0x00000008   Data   RW         1987    .data               los_priqueue.o
    0x20000020   0x080042c0   0x0000001c   Data   RW         2095    .data               los_swtmr.o
    0x2000003c   0x080042dc   0x00000048   Data   RW         2345    .data               los_task.o
    0x20000084   0x08004324   0x00000004   Data   RW         2601    .data               los_tick.o
    0x20000088   0x08004328   0x00000010   Data   RW         2602    .data               los_tick.o
    0x20000098   0x08004338   0x00000004   Data   RW         2605    .data               los_tick.o
    0x2000009c   0x0800433c   0x00000008   Data   RW         2654    .data               los_timeslice.o
    0x200000a4   0x08004344   0x0000000c   Data   RW         2774    .data               los_mux.o
    0x200000b0   0x08004350   0x0000000c   Data   RW         2855    .data               los_queue.o
    0x200000bc   0x0800435c   0x0000000c   Data   RW         2981    .data               los_sem.o
    0x200000c8   0x08004368   0x00000004   Data   RW         3282    .data               los_err.o
    0x200000cc   0x0800436c   0x00000010   Data   RW         3354    .data               los_heap.o
    0x200000dc   0x0800437c   0x00000004   Data   RW         3430    .data               los_memory.o
    0x200000e0   0x08004380   0x00000001   Data   RW         3694    .data               uart_msp.o
    0x200000e1   0x08004381   0x00000003   PAD
    0x200000e4   0x08004384   0x00000008   Data   RW         3751    .data               debug.o
    0x200000ec        -       0x00000040   Zero   RW         2094    .bss                los_swtmr.o
    0x2000012c        -       0x00000156   Zero   RW         2343    .bss                los_task.o
    0x20000282   0x0800438c   0x00000002   PAD
    0x20000284        -       0x00000250   Zero   RW         3693    .bss                uart_msp.o
    0x200004d4        -       0x000000fb   Zero   RW         3750    .bss                debug.o
    0x200005cf   0x0800438c   0x00000001   PAD
    0x200005d0        -       0x00000800   Zero   RW            1    STACK               startup_stm32f103xb.o


==============================================================================

Image component sizes


      Code (inc. data)   RO Data    RW Data    ZI Data      Debug   Object Name

       100          8          0          8        251       2021   debug.o
       204         24          0          0          0        412   los_dispatch_keil.o
        44         10          0          4          0       2310   los_err.o
       804         96          0         16          0       6986   los_heap.o
       204         20          0          0          0      13242   los_hw.o
       120         24          0          0          0      22905   los_hw_tick.o
        42          8          0          0          0       3716   los_hwi.o
       324        138          0          4          0       2304   los_init.o
       366         70          0          4          0       4526   los_memory.o
        20          0          0          0          0        592   los_misc.o
       852        170          0         12          0       6176   los_mux.o
       254         34          0          8          0      15382   los_priqueue.o
      1074         98          0         12          0      17372   los_queue.o
        98         12          0         12          0       2712   los_sem.o
       332          0          0          0          0       5874   los_slab.o
       314          0          0          0          0       3927   los_slabmem.o
       824         72          0         28         64      16606   los_swtmr.o
        12          6          0          0          0        475   los_sys.o
      2366        302          0         72        342      26210   los_task.o
        40          6          0         24          0        968   los_tick.o
        72         16          0          8          0       1209   los_timeslice.o
       560        114          0          0          0     413505   main.o
        60          0          0          0          0       2014   queue.o
        36          8        236          0       2048        780   startup_stm32f103xb.o
       116         20          0         12          0       4691   stm32f1xx_hal.o
       194         14          0          0          0      25719   stm32f1xx_hal_cortex.o
       538         38          0          0          0       3864   stm32f1xx_hal_gpio.o
        60          8          0          0          0        822   stm32f1xx_hal_msp.o
      1464         98          0          0          0       6428   stm32f1xx_hal_rcc.o
       816          4          0          0          0       3620   stm32f1xx_hal_uart.o
        42          0          0          0          0       3647   stm32f1xx_it.o
        72         16         24          4          0       1091   system_stm32f1xx.o
       240        100          0          4          0       2564   task.o
       340         48          0          1        592       3102   uart_msp.o

    ----------------------------------------------------------------------
     13024       1582        292        236       3300     627772   Object Totals
         0          0         32          0          0          0   (incl. Generated)
        20          0          0          3          3          0   (incl. Padding)

    ----------------------------------------------------------------------

      Code (inc. data)   RO Data    RW Data    ZI Data      Debug   Library Member Name

         0          0          0          0          0          0   entry.o
         0          0          0          0          0          0   entry10a.o
         0          0          0          0          0          0   entry11a.o
         8          4          0          0          0          0   entry2.o
         4          0          0          0          0          0   entry5.o
         0          0          0          0          0          0   entry7b.o
         0          0          0          0          0          0   entry8b.o
         8          4          0          0          0          0   entry9a.o
        30          0          0          0          0          0   handlers.o
        36          8          0          0          0         68   init.o
         0          0          0          0          0          0   iusefp.o
        30          0          0          0          0         68   llshl.o
        36          0          0          0          0         68   llsshr.o
        32          0          0          0          0         68   llushr.o
        36          0          0          0          0         68   memcpya.o
        36          0          0          0          0        108   memseta.o
      2272         86          0          0          0        516   printfa.o
        44          0          0          0          0         80   uidiv.o
        98          0          0          0          0         92   uldiv.o
        48          0          0          0          0         68   cdrcmple.o
       334          0          0          0          0        148   dadd.o
       222          0          0          0          0        100   ddiv.o
       186          0          0          0          0        176   depilogue.o
        48          0          0          0          0         68   dfixul.o
       228          0          0          0          0         96   dmul.o

    ----------------------------------------------------------------------
      3740        102          0          0          0       1792   Library Totals
         4          0          0          0          0          0   (incl. Padding)

    ----------------------------------------------------------------------

      Code (inc. data)   RO Data    RW Data    ZI Data      Debug   Library Name

      2670        102          0          0          0       1136   mc_w.l
      1066          0          0          0          0        656   mf_w.l

    ----------------------------------------------------------------------
      3740        102          0          0          0       1792   Library Totals

    ----------------------------------------------------------------------

==============================================================================


      Code (inc. data)   RO Data    RW Data    ZI Data      Debug   

     16764       1684        292        236       3300     621656   Grand Totals
     16764       1684        292        236       3300     621656   ELF Image Totals
     16764       1684        292        236          0          0   ROM Totals

==============================================================================

    Total RO  Size (Code + RO Data)                17056 (  16.66kB)
    Total RW  Size (RW Data + ZI Data)              3536 (   3.45kB)
    Total ROM Size (Code + RO Data + RW Data)      17292 (  16.89kB)

==============================================================================

